1028226757110044676000000100028286762087027150100000020947000000000000BLIL.4004539083BMFW-0000000000SEGOMOTSO DIKEL00000000000000000000000000000000000000000000000000000000000000000
1028226757110044676000000100128546762030726543100000077580000000000000BLIL.4005683781PSTA-0000000000GRANT STEVEN RE00000000000000000000000000000000000000000000000000000000000000000
1028226757110044676000000100228186762088480985100000022550000000000000BLIL.4005430336URA1-0000000000PETER KEOFETHIL00000000000000000000000000000000000000000000000000000000000000000
1028226757110044676000000100328456762323706997100000017943000000000000BLIL.4002889729ULP1-0000000000NONOFO SEGWABAN00000000000000000000000000000000000000000000000000000000000000000
1028226757110044676000000100428516762229288057100000024195000000000000BLIL.4001559378BMFW-0000000000CHARLES MASENE 00000000000000000000000000000000000000000000000000000000000000000
1028226757110044676000000100528246762223998652100000026500000000000000BLIL.4007085070BMFW-0000000000LETSWAKAE SENAU00000000000000000000000000000000000000000000000000000000000000000
1028226757110044676000000100628286762403710321100000012763000000000000BLIL.4002469775ULP1-0000000000NEDUKA ZIBANANI00000000000000000000000000000000000000000000000000000000000000000
1028226757110044676000000100728516757200018292100000037275000000000000BLIL.4005172245ULP1-0000000000SALANI MASALA  00000000000000000000000000000000000000000000000000000000000000000
1028226757110044676000000100828236762443719408100000024900000000000000BLIL.4005479251BMFW-0000000000KAZEMBUA MUNDUU00000000000000000000000000000000000000000000000000000000000000000
1028226757110044676000000100928286762490218362100000021525000000000000BLIL.4005721092ULP1-0000000000NATASHA NTHUSAN00000000000000000000000000000000000000000000000000000000000000000
1028226757110044676000000101028236762716110507100000022700000000000000BLIL.4006271825BMFW-0000000000GALETLHAOLE DIK00000000000000000000000000000000000000000000000000000000000000000
1028226757110044676000000101128146762107767800100000019699000000000000BLIL.0000226909BMFW-0000000000GAONE LAWRENCE 00000000000000000000000000000000000000000000000000000000000000000
1028226757110044676000000101228146762158225542100000016847000000000000BLIL.4001008903BMFW-0000000000TSHENOLO REVELA00000000000000000000000000000000000000000000000000000000000000000
1028226757110044676000000101328506762165000151100000035800000000000000BLIL.4006206353BMFW-0000000000GABAATHOLWE MAB00000000000000000000000000000000000000000000000000000000000000000
1028226757110044676000000101428286762086952837100000037000000000000000BLIL.4006802521BMFW-0000000000MOETELEDI BRIAN00000000000000000000000000000000000000000000000000000000000000000
1028226757110044676000000101528246762332668609100000025525000000000000BLIL.4000878813BMFW-0000000000KELETSO NDUBO  00000000000000000000000000000000000000000000000000000000000000000
1028226757110044676000000101628126762603237018100000008900000000000000BLIL.4007255198BMFW-0000000000KGOMOTSO MMONAD00000000000000000000000000000000000000000000000000000000000000000
1028226757110044676000000101728236762297784326100000025000000000000000BLIL.4007248397MFDS-0000000000FELICIA MALEPE 00000000000000000000000000000000000000000000000000000000000000000
1028226757110044676000000101828306762440607961100000010577000000000000BLIL.4001751900BMFW-0000000000MOTLALEPULA RAM00000000000000000000000000000000000000000000000000000000000000000
1028226757110044676000000101928456762276909945100000036905000000000000BLIL.4002680399ULM5-0000000000BOIKHUTSO RABOK00000000000000000000000000000000000000000000000000000000000000000
1028226757110044676000000102028286762372786578100000040100000000000000BLIL.4005158855BMFW-0000000000SETSHABA KENALE00000000000000000000000000000000000000000000000000000000000000000
1028226757110044676000000102128456762251038511100000022589000000000000BLIL.4006781179PSTA-0000000000KAGISO MOKATE  00000000000000000000000000000000000000000000000000000000000000000
1028226757110044676000000102228246762276337550100000031422000000000000BLIL.4005053421BMFW-0000000000GOITSEMODIMO DI00000000000000000000000000000000000000000000000000000000000000000
1028226757110044676000000102328606762308253319100000020500000000000000BLIL.4006112237URA1-0000000000FLORAH MORRIS  00000000000000000000000000000000000000000000000000000000000000000
1028226757110044676000000102428556762545054497100000010800000000000000BLIL.4006592297BMFW-0000000000AKANYANG DAVID 00000000000000000000000000000000000000000000000000000000000000000
1028226757110044676000000102528146762684664503100000014700000000000000BLIL.4005826808BMFW-0000000000CYNTHIA MAWOCHI00000000000000000000000000000000000000000000000000000000000000000
1028226757110044676000000102628286762377609733100000022145000000000000BLIL.4000010780URA1-0000000000MALEBOGO MOREET00000000000000000000000000000000000000000000000000000000000000000
1028226757110044676000000102728286762086989921100000032500000000000000BLIL.4007111611MFDS-0000000000NEELO NICOLE LE00000000000000000000000000000000000000000000000000000000000000000
1028226757110044676000000102828286762279723144100000033199000000000000BLIL.4006729909PSTA-0000000000BRIGHT CHAKABIP00000000000000000000000000000000000000000000000000000000000000000
1028226757110044676000000102928546762081692008100000033670000000000000BLIL.4002445018BMFW-0000000000KHUMALO MHLANGA00000000000000000000000000000000000000000000000000000000000000000
1028226757110044676000000103028516762614079988100000028100000000000000BLIL.4006883466BMFW-0000000000THATO T MOLEBAT00000000000000000000000000000000000000000000000000000000000000000
1028226757110044676000000103128286762367297639100000034674000000000000BLIL.4006897968PSTA-0000000000THAPELO BATSALE00000000000000000000000000000000000000000000000000000000000000000
1028226757110044676000000103228306762549723816100000030500000000000000BLIL.4005797714ULP1-0000000000TSHEPHO PHEKOYA00000000000000000000000000000000000000000000000000000000000000000
1028226757110044676000000103328146762182109077100000021825000000000000BLIL.4000647563BMFW-0000000000KGOMOTSO GASENN00000000000000000000000000000000000000000000000000000000000000000
1028226757110044676000000103428606762471381550100000025000000000000000BLIL.4007037904MFDS-0000000000LEFETOGILE TSHE00000000000000000000000000000000000000000000000000000000000000000
1028226757110044676000000103528236762244787795100000096591000000000000BLIL.4002004761BMKS-0000000000OTENG REIKELETS00000000000000000000000000000000000000000000000000000000000000000
1028226757110044676000000103628286762457301308100000009000000000000000BLIL.4007168325BMFW-0000000000HAPPY MEKIAH   00000000000000000000000000000000000000000000000000000000000000000
1028226757110044676000000103728526762781285674100000073638000000000000BLIL.4006869149PSTA-0000000000BAAKILE MOTSHEG00000000000000000000000000000000000000000000000000000000000000000
1028226757110044676000000103828236762366005679100000032793000000000000BLIL.4004301985BMFW-0000000000MISHINGO CHABON00000000000000000000000000000000000000000000000000000000000000000
1028226757110044676000000103928146762277375616100000031300000000000000BLIL.4006410524BMFW-0000000000PHEMELO BAIPIDI00000000000000000000000000000000000000000000000000000000000000000
1028226757110044676000000104028456762288976114100000017529000000000000BLIL.4004871449BMFW-0000000000THABANG MATLHAB00000000000000000000000000000000000000000000000000000000000000000
1028226757110044676000000104128286762502484067100000070044000000000000BLIL.4005362157PSTA-0000000000KABELO LENONG  00000000000000000000000000000000000000000000000000000000000000000
1028226757110044676000000104228456762497981144100000019500000000000000BLIL.4005550211BMFW-0000000000BOITSHOKO NELLY00000000000000000000000000000000000000000000000000000000000000000
1028226757110044676000000104328456762458505024100000021700000000000000BLIL.4005311821BMFW-0000000000REFILWE MOLEMAN00000000000000000000000000000000000000000000000000000000000000000
1028226757110044676000000104428286762086979310100000057500000000000000BLIL.04004223680LORE0000000000OLEBOGENG DANIE00000000000000000000000000000000000000000000000000000000000000000
1028226757110044676000000104528316762261710688100000034459000000000000BLIL.4000094241BMFW-0000000000KEFILWE JAMES  00000000000000000000000000000000000000000000000000000000000000000
1028226757110044676000000104628286762372238769100000032210000000000000BLIL.4000416637URA1-0000000000KEBAABETSWE A K00000000000000000000000000000000000000000000000000000000000000000
1028226757110044676000000104728146762431861609100000048425000000000000BLIL.4005346993PSTA-0000000000KELEBOGILE KENA00000000000000000000000000000000000000000000000000000000000000000
1028226757110044676000000104828236762413166704100000014112000000000000BLIL.4004016940BMFW-0000000000ONALENNA MATEBU00000000000000000000000000000000000000000000000000000000000000000
1028226757110044676000000104928236762617561247100000031700000000000000BLIL.4005721555BMFW-0000000000KITSOYAONE MONT00000000000000000000000000000000000000000000000000000000000000000
1028226757110044676000000105028246762569820527100000020500000000000000BLIL.4006869880BMFW-0000000000GASEGALE RAMIDI00000000000000000000000000000000000000000000000000000000000000000
1028226757110044676000000105128286762276555524100000026250000000000000BLIL.4004222888ULP1-0000000000KENEILWE NTALAG00000000000000000000000000000000000000000000000000000000000000000
1028226757110044676000000105228536762589031667100000018700000000000000BLIL.4005677889BMFW-0000000000PELONOMI LETSHW00000000000000000000000000000000000000000000000000000000000000000
1028226757110044676000000105328286762086960723100000035307000000000000BLIL.4003052429URA1-0000000000TAPOLOGO LILIAN00000000000000000000000000000000000000000000000000000000000000000
1028226757110044676000000105428506762264274855100000016905000000000000BLIL.4006210392BMFW-0000000000JOHANAH PIET   00000000000000000000000000000000000000000000000000000000000000000
1028226757110044676000000105528246762204154174100000032500000000000000BLIL.4006668806MFDS-0000000000MOSE DIKOLOTI  00000000000000000000000000000000000000000000000000000000000000000
1028226757110044676000000105628896762662504094100000050500000000000000BLIL.4006246355ULMG-0000000000MBIGANYI NDOME 00000000000000000000000000000000000000000000000000000000000000000
1028226757110044676000000105728306762478190061100000030000000000000000BLIL.4006677887MFDS-0000000000GAOLEBALE MOTLA00000000000000000000000000000000000000000000000000000000000000000
1028226757110044676000000105828306762257094658100000025000000000000000BLIL.4006718992MFDS-0000000000GADIFELE PRECIO00000000000000000000000000000000000000000000000000000000000000000
1028226757110044676000000105928456762705871425100000150000000000000000BLIL.4006190378ULMG-0000000000SHIMANE AARON M00000000000000000000000000000000000000000000000000000000000000000
1028226757110044676000000106028546762009027774100000069500000000000000BLIL.04003992128LORE0000000000TAPIWA BOINGOTL00000000000000000000000000000000000000000000000000000000000000000
1028226757110044676000000106128286762113791372100000024805000000000000BLIL.4004443892ULP1-0000000000LORATO DOLLY MO00000000000000000000000000000000000000000000000000000000000000000
1028226757110044676000000106228306762123249783100000040248000000000000BLIL.4004133186BMK1-0000000000TUMELO EDGAR FA00000000000000000000000000000000000000000000000000000000000000000
1028226757110044676000000106328286762368317288100000022300000000000000BLIL.4006443026BMFW-0000000000TSHEPHANG ISATA00000000000000000000000000000000000000000000000000000000000000000
1028226757110044676000000106428506762182631103100000022601000000000000BLIL.4004443737ULM5-0000000000KGOMOTSO MASILO00000000000000000000000000000000000000000000000000000000000000000
1028226757110044676000000106528556762328051636100000025527000000000000BLIL.4000240416URA1-0000000000LEBUSITSWE BOLO00000000000000000000000000000000000000000000000000000000000000000
1028226757110044676000000106628546762486438396100000072617000000000000BLIL.4006748488PSTA-0000000000KEDUMETSE LENNW00000000000000000000000000000000000000000000000000000000000000000
1028226757110044676000000106728176762239937503100000037700000000000000BLIL.4006479021BMFW-0000000000MOSONDO KEGAKIL00000000000000000000000000000000000000000000000000000000000000000
1028226757110044676000000106828286762368317288100000035000000000000000BLIL.4006441969MFDS-0000000000TSHEPHANG ISATA00000000000000000000000000000000000000000000000000000000000000000
1028226757110044676000000106928286762279132353100000046296000000000000BLIL.4000492514BMFW-0000000000ZENZELENI MAFU 00000000000000000000000000000000000000000000000000000000000000000
1028226757110044676000000107028456762081701982100000033164000000000000BLIL.0000099124BMFW-0000000000MOGAKOLODI MOKO00000000000000000000000000000000000000000000000000000000000000000
1028226757110044676000000107128146762460171889100000016786000000000000BLIL.4002964115BMFW-0000000000PAKO MHAPHA    00000000000000000000000000000000000000000000000000000000000000000
1028226757110044676000000107228526762229170329100000020500000000000000BLIL.4006117342ULM3-0000000000KARABO OAITSE  00000000000000000000000000000000000000000000000000000000000000000
1028226757110044676000000107328306762751259980100000019000000000000000BLIL.4006736108BMFW-0000000000KEGOMODITSWE MO00000000000000000000000000000000000000000000000000000000000000000
1028226757110044676000000107428286762150249764100000021575000000000000BLIL.4000359279BMFW-0000000000BOINGOTLO MASAS00000000000000000000000000000000000000000000000000000000000000000
1028226757110044676000000107528286762146596921100000060500000000000000BLIL.4004472099ULP1-0000000000LORRAINE LORATO00000000000000000000000000000000000000000000000000000000000000000
1028226757110044676000000107628286762372789100100000035000000000000000BLIL.4007110990MFDS-0000000000THUSO HETANANG 00000000000000000000000000000000000000000000000000000000000000000
1028226757110044676000000107728286762234064450100000032025000000000000BLIL.4006026135ULM3-0000000000TUMELO PHENYO L00000000000000000000000000000000000000000000000000000000000000000
1028226757110044676000000107828236762370876587100000023744000000000000BLIL.4002856421BMFW-0000000000OAMPONA SAMPOFO00000000000000000000000000000000000000000000000000000000000000000
1028226757110044676000000107928516762614949850100000011900000000000000BLIL.4006634748BMFW-0000000000ISAAC JOSIAH   00000000000000000000000000000000000000000000000000000000000000000
1028226757110044676000000108028456762376250561100000020500000000000000BLIL.4004733015ULM5-0000000000AGNES PHALE    00000000000000000000000000000000000000000000000000000000000000000
1028226757110044676000000108128236762504231888100000022550000000000000BLIL.4004937039ULP1-0000000000MOTSEOTSILE G. 00000000000000000000000000000000000000000000000000000000000000000
1028226757110044676000000108228236762186923126100000030015000000000000BLIL.4001939794ULM5-0000000000RUTH GABAFEDIWE00000000000000000000000000000000000000000000000000000000000000000
1028226757110044676000000108328186762087011955100000040863000000000000BLIL.4002679756BMFW-0000000000ONKABETSE MOEME00000000000000000000000000000000000000000000000000000000000000000
1028226757110044676000000108428526762222148977100000030000000000000000BLIL.4006399384MFDS-0000000000NOBUKHOSI LAURA00000000000000000000000000000000000000000000000000000000000000000
1028226757110044676000000108528286762148069778100000032200000000000000BLIL.4006685749BMFW-0000000000ONNEETSE ITISEN00000000000000000000000000000000000000000000000000000000000000000
1028226757110044676000000108628316762624158730100000011700000000000000BLIL.4006452942BMFW-0000000000ONTIRETSE TINOS00000000000000000000000000000000000000000000000000000000000000000
1028226757110044676000000108728556762680653500100000025000000000000000BLIL.4007243054MFDS-0000000000THATO LOVIN DIT00000000000000000000000000000000000000000000000000000000000000000
1028226757110044676000000108828186762254867579100000026900000000000000BLIL.4006877807BMFW-0000000000POLOKO TAPELA  00000000000000000000000000000000000000000000000000000000000000000
1028226757110044676000000108928306762274769440100000021759000000000000BLIL.4002088280BMFW-0000000000MAIKANO SEANE  00000000000000000000000000000000000000000000000000000000000000000
1028226757110044676000000109028146762202342656100000066550000000000000BLIL.4003140612ULMG-0000000000CLIFF DITHAPO  00000000000000000000000000000000000000000000000000000000000000000
1028226757110044676000000109128186762282654790100000014702000000000000BLIL.4003401654BMFW-0000000000LAPOLOGANG GONT00000000000000000000000000000000000000000000000000000000000000000
1028226757110044676000000109228196762303576980100000050000000000000000BLIL.4006850760MFDS-0000000000CASSIM TSHOGANE00000000000000000000000000000000000000000000000000000000000000000
1028226757110044676000000109328236762290599095100000020500000000000000BLIL.4005598465ULP1-0000000000MMAMOKGOPYA KAT00000000000000000000000000000000000000000000000000000000000000000
1028226757110044676000000109428316762010091552100000030000000000000000BLIL.4007117895MFDS-0000000000BATSHIDI LOPANG00000000000000000000000000000000000000000000000000000000000000000
1028226757110044676000000109528186762499001502100000082500000000000000BLIL.4006770170MFDS-0000000000TAWANDA KITSI  00000000000000000000000000000000000000000000000000000000000000000
1028226757110044676000000109628516762506153759100000017300000000000000BLIL.4006366573BMFW-0000000000ONKGOLOTSE SIMA00000000000000000000000000000000000000000000000000000000000000000
1028226757110044676000000109728146762174183352100000032500000000000000BLIL.4007001739MFDS-0000000000SESIRO BAREETSE00000000000000000000000000000000000000000000000000000000000000000
1028226757110044676000000109828526762339475007100000055676000000000000BLIL.4005012910ULM3-0000000000GAOLATHE WANTLE00000000000000000000000000000000000000000000000000000000000000000
1028226757110044676000000109928286762087030343100000058591000000000000BLIL.4004083210BMKS-0000000000TEMO TEBOGO TOM00000000000000000000000000000000000000000000000000000000000000000
1028226757110044676000000110028456762439163685100000032900000000000000BLIL.4006636889BMFW-0000000000MOTHUSI THATO M00000000000000000000000000000000000000000000000000000000000000000
1028226757110044676000000110128286762086989533100000031810000000000000BLIL.4004696271PSTA-0000000000STEPHEN MOPALO 00000000000000000000000000000000000000000000000000000000000000000
1028226757110044676000000110228516762117814104100000031500000000000000BLIL.04000058227LORE0000000000BERNARD MAGANO 00000000000000000000000000000000000000000000000000000000000000000
1028226757110044676000000110328236762377726040100000017800000000000000BLIL.4005142945BMFW-0000000000MARGARET G. DEK00000000000000000000000000000000000000000000000000000000000000000
1028226757110044676000000110428566762279320651100000027900000000000000BLIL.4005689046BMFW-0000000000DORAH NDOVE    00000000000000000000000000000000000000000000000000000000000000000
1028226757110044676000000110528306762262780599100000034151000000000000BLIL.4002921945BMFW-0000000000OBOLOKILE KATHO00000000000000000000000000000000000000000000000000000000000000000
1028226757110044676000000110628526762235661239100000023835000000000000BLIL.4005769791BMFW-0000000000ITUMELENG MODIS00000000000000000000000000000000000000000000000000000000000000000
1028226757110044676000000110728286762479392856100000070628000000000000BLIL.4006764236PSWL-0000000000OTHUSITSE ROSS 00000000000000000000000000000000000000000000000000000000000000000
1028226757110044676000000110828236762088400389100000043923000000000000BLIL.4002599386ULM5-0000000000ODUMETSE MODIKW00000000000000000000000000000000000000000000000000000000000000000
1028226757110044676000000110928306762304323009100000018800000000000000BLIL.4006682408BMFW-0000000000ISABEL LESEDI M00000000000000000000000000000000000000000000000000000000000000000
1028226757110044676000000111028166762281564239100000069598000000000000BLIL.4006848189PSTA-0000000000TEBOGO S MOTLHA00000000000000000000000000000000000000000000000000000000000000000
1028226757110044676000000111128306762254403547100000016911000000000000BLIL.4001059124ULP1-0000000000LESEGO MAITEWA 00000000000000000000000000000000000000000000000000000000000000000
1028226757110044676000000111228456762367194207100000121605000000000000BLIL.4004676932ULM5-0000000000OMPHILE TSHIPA 00000000000000000000000000000000000000000000000000000000000000000
1028226757110044676000000111328286762060321678100000038493000000000000BLIL.4004716570PSTA-0000000000ONKEMETSE SAMSO00000000000000000000000000000000000000000000000000000000000000000
1028226757110044676000000111428186762361733382100000033941000000000000BLIL.4002936100ULM3-0000000000ELLEN TAWANA   00000000000000000000000000000000000000000000000000000000000000000
1028226757110044676000000111528286762205192222100000032296000000000000BLIL.4003739924BMFW-0000000000OLGA BANYANA MO00000000000000000000000000000000000000000000000000000000000000000
1028226757110044676000000111628456762745275075100000020400000000000000BLIL.4006594613BMFW-0000000000THAPELO OBUSITS00000000000000000000000000000000000000000000000000000000000000000
1028226757110044676000000111728456762537787147100000011000000000000000BLIL.4006635249BMFW-0000000000SANE OTSILE LEK00000000000000000000000000000000000000000000000000000000000000000
1028226757110044676000000111828286762305112196100000016442000000000000BLIL.4007015045PSTA-0000000000MATSHIDISO MATO00000000000000000000000000000000000000000000000000000000000000000
1028226757110044676000000111928316762336607786100000023584000000000000BLIL.0000627589BMFW-0000000000MAUNGO MANGADI 00000000000000000000000000000000000000000000000000000000000000000
1028226757110044676000000112028166762249071581100000025000000000000000BLIL.4006491176MFDS-0000000000REBECCA PHURALL00000000000000000000000000000000000000000000000000000000000000000
1028226757110044676000000112128236762315012063100000030000000000000000BLIL.4007188185MFDS-0000000000GAOLATLHE BALOS00000000000000000000000000000000000000000000000000000000000000000
1028226757110044676000000112228186762677723811100000015600000000000000BLIL.4006953215BMFW-0000000000SARAH NANCY MON00000000000000000000000000000000000000000000000000000000000000000
1028226757110044676000000112328286762126364801100000023035000000000000BLIL.4003246911BMFW-0000000000ADELINE KEHELET00000000000000000000000000000000000000000000000000000000000000000
1028226757110044676000000112428526762087005734100000030500000000000000BLIL.0000508600ULP1-0000000000RENEILWE OBUSEN00000000000000000000000000000000000000000000000000000000000000000
1028226757110044676000000112528236762494738853100000016672000000000000BLIL.4003252619BMFW-0000000000AFRICA KGOSINTW00000000000000000000000000000000000000000000000000000000000000000
1028226757110044676000000112628526762496703284100000050500000000000000BLIL.4005896980ULP1-0000000000MMESI THANDEKA 00000000000000000000000000000000000000000000000000000000000000000
1028226757110044676000000112728456762566726984100000226542000000000000BLIL.4006765371PSTA-0000000000LENARD PETER VA00000000000000000000000000000000000000000000000000000000000000000
1028226757110044676000000112828126762441554822100000013976000000000000BLIL.4003233512ULP1-0000000000NAMETSO M SERAK00000000000000000000000000000000000000000000000000000000000000000
1028226757110044676000000112928236762381202094100000022500000000000000BLIL.4006548557MFDS-0000000000BABOLOKI NKAELA00000000000000000000000000000000000000000000000000000000000000000
1028226757110044676000000113028516762741807012100000100000000000000000BLIL.4006926303MFDS-0000000000JOHN JAN JOSHUA00000000000000000000000000000000000000000000000000000000000000000
1028226757110044676000000113128506762330455082100000033500000000000000BLIL.4005691805BMFW-0000000000RACIOUS B MANOW00000000000000000000000000000000000000000000000000000000000000000
1028226757110044676000000113228546762131408123100000140701000000000000BLIL.4007187309PSTA-0000000000TUELO BALEBEDI 00000000000000000000000000000000000000000000000000000000000000000
1028226757110044676000000113328376762217915654100000057800000000000000BLIL.4007062589PSTA-0000000000GAONE MOSIMI   00000000000000000000000000000000000000000000000000000000000000000
1028226757110044676000000113428516762119733188100000023650000000000000BLIL.4005630649ULP1-0000000000TLHALEFO SETLHO00000000000000000000000000000000000000000000000000000000000000000
1028226757110044676000000113528286762126284736100000035307000000000000BLIL.4003760597URA1-0000000000KELETSO MILDRED00000000000000000000000000000000000000000000000000000000000000000
1028226757110044676000000113628126762106094022100000012300000000000000BLIL.4006925844BMFW-0000000000MOANASETSO KERE00000000000000000000000000000000000000000000000000000000000000000
1028226757110044676000000113728506762165599261100000030500000000000000BLIL.0000118621URA1-0000000000NKULULEKO PAMAN00000000000000000000000000000000000000000000000000000000000000000
1028226757110044676000000113828286762086945353100000062978000000000000BLIL.4005969850PSTA-0000000000BOIKOBO JAIRROU00000000000000000000000000000000000000000000000000000000000000000
1028226757110044676000000113928166762409462083100000032500000000000000BLIL.4007038926MFDS-0000000000OARABILE OLEKAN00000000000000000000000000000000000000000000000000000000000000000
1028226757110044676000000114028236762366199092100000012285000000000000BLIL.4005279817BMFW-0000000000CLINTON MOKOWE 00000000000000000000000000000000000000000000000000000000000000000
1028226757110044676000000114128236762109230201100000022500000000000000BLIL.4006666642MFDS-0000000000GOSALAMANG RAMA00000000000000000000000000000000000000000000000000000000000000000
1028226757110044676000000114228286762113273362100000030855000000000000BLIL.4004543682ULM3-0000000000LETTA SHABANI  00000000000000000000000000000000000000000000000000000000000000000
1028226757110044676000000114328186762361733382100000033941000000000000BLIL.4002932960ULM3-0000000000ELLEN TAWANA   00000000000000000000000000000000000000000000000000000000000000000
1028226757110044676000000114428526762317370005100000016348000000000000BLIL.0000642056BMFW-0000000000TONNY GICHO KOL00000000000000000000000000000000000000000000000000000000000000000
1028226757110044676000000114528286762029094662100000108992000000000000BLIL.4000420171BMK1-0000000000KOKELETSO ANNO 00000000000000000000000000000000000000000000000000000000000000000
1028226757110044676000000114628286762234528505100000058671000000000000BLIL.4006476984PSTA-0000000000CLEMENT MBAKISI00000000000000000000000000000000000000000000000000000000000000000
1028226757110044676000000114728526762183739261100000102133000000000000BLIL.4005231914PSTA-0000000000TSHENOLO RYAN M00000000000000000000000000000000000000000000000000000000000000000
1028226757110044676000000114828556762379496948100000025000000000000000BLIL.4005104694ULM3-0000000000NICK MATSAPA   00000000000000000000000000000000000000000000000000000000000000000
1028226757110044676000000114928896762688055782100000202500000000000000BLIL.4006804125MFDS-0000000000MICHAEL PHIRI  00000000000000000000000000000000000000000000000000000000000000000
1028226757110044676000000115028456762527001391100000059683000000000000BLIL.4002374302BMFW-0000000000EPHRAIM RULLIE 00000000000000000000000000000000000000000000000000000000000000000
1028226757110044676000000115128286762086955451100000017421000000000000BLIL.0000602698BMFW-0000000000OOKEDITSE KHACH00000000000000000000000000000000000000000000000000000000000000000
1028226757110044676000000115228456762118269324100000015987000000000000BLIL.4003935487BMFW-0000000000OGOLOTSE NKATHO00000000000000000000000000000000000000000000000000000000000000000
1028226757110044676000000115328146762455086291100000026400000000000000BLIL.4006502193BMFW-0000000000BOKAMOSO AOBAKW00000000000000000000000000000000000000000000000000000000000000000
1028226757110044676000000115428186762294607802100000052500000000000000BLIL.4006798904MFRA-0000000000OMPHILE MOKGATL00000000000000000000000000000000000000000000000000000000000000000
1028226757110044676000000115528286762427126760100000017000000000000000BLIL.4006751023BMFW-0000000000TSHEPO MABUSA  00000000000000000000000000000000000000000000000000000000000000000
1028226757110044676000000115628176762482801092100000044625000000000000BLIL.4005556681MFDS-0000000000OTSILE PATRICK 00000000000000000000000000000000000000000000000000000000000000000
1028226757110044676000000115728566762113606399100000134010000000000000BLIL.4000059435URA1-0000000000GONTSE KOMANYAN00000000000000000000000000000000000000000000000000000000000000000
1028226757110044676000000115828166762074694714100000033000000000000000BLIL.4005180000ULP1-0000000000MOSETSANAGAPE G00000000000000000000000000000000000000000000000000000000000000000
1028226757110044676000000115928286762086938465100000052260000000000000BLIL.4004502464BMFW-0000000000IDAH NEO DITHUP00000000000000000000000000000000000000000000000000000000000000000
1028226757110044676000000116028516762344789906100000023300000000000000BLIL.4005702563BMFW-0000000000TEBOGO SIMASIKU00000000000000000000000000000000000000000000000000000000000000000
1028226757110044676000000116128146762637851355100000026300000000000000BLIL.4005316059BMFW-0000000000NEO HENDRICK   00000000000000000000000000000000000000000000000000000000000000000
1028226757110044676000000116228456762316341346100000050287000000000000BLIL.4000765064BMFW-0000000000OLEBILE BOLOBIL00000000000000000000000000000000000000000000000000000000000000000
1028226757110044676000000116328126762366702936100000023616000000000000BLIL.4003662173BMFW-0000000000GAONE NEO MAKWA00000000000000000000000000000000000000000000000000000000000000000
1028226757110044676000000116428146762138727394100000021525000000000000BLIL.4005997205ULM3-0000000000TSHEGOFATSO G M00000000000000000000000000000000000000000000000000000000000000000
1028226757110044676000000116528186762583683951100000022200000000000000BLIL.4006576376BMFW-0000000000WANANANI DANDI 00000000000000000000000000000000000000000000000000000000000000000
1028226757110044676000000116628286762569149612100000053147000000000000BLIL.4006850168PSTA-0000000000WILILANI MASALI00000000000000000000000000000000000000000000000000000000000000000
1028226757110044676000000116728286762113781927100000025027000000000000BLIL.4004553871BMFW-0000000000CLAUDINAH MAREA00000000000000000000000000000000000000000000000000000000000000000
1028226757110044676000000116828226762369556463100000340000000000000000BLIL.4005890560MFRA-0000000000MESSIDOR INVEST00000000000000000000000000000000000000000000000000000000000000000
1028226757110044676000000116928146762557164177100000045500000000000000BLIL.4004949131ULM3-0000000000BAME AGISANYANG00000000000000000000000000000000000000000000000000000000000000000
1028226757110044676000000117028166757160048701100000021028000000000000BLIL.4002039485BMFW-0000000000BOITUMELO KGAOD00000000000000000000000000000000000000000000000000000000000000000
1028226757110044676000000117128546762563486226100000047200000000000000BLIL.04003890865LORE0000000000MPHO MPHENGULA 00000000000000000000000000000000000000000000000000000000000000000
1028226757110044676000000117228236762118646697100000036025000000000000BLIL.4005307002BMFW-0000000000KETANEWA OFENTS00000000000000000000000000000000000000000000000000000000000000000
1028226757110044676000000117328286762326948976100000019679000000000000BLIL.4002927941BMFW-0000000000MASEGO LEAH MAI00000000000000000000000000000000000000000000000000000000000000000
1028226757110044676000000117428456762453799276100000024805000000000000BLIL.4004391592URA1-0000000000PEARL LEBO KGOM00000000000000000000000000000000000000000000000000000000000000000
1028226757110044676000000117528236762694167795100000019425000000000000BLIL.4005780094BMFW-0000000000THALOSANG BATSH00000000000000000000000000000000000000000000000000000000000000000
1028226757110044676000000117628146762460171889100000017943000000000000BLIL.4002967090ULM5-0000000000PAKO MHAPHA    00000000000000000000000000000000000000000000000000000000000000000
1028226757110044676000000117728146762290406943100000022575000000000000BLIL.4002936388BMFW-0000000000TSHENOLO KGOTLE00000000000000000000000000000000000000000000000000000000000000000
1028226757110044676000000117828526762729102129100000013100000000000000BLIL.4006604804BMFW-0000000000KEDIBONYE MZANY00000000000000000000000000000000000000000000000000000000000000000
1028226757110044676000000117928456762086704288100000013231000000000000BLIL.4004264214BMFW-0000000000LACTICIA SOFAYA00000000000000000000000000000000000000000000000000000000000000000
1028226757110044676000000118028306762734922017100000012500000000000000BLIL.4006679724BMFW-0000000000TUELO SEKEKETLA00000000000000000000000000000000000000000000000000000000000000000
1028226757110044676000000118128516762254692877100000025300000000000000BLIL.4006927066BMFW-0000000000UYAPO CHABALE  00000000000000000000000000000000000000000000000000000000000000000
1028226757110044676000000118228286762093191387100000025500000000000000BLIL.4005603486BMFW-0000000000SHADRECK MASUO 00000000000000000000000000000000000000000000000000000000000000000
1028226757110044676000000118328236762297784326100000015700000000000000BLIL.4007249131BMFW-0000000000FELICIA MALEPE 00000000000000000000000000000000000000000000000000000000000000000
1028226757110044676000000118428316762704961483100000054764000000000000BLIL.4005615627PSTA-0000000000PETER MOGWADI  00000000000000000000000000000000000000000000000000000000000000000
1028226757110044676000000118528166762401435020100000034900000000000000BLIL.4005123563BMFW-0000000000EBINENG GAEMENG00000000000000000000000000000000000000000000000000000000000000000
1028226757110044676000000118628176762222010382100000017021000000000000BLIL.0000357037BMFW-0000000000JACOB UTLWANANG00000000000000000000000000000000000000000000000000000000000000000
1028226757110044676000000118728186762219337111100000023750000000000000BLIL.4004603878URA1-0000000000PHARMA AFRICA (00000000000000000000000000000000000000000000000000000000000000000
1028226757110044676000000118828556762497324922100000030000000000000000BLIL.4006578734MFRA-0000000000MODIRI BOITSHWA00000000000000000000000000000000000000000000000000000000000000000
1028226757110044676000000118928246762661235286100000017050000000000000BLIL.4005370174BMFW-0000000000EMMANUEL PHUTI 00000000000000000000000000000000000000000000000000000000000000000
1028226757110044676000000119028456762178803740100000020423000000000000BLIL.4001591704BMFW-0000000000SEFERETLHANE LE00000000000000000000000000000000000000000000000000000000000000000
1028226757110044676000000119128166762527426193100000011461000000000000BLIL.4003447288BMFW-0000000000MASEGO MMATHINA00000000000000000000000000000000000000000000000000000000000000000
1028226757110044676000000119228236762323207010100000022796000000000000BLIL.0000088028BMFW-0000000000OLERATO R TLHAB00000000000000000000000000000000000000000000000000000000000000000
1028226757110044676000000119328196762197832457100000032525000000000000BLIL.4004121547BMFW-0000000000KAGISO TOKO    00000000000000000000000000000000000000000000000000000000000000000
1028226757110044676000000119428286762150575101100000022500000000000000BLIL.4006786674MFDS-0000000000LEBOGANG SELELO00000000000000000000000000000000000000000000000000000000000000000
1028226757110044676000000119528146762620534637100000009500000000000000BLIL.4005481735BMFW-0000000000SEITISO DINAO  00000000000000000000000000000000000000000000000000000000000000000
1028226757110044676000000119628526762505710394100000026900000000000000BLIL.4005668264BMFW-0000000000BOGADI B MATAKE00000000000000000000000000000000000000000000000000000000000000000
1028226757110044676000000119728506762776895553100000010500000000000000BLIL.4002694134URA1-0000000000LESEDI MAZEBEDI00000000000000000000000000000000000000000000000000000000000000000
1028226757110044676000000119828456762364044637100000039235000000000000BLIL.4000863551BMFW-0000000000GOFAONE MOTSWAG00000000000000000000000000000000000000000000000000000000000000000
1028226757110044676000000119928286762133795370100000066550000000000000BLIL.4001560296ULM3-0000000000KERILENG CHALAS00000000000000000000000000000000000000000000000000000000000000000
1028226757110044676000000120028286762235868984100000029702000000000000BLIL.4002146741BMKS-0000000000PETER AJIT WILL00000000000000000000000000000000000000000000000000000000000000000
1028226757110044676000000120128236762110268019100000009345000000000000BLIL.4005780450BMFW-0000000000ONTSHETSE LOETO00000000000000000000000000000000000000000000000000000000000000000
1028226757110044676000000120228286762188433537100000028100000000000000BLIL.4006891386BMFW-0000000000MATLHOGONOLO KA00000000000000000000000000000000000000000000000000000000000000000
1028226757110044676000000120328236762073616909100000032500000000000000BLIL.4006772295MFDS-0000000000KENEWANG KEHELE00000000000000000000000000000000000000000000000000000000000000000
1028226757110044676000000120428286762235855171100000021390000000000000BLIL.4004790154BMFW-0000000000PERCY SELOILWE 00000000000000000000000000000000000000000000000000000000000000000
1028226757110044676000000120528146762426475001100000050000000000000000BLIL.4006641874MFDS-0000000000BOKAMOSO TSHIAM00000000000000000000000000000000000000000000000000000000000000000
1028226757110044676000000120628286762194831395100000071448000000000000BLIL.4006959156PSWL-0000000000BOTHO LEKOKO   00000000000000000000000000000000000000000000000000000000000000000
1028226757110044676000000120728286762126374769100000029282000000000000BLIL.4002341038ULP1-0000000000ROBERT KGABENG 00000000000000000000000000000000000000000000000000000000000000000
1028226757110044676000000120828506762359076877100000022400000000000000BLIL.4006587359BMFW-0000000000ORAPELENG TSHEB00000000000000000000000000000000000000000000000000000000000000000
1028226757110044676000000120928146757110076471100000017104000000000000BLIL.4000400256BMFW-0000000000KESEGOFETSE BON00000000000000000000000000000000000000000000000000000000000000000
1028226757110044676000000121028236762232038225100000013900000000000000BLIL.4006776126BMFW-0000000000KARISANENE MUND00000000000000000000000000000000000000000000000000000000000000000
1028226757110044676000000121128186762004812071100000029948000000000000BLIL.4003225391BMFW-0000000000BOWELL MAFIKA  00000000000000000000000000000000000000000000000000000000000000000
1028226757110044676000000121228286762035095456100000033550000000000000BLIL.4005588983ULP1-0000000000THAPELO KESIILW00000000000000000000000000000000000000000000000000000000000000000
1028226757110044676000000121328286762326029908100000048967000000000000BLIL.4005754578PSTA-0000000000MAEMO P MASEGE 00000000000000000000000000000000000000000000000000000000000000000
1028226757110044676000000121428306762410118683100000028114000000000000BLIL.4004034716ULM3-0000000000ONALENNA ISAAC 00000000000000000000000000000000000000000000000000000000000000000
1028226757110044676000000121528146762297417638100000056500000000000000BLIL.04004742266LORE0000000000MARIETTA KEDIRI00000000000000000000000000000000000000000000000000000000000000000
1028226757110044676000000121628526762267602574100000012678000000000000BLIL.4004765113BMFW-0000000000MOAKOFI BOIKI J00000000000000000000000000000000000000000000000000000000000000000
1028226757110044676000000121728126762346815741100000028300000000000000BLIL.4007171384BMFW-0000000000SELEBALENG MOSA00000000000000000000000000000000000000000000000000000000000000000
1028226757110044676000000121828316762321686323100000032500000000000000BLIL.4007210201MFDS-0000000000NDIWA BEAUTY TE00000000000000000000000000000000000000000000000000000000000000000
1028226757110044676000000121928516762741166301100000100000000000000000BLIL.4006861581MFDS-0000000000ORATILE THANDI 00000000000000000000000000000000000000000000000000000000000000000
1028226757110044676000000122028286762088410221100000031992000000000000BLIL.4004177352BMKS-0000000000OUNAME JENNIFER00000000000000000000000000000000000000000000000000000000000000000
1028226757110044676000000122128196762112084421100000147143000000000000BLIL.4002269967ULP1-0000000000MATSHEPO RAPULA00000000000000000000000000000000000000000000000000000000000000000
1028226757110044676000000122228306762304203334100000011062000000000000BLIL.4002824501BMFW-0000000000ONALENNA MALAPE00000000000000000000000000000000000000000000000000000000000000000
1028226757110044676000000122328286762647187716100000033000000000000000BLIL.4005776835BMFW-0000000000NEONYANA BAIKAN00000000000000000000000000000000000000000000000000000000000000000
1028226757110044676000000122428146762194787936100000123589000000000000BLIL.4002047892BMFW-0000000000JOY OKEDI KARAB00000000000000000000000000000000000000000000000000000000000000000
1028226757110044676000000122528456762205283956100000048737000000000000BLIL.4003041048BMFW-0000000000SAMUEL DOCTOR M00000000000000000000000000000000000000000000000000000000000000000
1028226757110044676000000122628236762695135147100000051014000000000000BLIL.4005755655PSTA-0000000000KABELO BAKGETHI00000000000000000000000000000000000000000000000000000000000000000
1028226757110044676000000122728236762079637917100000026397000000000000BLIL.0000787767BMFW-0000000000UNAMI BAWILILI 00000000000000000000000000000000000000000000000000000000000000000
1028226757110044676000000122828306762067585269100000015655000000000000BLIL.4004665713BMFW-0000000000KAGISO CHAKALIS00000000000000000000000000000000000000000000000000000000000000000
1028226757110044676000000122928146762684679669100000020500000000000000BLIL.4006246915ULM5-0000000000DIPHETOGO BODI 00000000000000000000000000000000000000000000000000000000000000000
1028226757110044676000000123028186762351725729100000023731000000000000BLIL.4003950849ULM5-0000000000OAITSE KETSHOGI00000000000000000000000000000000000000000000000000000000000000000
1028226757110044676000000123128236762653040560100000025500000000000000BLIL.4007158047MFDS-0000000000KEDIDIMETSE GOI00000000000000000000000000000000000000000000000000000000000000000
1028226757110044676000000123228556762595228688100000033550000000000000BLIL.4005748919URA1-0000000000MODISAOTSILE RA00000000000000000000000000000000000000000000000000000000000000000
1028226757110044676000000123328286762279831567100000041275000000000000BLIL.4004447359BMKS-0000000000GOEMEONE PHETO 00000000000000000000000000000000000000000000000000000000000000000
1028226757110044676000000123428286762234684919100000024300000000000000BLIL.4005244096BMFW-0000000000WEDU PORTIA K O00000000000000000000000000000000000000000000000000000000000000000
1028226757110044676000000123528166762215063588100000032544000000000000BLIL.4000416247BMFW-0000000000GABAAKANYE MADI00000000000000000000000000000000000000000000000000000000000000000
1028226757110044676000000123628236762303689808100000023300000000000000BLIL.4006672188BMFW-0000000000SENSE MICHAEL  00000000000000000000000000000000000000000000000000000000000000000
1028226757110044676000000123728456762476669761100000012850000000000000BLIL.4003163307BMFW-0000000000BASETSANA NATAS00000000000000000000000000000000000000000000000000000000000000000
1028226757110044676000000123828146762289882518100000032700000000000000BLIL.04004151067LORE0000000000TEBOGO MOKWENA 00000000000000000000000000000000000000000000000000000000000000000
1028226757110044676000000123928126762270963971100000015987000000000000BLIL.4004469056BMFW-0000000000BABIKI BAOKETSI00000000000000000000000000000000000000000000000000000000000000000
1028226757110044676000000124028606762615973048100000014500000000000000BLIL.4006426028BMFW-0000000000KABO RADIMPE   00000000000000000000000000000000000000000000000000000000000000000
1028226757110044676000000124128146762413083198100000023731000000000000BLIL.4003853447ULM5-0000000000WABONE PRISCILL00000000000000000000000000000000000000000000000000000000000000000
1028226757110044676000000124228236762159625907100000026300000000000000BLIL.4005725494BMFW-0000000000GALEBOTSE MAREJ00000000000000000000000000000000000000000000000000000000000000000
1028226757110044676000000124328126762274381765100000022572000000000000BLIL.4002070297BMFW-0000000000MMELEGI MOSWEDI00000000000000000000000000000000000000000000000000000000000000000
1028226757110044676000000124428506762518380142100000014900000000000000BLIL.4005544432BMFW-0000000000COMFORT MAFELA 00000000000000000000000000000000000000000000000000000000000000000
1028226757110044676000000124528186762195152542100000028050000000000000BLIL.4005876502ULP1-0000000000OTHUSITSE W. MO00000000000000000000000000000000000000000000000000000000000000000
1028226757110044676000000124628126762603237018100000010500000000000000BLIL.4007255075BMFW-0000000000OSEGOFETSE MMON00000000000000000000000000000000000000000000000000000000000000000
1028226757110044676000000124728286762086955451100000020000000000000000BLIL.0000603115ULM5-0000000000OOKEDITSE KHACH00000000000000000000000000000000000000000000000000000000000000000
1028226757110044676000000124828506762172347231100000025227000000000000BLIL.4003186076BMFW-0000000000KEAMOGETSE RAMA00000000000000000000000000000000000000000000000000000000000000000
1028226757110044676000000124928306762690218881100000038900000000000000BLIL.4006674562BMFW-0000000000NICHOLAS CALIST00000000000000000000000000000000000000000000000000000000000000000
1028226757110044676000000125028186762574387158100000014663000000000000BLIL.4004121961BMFW-0000000000JOROMIA AARON  00000000000000000000000000000000000000000000000000000000000000000
1028226757110044676000000125128236762712116947100000023700000000000000BLIL.4007172267BMFW-0000000000IPONENG MOSIAPI00000000000000000000000000000000000000000000000000000000000000000
1028226757110044676000000125228146762164854153100000016653000000000000BLIL.4001423216BMFW-0000000000PATRICIA O MANG00000000000000000000000000000000000000000000000000000000000000000
1028226757110044676000000125328566762279618460100000042500000000000000BLIL.4006695394MFRA-0000000000THULAGANYO MONE00000000000000000000000000000000000000000000000000000000000000000
1028226757110044676000000125428286762479801063100000027500000000000000BLIL.4006776029MFDS-0000000000GAKEOLEBALE MOT00000000000000000000000000000000000000000000000000000000000000000
1028226757110044676000000125528286762153409828100000061105000000000000BLIL.4004891283ULM3-0000000000BOTHO NKAWANA  00000000000000000000000000000000000000000000000000000000000000000
1028226757110044676000000125628506762290641226100000016500000000000000BLIL.4006391687BMFW-0000000000TSHEPHO MOSELEK00000000000000000000000000000000000000000000000000000000000000000
1028226757110044676000000125728316762269737931100000024918000000000000BLIL.4001335594ULM3-0000000000NORMAN KEBAFENT00000000000000000000000000000000000000000000000000000000000000000
1028226757110044676000000125828166757130060355100000022700000000000000BLIL.4005817283BMFW-0000000000JAN MOITIREDI C00000000000000000000000000000000000000000000000000000000000000000
1028226757110044676000000125928556762358971937100000028709000000000000BLIL.0000793952BMFW-0000000000TIRELO OTHUSITS00000000000000000000000000000000000000000000000000000000000000000
1028226757110044676000000126028146762187110673100000050000000000000000BLIL.4006760541MFDS-0000000000KAMOGELO RAMOTL00000000000000000000000000000000000000000000000000000000000000000
1028226757110044676000000126128236762407586273100000017300000000000000BLIL.4006842581BMFW-0000000000KESEGO LOSO    00000000000000000000000000000000000000000000000000000000000000000
1028226757110044676000000126228286762368328334100000021525000000000000BLIL.4005605640URA1-0000000000NAKOENTLE FAITH00000000000000000000000000000000000000000000000000000000000000000
1028226757110044676000000126328526762172315238100000068295000000000000BLIL.4005260616PSTA-0000000000NALEDI NANCY MA00000000000000000000000000000000000000000000000000000000000000000
1028226757110044676000000126428126762399339003100000035482000000000000BLIL.4000672538BMFW-0000000000KABELO MPETANG 00000000000000000000000000000000000000000000000000000000000000000
1028226757110044676000000126528286762060321678100000067051000000000000BLIL.4004717102PSTA-0000000000ONKEMETSE SAMSO00000000000000000000000000000000000000000000000000000000000000000
1028226757110044676000000126628286762234689315100000023560000000000000BLIL.4004237734BMKS-0000000000TALITA LUDO KEO00000000000000000000000000000000000000000000000000000000000000000
1028226757110044676000000126728456762557516980100000026775000000000000BLIL.4005325674ULP1-0000000000ANDREW SEKALESE00000000000000000000000000000000000000000000000000000000000000000
1028226757110044676000000126828456762537648844100000053025000000000000BLIL.4005671744ULM5-0000000000PEARL IRENE TEB00000000000000000000000000000000000000000000000000000000000000000
1028226757110044676000000126928126762120015327100000023184000000000000BLIL.0000369846BMFW-0000000000THAMSANQA LESEG00000000000000000000000000000000000000000000000000000000000000000
1028226757110044676000000127028316762121427290100000027834000000000000BLIL.4006013964PSTA-0000000000ONE GAME MOGOTS00000000000000000000000000000000000000000000000000000000000000000
1028226757110044676000000127128826762739959560100000086961000000000000BLIL.4005657388PSTA-0000000000DIMAKATSO PAUL 00000000000000000000000000000000000000000000000000000000000000000
1028226757110044676000000127228456762364019812100000010500000000000000BLIL.4002880149URA1-0000000000DAVID MADISA   00000000000000000000000000000000000000000000000000000000000000000
1028226757110044676000000127328456762180693098100000035307000000000000BLIL.4002745250URA1-0000000000*DOLLAR MAID CL00000000000000000000000000000000000000000000000000000000000000000
1028226757110044676000000127428826762407527475100000030015000000000000BLIL.4001372035ULP1-0000000000SEFENNGWENG MON00000000000000000000000000000000000000000000000000000000000000000
1028226757110044676000000127528146762093675266100000032704000000000000BLIL.4005455659PSTA-0000000000LORATO MODISE  00000000000000000000000000000000000000000000000000000000000000000
1028226757110044676000000127628526762707850469100000020300000000000000BLIL.4007158186BMFW-0000000000TUDUETSO LOUREN00000000000000000000000000000000000000000000000000000000000000000
1028226757110044676000000127728556762526158672100000036314000000000000BLIL.4005496233PSTA-0000000000ALFRED BEST MOC00000000000000000000000000000000000000000000000000000000000000000
1028226757110044676000000127828146762323461054100000023500000000000000BLIL.4006167698BMFW-0000000000THATAYAONE SEBI00000000000000000000000000000000000000000000000000000000000000000
1028226757110044676000000127928826762556510868100000015950000000000000BLIL.4005270677BMFW-0000000000GOSEGO THIPE   00000000000000000000000000000000000000000000000000000000000000000
1028226757110044676000000128028126762059154890100000020500000000000000BLIL.4005375386ULP1-0000000000MARTHA KEFILWE 00000000000000000000000000000000000000000000000000000000000000000
1028226757110044676000000128128546762691347796100000110250000000000000BLIL.4002251827ULM3-0000000000ONTLAMETSE SEBO00000000000000000000000000000000000000000000000000000000000000000
1028226757110044676000000128228236762723520971100000041513000000000000BLIL.4006304434MFDS-0000000000RODZANE JANET M00000000000000000000000000000000000000000000000000000000000000000
1028226757110044676000000128328546762490605056100000057500000000000000BLIL.04002650243LORE0000000000BOIKANYO KGOSI 00000000000000000000000000000000000000000000000000000000000000000
1028226757110044676000000128428506762182565899100000022601000000000000BLIL.4004167278ULM5-0000000000MPHO MAKGWATHAN00000000000000000000000000000000000000000000000000000000000000000
1028226757110044676000000128528286762234683490100000020507000000000000BLIL.4004207662BMFW-0000000000ONE CAIN TANYAL00000000000000000000000000000000000000000000000000000000000000000
1028226757110044676000000128628526762546856462100000022601000000000000BLIL.4004347404ULM5-0000000000AGGREY KAELO MO00000000000000000000000000000000000000000000000000000000000000000
1028226757110044676000000128728286762086930809100000035000000000000000BLIL.04005021218LORE0000000000MPHO BASEBI    00000000000000000000000000000000000000000000000000000000000000000
1028226757110044676000000128828556762246993291100000041226000000000000BLIL.4000961226BMFW-0000000000FUTURE KETLOGET00000000000000000000000000000000000000000000000000000000000000000
1028226757110044676000000128928526762253847689100000032191000000000000BLIL.4006745121PSTA-0000000000TRACY MALEBOGO 00000000000000000000000000000000000000000000000000000000000000000
1028226757110044676000000129028236762328594785100000029650000000000000BLIL.4003660846BMFW-0000000000KGOMOTSO MOTSHW00000000000000000000000000000000000000000000000000000000000000000
1028226757110044676000000129128836762778206360100000030100000000000000BLIL.4007309678BMFW-0000000000BOITUMELO KGANG00000000000000000000000000000000000000000000000000000000000000000
1028226757110044676000000129228306762086471887100000022100000000000000BLIL.4006745024BMFW-0000000000KEORAPETSE KEOA00000000000000000000000000000000000000000000000000000000000000000
1028226757110044676000000129328146762478221238100000036905000000000000BLIL.4004044159ULM3-0000000000MODIBEDI KENANA00000000000000000000000000000000000000000000000000000000000000000
1028226757110044676000000129428306762285324829100000030000000000000000BLIL.4006678281BMFW-0000000000KEEMENAO SARAH 00000000000000000000000000000000000000000000000000000000000000000
1028226757110044676000000129528506762602385313100000025000000000000000BLIL.4006921329MFDS-0000000000MATSETSELEKO BE00000000000000000000000000000000000000000000000000000000000000000
1028226757110044676000000129628186762209068479100000054450000000000000BLIL.4003975968ULM5-0000000000MOGOMOTSI SEKAO00000000000000000000000000000000000000000000000000000000000000000
1028226757110044676000000129728146762450592251100000019086000000000000BLIL.4001825525BMFW-0000000000AKANYANG KOOTSH00000000000000000000000000000000000000000000000000000000000000000
1028226757110044676000000129828286762189469440100000037504000000000000BLIL.4005010112PSTA-0000000000KELLY NTSHEKANG00000000000000000000000000000000000000000000000000000000000000000
1028226757110044676000000129928286762234690718100000016800000000000000BLIL.4005250710BMFW-0000000000MOGOGI VINCENT 00000000000000000000000000000000000000000000000000000000000000000
1028226757110044676000000130028146762732006764100000057060000000000000BLIL.4006145315PSTA-0000000000KENEILWE NTSHWE00000000000000000000000000000000000000000000000000000000000000000
1028226757110044676000000130128286762086972968100000052500000000000000BLIL.4005832603ULP1-0000000000KENEILWE MATENJ00000000000000000000000000000000000000000000000000000000000000000
1028226757110044676000000130228456762598918492100000016000000000000000BLIL.4006006252BMFW-0000000000NAMETSO KEETILE00000000000000000000000000000000000000000000000000000000000000000
1028226757110044676000000130328236762702374894100000018900000000000000BLIL.4007270495BMFW-0000000000UNANGONI MBICHA00000000000000000000000000000000000000000000000000000000000000000
1028226757110044676000000130428146762060232437100000060347000000000000BLIL.4006634764PSTA-0000000000KAMOGELO CUTHBE00000000000000000000000000000000000000000000000000000000000000000
1028226757110044676000000130528236762660772536100000034300000000000000BLIL.4006905343BMFW-0000000000SIMON NDJOZE   00000000000000000000000000000000000000000000000000000000000000000
1028226757110044676000000130628236762450510675100000023500000000000000BLIL.4006679041BMFW-0000000000BANANIA BAITSE 00000000000000000000000000000000000000000000000000000000000000000
1028226757110044676000000130728286762423316943100000030100000000000000BLIL.4006000133BMFW-0000000000GLADYS MOKOKWE 00000000000000000000000000000000000000000000000000000000000000000
1028226757110044676000000130828306762123249783100000042500000000000000BLIL.4006631203MFRA-0000000000TUMELO EDGAR FA00000000000000000000000000000000000000000000000000000000000000000
1028226757110044676000000130928456757150083064100000021525000000000000BLIL.4005936413URA1-0000000000MASEGO PHOLE   00000000000000000000000000000000000000000000000000000000000000000
1028226757110044676000000131028316762116898472100000034270000000000000BLIL.4007212465PSTA-0000000000MOSES BHUSHIEY 00000000000000000000000000000000000000000000000000000000000000000
1028226757110044676000000131128546762303187232100000061105000000000000BLIL.4004077279ULP1-0000000000FRANCISCAH SERA00000000000000000000000000000000000000000000000000000000000000000
1028226757110044676000000131228306762245989598100000018100000000000000BLIL.4006678207BMFW-0000000000MPOTSHI MOALOSI00000000000000000000000000000000000000000000000000000000000000000
1028226757110044676000000131328146762577846151100000077001000000000000BLIL.4006986042PSWL-0000000000OBAKENG BOITUME00000000000000000000000000000000000000000000000000000000000000000
1028226757110044676000000131428236762351195518100000032500000000000000BLIL.4007199809MFDS-0000000000KEASALETSE RADI00000000000000000000000000000000000000000000000000000000000000000
1028226757110044676000000131528516762156848916100000030500000000000000BLIL.4002709854URA1-0000000000MASENE TIDIMALO00000000000000000000000000000000000000000000000000000000000000000
1028226757110044676000000131628186762210897289100000032500000000000000BLIL.4006840521MFDS-0000000000MOLATEDI KESIIL00000000000000000000000000000000000000000000000000000000000000000
1028226757110044676000000131728516762205867461100000032803000000000000BLIL.4000849323BMFW-0000000000ISHMAEL KOPANE 00000000000000000000000000000000000000000000000000000000000000000
1028226757110044676000000131828316762033359218100000023731000000000000BLIL.4003109478ULM5-0000000000MASEGO WADIKGOM00000000000000000000000000000000000000000000000000000000000000000
1028226757110044676000000131928286762313732259100000037913000000000000BLIL.4006430245PSTA-0000000000TUMELO RANNAU  00000000000000000000000000000000000000000000000000000000000000000
1028226757110044676000000132028526762149751514100000015374000000000000BLIL.4001468307ULM5-0000000000KANANA. GABORUT00000000000000000000000000000000000000000000000000000000000000000
1028226757110044676000000132128146762432512722100000065849000000000000BLIL.4005404551PSTA-0000000000CHIDZANI LUCRET00000000000000000000000000000000000000000000000000000000000000000
1028226757110044676000000132228186762406693764100000029752000000000000BLIL.4002673556BMFW-0000000000CHANDAPIWA CHAK00000000000000000000000000000000000000000000000000000000000000000
1028226757110044676000000132328236762387227971100000022550000000000000BLIL.4005824563ULP1-0000000000MPHO KWETSE    00000000000000000000000000000000000000000000000000000000000000000
1028226757110044676000000132428306762127693051100000021525000000000000BLIL.4005785230URA1-0000000000BABEDI DIRATSAG00000000000000000000000000000000000000000000000000000000000000000
1028226757110044676000000132528456762086778431100000009840000000000000BLIL.4002860444BMFW-0000000000BRIAN KEDISITSE00000000000000000000000000000000000000000000000000000000000000000
1028226757110044676000000132628316762674763430100000021900000000000000BLIL.4007274376BMFW-0000000000OMPHILE MOMPA  00000000000000000000000000000000000000000000000000000000000000000
1028226757110044676000000132728316762732336103100000100000000000000000BLIL.4006368127MFRA-0000000000MPHO THABANG RA00000000000000000000000000000000000000000000000000000000000000000
1028226757110044676000000132828506762112646528100000031024000000000000BLIL.4003377138BMFW-0000000000KEITUMETSE BOSE00000000000000000000000000000000000000000000000000000000000000000
1028226757110044676000000132928246762768564752100000020500000000000000BLIL.4007117536MFDS-0000000000KEALOTSWE KOOIT00000000000000000000000000000000000000000000000000000000000000000
1028226757110044676000000133028566762551221907100000036800000000000000BLIL.4006801525BMFW-0000000000KENTSENAO SEWAW00000000000000000000000000000000000000000000000000000000000000000
1028226757110044676000000133128556762278778398100000024081000000000000BLIL.4002959578BMFW-0000000000BOITEKO MANYIMA00000000000000000000000000000000000000000000000000000000000000000
1028226757110044676000000133228146757110076471100000026164000000000000BLIL.4000393089ULP1-0000000000KESEGOFETSE BON00000000000000000000000000000000000000000000000000000000000000000
1028226757110044676000000133328146762297417638100000061105000000000000BLIL.4004745963ULM5-0000000000MARIETTA KEDIRI00000000000000000000000000000000000000000000000000000000000000000
1028226757110044676000000133428146762108674658100000026349000000000000BLIL.4004025418BMFW-0000000000THUSANG RAKGATI00000000000000000000000000000000000000000000000000000000000000000
1028226757110044676000000133528286762372238769100000033669000000000000BLIL.4005588048PSTA-0000000000KEBAABETSWE A K00000000000000000000000000000000000000000000000000000000000000000
1028226757110044676000000133628186762144449635100000060000000000000000BLIL.4001584563ULMG-0000000000GLENN MATSON NE00000000000000000000000000000000000000000000000000000000000000000
1028226757110044676000000133728146762505941733100000038735000000000000BLIL.4006687937PSTA-0000000000GIBSON KGOSIEMA00000000000000000000000000000000000000000000000000000000000000000
1028226757110044676000000133828286762086947226100000042500000000000000BLIL.4006293077MFDS-0000000000LARONA KAISARA 00000000000000000000000000000000000000000000000000000000000000000
1028226757110044676000000133928376762328349487100000024100000000000000BLIL.4006927367BMFW-0000000000KELEBOGILE MAKI00000000000000000000000000000000000000000000000000000000000000000
1028226757110044676000000134028286762525605509100000014100000000000000BLIL.04004815039MPFP0000000000RICHARD MARTIN 00000000000000000000000000000000000000000000000000000000000000000
1028226757110044676000000134128456762612288747100000015750000000000000BLIL.4005695346BMFW-0000000000SELELO OLEFILE 00000000000000000000000000000000000000000000000000000000000000000
1028226757110044676000000134228286762192753012100000024500000000000000BLIL.4005448052BMFW-0000000000MALEBOGO MAJAUL00000000000000000000000000000000000000000000000000000000000000000
1028226757110044676000000134328286762234528646100000032500000000000000BLIL.4006851407MFDS-0000000000ABEL KOOAGILE K00000000000000000000000000000000000000000000000000000000000000000
1028226757110044676000000134428286762373580359100000042500000000000000BLIL.4006854609MFDS-0000000000ABRAM NTSHIPING00000000000000000000000000000000000000000000000000000000000000000
1028226757110044676000000134528286762113791132100000039000000000000000BLIL.4002701898ULM5-0000000000KEORILENG MORAP00000000000000000000000000000000000000000000000000000000000000000
1028226757110044676000000134628456762127173524100000032500000000000000BLIL.4006369903MFDS-0000000000NLAMBIWA LUDO B00000000000000000000000000000000000000000000000000000000000000000
1028226757110044676000000134728526762480398223100000037275000000000000BLIL.4005126812URA1-0000000000THATO DEBBIE S 00000000000000000000000000000000000000000000000000000000000000000
1028226757110044676000000134828186762114040851100000017400000000000000BLIL.4005491013BMFW-0000000000KHOLISANI MICHA00000000000000000000000000000000000000000000000000000000000000000
1028226757110044676000000134928166762334103166100000023270000000000000BLIL.4002764226BMFW-0000000000MORARO NKITSENG00000000000000000000000000000000000000000000000000000000000000000
1028226757110044676000000135028186762210897289100000013083000000000000BLIL.4003852603BMFW-0000000000MOLATEDI KESIIL00000000000000000000000000000000000000000000000000000000000000000
1028226757110044676000000135128286762276564666100000084700000000000000BLIL.4004545820ULMG-0000000000SALOME GAOLEKWE00000000000000000000000000000000000000000000000000000000000000000
1028226757110044676000000135228126762308253450100000023900000000000000BLIL.4005646266BMFW-0000000000ANGISO MBHAKHWA00000000000000000000000000000000000000000000000000000000000000000
1028226757110044676000000135328186762027025908100000012155000000000000BLIL.4003368092URA1-0000000000MOTHIBI JONG   00000000000000000000000000000000000000000000000000000000000000000
1028226757110044676000000135428166762315487696100000027592000000000000BLIL.4002397089BMFW-0000000000TUMELO RELAENG 00000000000000000000000000000000000000000000000000000000000000000
1028226757110044676000000135528166762158592305100000027105000000000000BLIL.4002535295BMFW-0000000000GOITSEONE DIMPH00000000000000000000000000000000000000000000000000000000000000000
1028226757110044676000000135628526762290149163100000047223000000000000BLIL.4000444668BMFW-0000000000GOFAONE LADY KG00000000000000000000000000000000000000000000000000000000000000000
1028226757110044676000000135728316762553114910100000022601000000000000BLIL.4004545901ULM5-0000000000PHENYO JOSEPH M00000000000000000000000000000000000000000000000000000000000000000
1028226757110044676000000135828456762603426728100000075700000000000000BLIL.4007031364BMFW-0000000000SHIRLEY MOKGOAR00000000000000000000000000000000000000000000000000000000000000000
1028226757110044676000000135928556762309461755100000018900000000000000BLIL.4006049838BMFW-0000000000BOTSHABELO MONN00000000000000000000000000000000000000000000000000000000000000000
1028226757110044676000000136028186762024863997100000055000000000000000BLIL.4005259895ULP1-0000000000WASHINGTON TSHO00000000000000000000000000000000000000000000000000000000000000000
1028226757110044676000000136128236762651766697100000050500000000000000BLIL.4006161498ULP1-0000000000HABANO MOKOPI  00000000000000000000000000000000000000000000000000000000000000000
1028226757110044676000000136228286762279723144100000027300000000000000BLIL.4006731920BMFW-0000000000BRIGHT CHAKABIP00000000000000000000000000000000000000000000000000000000000000000
1028226757110044676000000136328286762113451752100000161857000000000000BLIL.4000526307ULMG-0000000000OINTSHWARETSE F00000000000000000000000000000000000000000000000000000000000000000
1028226757110044676000000136428126762168167940100000021300000000000000BLIL.4006997839BMFW-0000000000GOITSEONE SENON00000000000000000000000000000000000000000000000000000000000000000
1028226757110044676000000136528546762563486226100000150500000000000000BLIL.4003890417URA1-0000000000MPHO MPHENGULA 00000000000000000000000000000000000000000000000000000000000000000
1028226757110044676000000136628456762707082517100000014600000000000000BLIL.4006585072BMFW-0000000000MOYAGABO SERUMO00000000000000000000000000000000000000000000000000000000000000000
1028226757110044676000000136728826762373206963100000028115000000000000BLIL.4004508363BMFW-0000000000GOABAMANG TAMIS00000000000000000000000000000000000000000000000000000000000000000
1028226757110044676000000136828286762194829001100000030855000000000000BLIL.4004631558ULM3-0000000000PRINCE MOTSHWAR00000000000000000000000000000000000000000000000000000000000000000
1028226757110044676000000136928126762225108499100000019239000000000000BLIL.4001716788BMFW-0000000000ONKEMETSE RATLO00000000000000000000000000000000000000000000000000000000000000000
1028226757110044676000000137028126762609572765100000022163000000000000BLIL.4004466155BMFW-0000000000BOIKHUTSO MORAP00000000000000000000000000000000000000000000000000000000000000000
1028226757110044676000000137128286762377442224100000023042000000000000BLIL.4004814334BMFW-0000000000ONALENNA MANGAD00000000000000000000000000000000000000000000000000000000000000000
1028226757110044676000000137228306762573326925100000019000000000000000BLIL.4006735584BMFW-0000000000GOITSEONE KOSI 00000000000000000000000000000000000000000000000000000000000000000
1028226757110044676000000137328246762769440414100000022500000000000000BLIL.4007301670MFRA-0000000000OLEBOGENG MOLEF00000000000000000000000000000000000000000000000000000000000000000
1028226757110044676000000137428126762429081475100000016498000000000000BLIL.4002292011BMFW-0000000000ASALEPELE S'THA00000000000000000000000000000000000000000000000000000000000000000
1028226757110044676000000137528146762019319765100000041269000000000000BLIL.4005086143PSTA-0000000000MAUNGO SEANAPO 00000000000000000000000000000000000000000000000000000000000000000
1028226757110044676000000137628286762189469333100000050500000000000000BLIL.4002866547URA1-0000000000MAIPELO MAHALEL00000000000000000000000000000000000000000000000000000000000000000
1028226757110044676000000137728236762655956301100000022500000000000000BLIL.4006774077MFDS-0000000000ASHLEY CHAUNE  00000000000000000000000000000000000000000000000000000000000000000
1028226757110044676000000137828146762287603198100000014700000000000000BLIL.4005418419BMFW-0000000000JANKA LETSHWENY00000000000000000000000000000000000000000000000000000000000000000
1028226757110044676000000137928186762361733382100000100491000000000000BLIL.4002932740ULM3-0000000000ELLEN TAWANA   00000000000000000000000000000000000000000000000000000000000000000
1028226757110044676000000138028456762347565105100000023094000000000000BLIL.4001789567BMFW-0000000000MASOLE PELOKGOS00000000000000000000000000000000000000000000000000000000000000000
1028226757110044676000000138128506762492518265100000025047000000000000BLIL.4002485044BMFW-0000000000THAPELO MAHUPHE00000000000000000000000000000000000000000000000000000000000000000
1028226757110044676000000138228286762086960723100000022574000000000000BLIL.4003052380BMFW-0000000000TAPOLOGO LILIAN00000000000000000000000000000000000000000000000000000000000000000
1028226757110044676000000138328286762183492851100000013769000000000000BLIL.0000021769BMFW-0000000000OGOMODITSE BARE00000000000000000000000000000000000000000000000000000000000000000
1028226757110044676000000138428186762334437599100000013700000000000000BLIL.4006811340BMFW-0000000000DIKHUNELO GASEI00000000000000000000000000000000000000000000000000000000000000000
1028226757110044676000000138528166762310755238100000026145000000000000BLIL.4005641787BMFW-0000000000ODIRELENG MOLEF00000000000000000000000000000000000000000000000000000000000000000
1028226757110044676000000138628526762647289827100000022550000000000000BLIL.4005725779ULP1-0000000000STEWART MACDONA00000000000000000000000000000000000000000000000000000000000000000
1028226757110044676000000138728126762390761859100000019700000000000000BLIL.4005594225BMFW-0000000000ONKAETSE LEUWE 00000000000000000000000000000000000000000000000000000000000000000
1028226757110044676000000138828566762462178445100000028100000000000000BLIL.4007109878BMFW-0000000000GLADYS MONNAWAT00000000000000000000000000000000000000000000000000000000000000000
1028226757110044676000000138928526762077318486100000032529000000000000BLIL.4003245313BMFW-0000000000KGOTLA RAPITSEN00000000000000000000000000000000000000000000000000000000000000000
1028226757110044676000000139028286762133128307100000052500000000000000BLIL.4006585535MFDS-0000000000MOTHUSI SETSWAL00000000000000000000000000000000000000000000000000000000000000000
1028226757110044676000000139128286762274626963100000020500000000000000BLIL.4001870473ULP1-0000000000SUSAN D JACOB  00000000000000000000000000000000000000000000000000000000000000000
1028226757110044676000000139228126762264976063100000043050000000000000BLIL.4005097223BMFW-0000000000KGOMOTSO KATSE 00000000000000000000000000000000000000000000000000000000000000000
1028226757110044676000000139328236762650623111100000032500000000000000BLIL.4007157025MFDS-0000000000LEOKEDITSWE MOE00000000000000000000000000000000000000000000000000000000000000000
1028226757110044676000000139428526762234628884100000018111000000000000BLIL.4001719582BMFW-0000000000BOITUMELO MOKIM00000000000000000000000000000000000000000000000000000000000000000
1028226757110044676000000139528556762460742276100000014900000000000000BLIL.4006906006BMFW-0000000000JENNIFER PETROS00000000000000000000000000000000000000000000000000000000000000000
1028226757110044676000000139628316762168956450100000020287000000000000BLIL.4004635170BMFW-0000000000TSHOLOFELO BRID00000000000000000000000000000000000000000000000000000000000000000
1028226757110044676000000139728316762269737931100000081440000000000000BLIL.4001335879BMFW-0000000000NORMAN KEBAFENT00000000000000000000000000000000000000000000000000000000000000000
1028226757110044676000000139828826762526797264100000009660000000000000BLIL.4005777336BMFW-0000000000OTSILE CHIPO   00000000000000000000000000000000000000000000000000000000000000000
1028226757110044676000000139928286762012846335100000018508000000000000BLIL.4000728484BMFW-0000000000PHILLIP BALOI  00000000000000000000000000000000000000000000000000000000000000000
1028226757110044676000000140028506762181707301100000016239000000000000BLIL.4002790580BMFW-0000000000SHEPHARD JOHN  00000000000000000000000000000000000000000000000000000000000000000
1028226757110044676000000140128186762091347304100000033600000000000000BLIL.4006920268BMFW-0000000000ONTIRETSE ISRAE00000000000000000000000000000000000000000000000000000000000000000
1028226757110044676000000140228456762081556634100000049385000000000000BLIL.4004236063BMKS-0000000000KAGO MATAMBO   00000000000000000000000000000000000000000000000000000000000000000
1028226757110044676000000140328306762605956301100000072500000000000000BLIL.4006860967BMFW-0000000000PAKO SELEKA    00000000000000000000000000000000000000000000000000000000000000000
1028226757110044676000000140428306762183400995100000051180000000000000BLIL.4000957499BMFW-0000000000SENEO GWEN MOKG00000000000000000000000000000000000000000000000000000000000000000
1028226757110044676000000140528236762343805969100000022900000000000000BLIL.4007090031BMFW-0000000000TSHWARANG MIKE 00000000000000000000000000000000000000000000000000000000000000000
1028226757110044676000000140628506762109767543100000023616000000000000BLIL.4003545686BMFW-0000000000TABOKA M MABUDI00000000000000000000000000000000000000000000000000000000000000000
1028226757110044676000000140728286762297329536100000100000000000000000BLIL.4005851938MFDS-0000000000KABOYAMODIMO MO00000000000000000000000000000000000000000000000000000000000000000
1028226757110044676000000140828236762184056664100000021525000000000000BLIL.4005696106ULP1-0000000000ONKGOPOTSE JULY00000000000000000000000000000000000000000000000000000000000000000
1028226757110044676000000140928126762277266493100000022700000000000000BLIL.4006966745BMFW-0000000000OOKEDITSE MOMPA00000000000000000000000000000000000000000000000000000000000000000
1028226757110044676000000141028526762475190931100000084699000000000000BLIL.4005174784PSTA-0000000000QUETT SYDNEY MM00000000000000000000000000000000000000000000000000000000000000000
1028226757110044676000000141128516762165036809100000026938000000000000BLIL.0000343886BMFW-0000000000BOEMO POLELO   00000000000000000000000000000000000000000000000000000000000000000
1028226757110044676000000141228506762168134783100000010143000000000000BLIL.4005079368BMFW-0000000000KAMOGELO MOENG 00000000000000000000000000000000000000000000000000000000000000000
1028226757110044676000000141328606762772360724100000022300000000000000BLIL.4007106757BMFW-0000000000XHEGU QWETE    00000000000000000000000000000000000000000000000000000000000000000
1028226757110044676000000141428506762330455082100000110550000000000000BLIL.4005695964ULMG-0000000000RACIOUS B MANOW00000000000000000000000000000000000000000000000000000000000000000
1028226757110044676000000141528286762375667585100000022550000000000000BLIL.4005371057ULM5-0000000000NEO GOTSHWANAMA00000000000000000000000000000000000000000000000000000000000000000
1028226757110044676000000141628286762188431193100000037275000000000000BLIL.4005568864URA1-0000000000GODIRAONE GREGO00000000000000000000000000000000000000000000000000000000000000000
1028226757110044676000000141728236762369598910100000022500000000000000BLIL.4006984082MFDS-0000000000THAPELO MORAPED00000000000000000000000000000000000000000000000000000000000000000
1028226757110044676000000141828166762661402322100000055550000000000000BLIL.4006039209ULP1-0000000000MORONGA SHOTE  00000000000000000000000000000000000000000000000000000000000000000
1028226757110044676000000141928516762156848916100000012034000000000000BLIL.4002709058BMFW-0000000000MASENE TIDIMALO00000000000000000000000000000000000000000000000000000000000000000
1028226757110044676000000142028526762314728885100000017449000000000000BLIL.4007107135PSTA-0000000000SETANNOSA KAISA00000000000000000000000000000000000000000000000000000000000000000
1028226757110044676000000142128556762236713253100000032700000000000000BLIL.4006829286BMFW-0000000000KELEBOGILE GABA00000000000000000000000000000000000000000000000000000000000000000
1028226757110044676000000142228286762227857713100000072600000000000000BLIL.4001671378URA1-0000000000MATTHEWS PRINCE00000000000000000000000000000000000000000000000000000000000000000
1028226757110044676000000142328456762219562338100000025653000000000000BLIL.4000919279BMFW-0000000000DIMPHO THERO RA00000000000000000000000000000000000000000000000000000000000000000
1028226757110044676000000142428286762188404570100000018523000000000000BLIL.4003200743BMFW-0000000000SEETSELE REDICH00000000000000000000000000000000000000000000000000000000000000000
1028226757110044676000000142528516762440475334100000016100000000000000BLIL.4006885549BMFW-0000000000DIPOGISO RAMAKO00000000000000000000000000000000000000000000000000000000000000000
1028226757110044676000000142628286762503822092100000039700000000000000BLIL.4006156576BMFW-0000000000BASADIBOTLHE P.00000000000000000000000000000000000000000000000000000000000000000
1028226757110044676000000142728236762232038225100000032500000000000000BLIL.4006776045MFDS-0000000000KARISANENE MUND00000000000000000000000000000000000000000000000000000000000000000
1028226757110044676000000142828286762372781205100000020500000000000000BLIL.4006112041URA1-0000000000KEDIBONYE MACHE00000000000000000000000000000000000000000000000000000000000000000
1028226757110044676000000142928286762190821316100000015900000000000000BLIL.4006395704BMFW-0000000000THAMANI FREEDOM00000000000000000000000000000000000000000000000000000000000000000
1028226757110044676000000143028286762192752478100000018375000000000000BLIL.4005475859BMFW-0000000000REFILWE SHARON 00000000000000000000000000000000000000000000000000000000000000000
1028226757110044676000000143128186762351463345100000011358000000000000BLIL.4001292411BMFW-0000000000GAONE TIMILE   00000000000000000000000000000000000000000000000000000000000000000
1028226757110044676000000143228286762380324972100000015500000000000000BLIL.04001622222LORE0000000000ENVER ALISTER L00000000000000000000000000000000000000000000000000000000000000000
1028226757110044676000000143328146762377110673100000050500000000000000BLIL.4006945654MFDS-0000000000DOLLY TLOTLO TA00000000000000000000000000000000000000000000000000000000000000000
1028226757110044676000000143428186762407376484100000024918000000000000BLIL.4002322915ULP1-0000000000ONTEBETSE OSUPI00000000000000000000000000000000000000000000000000000000000000000
1028226757110044676000000143528286762133795370100000021100000000000000BLIL.04002891562MPFP0000000000KERILENG CHALAS00000000000000000000000000000000000000000000000000000000000000000
1028226757110044676000000143628606762454764260100000034100000000000000BLIL.4007248494BMFW-0000000000KGOBUTSE GOROSH00000000000000000000000000000000000000000000000000000000000000000
1028226757110044676000000143728146762460329769100000023300000000000000BLIL.4007180543BMFW-0000000000GOITSEMODIMO MA00000000000000000000000000000000000000000000000000000000000000000
1028226757110044676000000143828186762288377578100000008309000000000000BLIL.0000494724BMFW-0000000000TSHEPISO MONAGE00000000000000000000000000000000000000000000000000000000000000000
1028226757110044676000000143928166757130083258100000173869000000000000BLIL.4004659332PSTA-0000000000MPHO KOOLESE   00000000000000000000000000000000000000000000000000000000000000000
1028226757110044676000000144028176762059374662100000019399000000000000BLIL.4000957481BMFW-0000000000ORAPELENG MOSEA00000000000000000000000000000000000000000000000000000000000000000
1028226757110044676000000144128236762063452678100000030500000000000000BLIL.4007246874MFRA-0000000000SEKONGO KATSOTS00000000000000000000000000000000000000000000000000000000000000000
1028226757110044676000000144228236762548358200100000022500000000000000BLIL.4005780175BMFW-0000000000LILLIAN THOGOTO00000000000000000000000000000000000000000000000000000000000000000
1028226757110044676000000144328286762276552744100000031500000000000000BLIL.4006212491ULP1-0000000000MPHO SHANNON SE00000000000000000000000000000000000000000000000000000000000000000
1028226757110044676000000144428186762596732547100000009100000000000000BLIL.4006572974BMFW-0000000000NCHIDZI D. MATH00000000000000000000000000000000000000000000000000000000000000000
1028226757110044676000000144528826762526151288100000030000000000000000BLIL.4006896962MFDS-0000000000DANIEL RONALD K00000000000000000000000000000000000000000000000000000000000000000
1028226757110044676000000144628286762148068308100000010700000000000000BLIL.4005794499BMFW-0000000000GOFENYAONE LOLO00000000000000000000000000000000000000000000000000000000000000000
1028226757110044676000000144728826762632127181100000049665000000000000BLIL.4005900361BMFW-0000000000KESEGOFETSE D M00000000000000000000000000000000000000000000000000000000000000000
1028226757110044676000000144828306762239448419100000025000000000000000BLIL.4006676548MFDS-0000000000ONTHUSITSE RAMA00000000000000000000000000000000000000000000000000000000000000000
1028226757110044676000000144928306762328533874100000014500000000000000BLIL.4005152621BMFW-0000000000CHOMI KEROMILWE00000000000000000000000000000000000000000000000000000000000000000
1028226757110044676000000145028306762460888046100000027400000000000000BLIL.4006713358BMFW-0000000000MATHATA KEFENTS00000000000000000000000000000000000000000000000000000000000000000
1028226757110044676000000145128286762086994897100000075346000000000000BLIL.4006527301PSWL-0000000000TSHIAMO MOTLHAB00000000000000000000000000000000000000000000000000000000000000000
1028226757110044676000000145228546762691347796100000048500000000000000BLIL.04000843351PPLC0000000000ONTLAMETSE SEBO00000000000000000000000000000000000000000000000000000000000000000
1028226757110044676000000145328526762621350884100000036676000000000000BLIL.4006526208PSTA-0000000000MAATLA MOILE   00000000000000000000000000000000000000000000000000000000000000000
1028226757110044676000000145428556762325044022100000025403000000000000BLIL.4000039049BMFW-0000000000BAITSISENG MOTL00000000000000000000000000000000000000000000000000000000000000000
1028226757110044676000000145528146762362769691100000013776000000000000BLIL.4002743355BMFW-0000000000THABANG CACILDA00000000000000000000000000000000000000000000000000000000000000000
1028226757110044676000000145628286762323390352100000024400000000000000BLIL.4005523888BMFW-0000000000OMPHEMETSE THAN00000000000000000000000000000000000000000000000000000000000000000
1028226757110044676000000145728286762372758139100000018700000000000000BLIL.4005585600BMFW-0000000000THABISO SELEKE 00000000000000000000000000000000000000000000000000000000000000000
1028226757110044676000000145828146762703822602100000041189000000000000BLIL.4006350914PSTA-0000000000MICHELLE WADZA 00000000000000000000000000000000000000000000000000000000000000000
1028226757110044676000000145928506762256603161100000025095000000000000BLIL.4006215130BMFW-0000000000LEKHA LESOLE   00000000000000000000000000000000000000000000000000000000000000000
1028226757110044676000000146028236762590180528100000010605000000000000BLIL.4006120571BMFW-0000000000OLERILE BATSHOL00000000000000000000000000000000000000000000000000000000000000000
1028226757110044676000000146128536762527572756100000041600000000000000BLIL.04004282640LORE0000000000OMPHEMETSE KGOT00000000000000000000000000000000000000000000000000000000000000000
1028226757110044676000000146228166762342900364100000022381000000000000BLIL.4004858241BMFW-0000000000THULAGANYO B BA00000000000000000000000000000000000000000000000000000000000000000
1028226757110044676000000146328506762531160951100000016100000000000000BLIL.4006317524BMFW-0000000000DANIEL KOKWAE  00000000000000000000000000000000000000000000000000000000000000000
1028226757110044676000000146428146762437402803100000019100000000000000BLIL.4006012358BMFW-0000000000ODIRELENG MASWA00000000000000000000000000000000000000000000000000000000000000000
1028226757110044676000000146528166762259041889100000032500000000000000BLIL.4006674106MFDS-0000000000MMATLALA MARGAR00000000000000000000000000000000000000000000000000000000000000000
1028226757110044676000000146628306762739349464100000025000000000000000BLIL.4006925488MFDS-0000000000OMPHILE SELEBAL00000000000000000000000000000000000000000000000000000000000000000
1028226757110044676000000146728126762667412648100000022500000000000000BLIL.4007111695MFDS-0000000000AGISANYANG SELE00000000000000000000000000000000000000000000000000000000000000000
1028226757110044676000000146828166762104226320100000015500000000000000BLIL.4002614156URA1-0000000000KENANAO MAKURUE00000000000000000000000000000000000000000000000000000000000000000
1028226757110044676000000146928556762604577736100000022500000000000000BLIL.4006806004MFDS-0000000000JEUBE XLUIIBE  00000000000000000000000000000000000000000000000000000000000000000
1028226757110044676000000147028236762307152538100000030000000000000000BLIL.4006711330MFDS-0000000000BAJAKI AMOS    00000000000000000000000000000000000000000000000000000000000000000
1028226757110044676000000147128306762495344394100000036000000000000000BLIL.4005166822BMFW-0000000000THERISANO EUNIC00000000000000000000000000000000000000000000000000000000000000000
1028226757110044676000000147228316762768037981100000022500000000000000BLIL.4007129010MFDS-0000000000BATANG SAMOGWAG00000000000000000000000000000000000000000000000000000000000000000
1028226757110044676000000147328286762435666237100000017100000000000000BLIL.4006736328BMFW-0000000000GOTLAATLA LEWIS00000000000000000000000000000000000000000000000000000000000000000
1028226757110044676000000147428236762687877616100000021945000000000000BLIL.4005780159BMFW-0000000000LEBELELANG SAOK00000000000000000000000000000000000000000000000000000000000000000
1028226757110044676000000147528286762126137448100000019514000000000000BLIL.4003917988BMFW-0000000000TSHEPISO RAMARI00000000000000000000000000000000000000000000000000000000000000000
1028226757110044676000000147628516762385712205100000021457000000000000BLIL.4004352601BMFW-0000000000MBURA NDANA    00000000000000000000000000000000000000000000000000000000000000000
1028226757110044676000000147728146762158118937100000023731000000000000BLIL.4003790677URA1-0000000000ANNAH DINEO TLH00000000000000000000000000000000000000000000000000000000000000000
1028226757110044676000000147828376762238851952100000022700000000000000BLIL.4006835366BMFW-0000000000SIMISANI NGONDO00000000000000000000000000000000000000000000000000000000000000000
1028226757110044676000000147928506762316533323100000017700000000000000BLIL.4005193603BMFW-0000000000GASEBONNO GAOTL00000000000000000000000000000000000000000000000000000000000000000
1028226757110044676000000148028456762118269324100000013300000000000000BLIL.4005357714BMFW-0000000000OGOLOTSE NKATHO00000000000000000000000000000000000000000000000000000000000000000
1028226757110044676000000148128286762415197103100000083240000000000000BLIL.4005091073BMFW-0000000000KAPINGA DIMBU  00000000000000000000000000000000000000000000000000000000000000000
1028226757110044676000000148228166762217542754100000067632000000000000BLIL.4004047319BMKS-0000000000TEBOGO KGAMANYA00000000000000000000000000000000000000000000000000000000000000000
1028226757110044676000000148328306762393808294100000026500000000000000BLIL.04001880361PPLC0000000000KERAPETSE PETER00000000000000000000000000000000000000000000000000000000000000000
1028226757110044676000000148428176762691474185100000014900000000000000BLIL.4005948808BMFW-0000000000ODIRILE SEREIWA00000000000000000000000000000000000000000000000000000000000000000
1028226757110044676000000148528186762036894998100000030100000000000000BLIL.4006610934BMFW-0000000000NLAKIDZI BEJI  00000000000000000000000000000000000000000000000000000000000000000
1028226757110044676000000148628236762327914273100000053608000000000000BLIL.0000165806BMFW-0000000000TSHEPO MUGONI  00000000000000000000000000000000000000000000000000000000000000000
1028226757110044676000000148728246762769589832100000050000000000000000BLIL.4007201767MFDS-0000000000MMOPI MOSEKI   00000000000000000000000000000000000000000000000000000000000000000
1028226757110044676000000148828236762095442902100000035142000000000000BLIL.4001799146ULP1-0000000000MOSETLHA SEBERA00000000000000000000000000000000000000000000000000000000000000000
1028226757110044676000000148928316762418392164100000022365000000000000BLIL.4005717582BMFW-0000000000SEGOMOTSO MOKOT00000000000000000000000000000000000000000000000000000000000000000
1028226757110044676000000149028456762729412362100000034100000000000000BLIL.4006884420BMFW-0000000000THATAYAONE MAKG00000000000000000000000000000000000000000000000000000000000000000
1028226757110044676000000149128286762227849421100000030500000000000000BLIL.4005179946ULM3-0000000000METLHA MANGWANE00000000000000000000000000000000000000000000000000000000000000000
1028226757110044676000000149228286762188420774100000050549000000000000BLIL.4006004446PSTA-0000000000PRUDENCE INOVEN00000000000000000000000000000000000000000000000000000000000000000
1028226757110044676000000149328286762330218993100000044022000000000000BLIL.4005259691PSTA-0000000000RONALD MOKGOSI 00000000000000000000000000000000000000000000000000000000000000000
1028226757110044676000000149428286762086928820100000050282000000000000BLIL.4006721537PSTA-0000000000BADUBI BADUBI  00000000000000000000000000000000000000000000000000000000000000000
1028226757110044676000000149528456762630577685100000028050000000000000BLIL.4005201101ULP1-0000000000TIRO CALLISTUS 00000000000000000000000000000000000000000000000000000000000000000
1028226757110044676000000149628126762475533008100000014222000000000000BLIL.4004330263BMFW-0000000000KUTLO NANCY KEG00000000000000000000000000000000000000000000000000000000000000000
1028226757110044676000000149728286762189469333100000037046000000000000BLIL.4002866987BMFW-0000000000MAIPELO MAHALEL00000000000000000000000000000000000000000000000000000000000000000
1028226757110044676000000149828526762253656262100000050500000000000000BLIL.4006946210MFDS-0000000000TIROYAONE MICHA00000000000000000000000000000000000000000000000000000000000000000
1028226757110044676000000149928286762372770109100000022270000000000000BLIL.4004579378BMFW-0000000000MOGOMOTSI NANCY00000000000000000000000000000000000000000000000000000000000000000
1028226757110044676000000150028246762769440414100000026100000000000000BLIL.4007301298BMFW-0000000000OLEBOGENG MOLEF00000000000000000000000000000000000000000000000000000000000000000
