1028226757110044676000000200228286762106027437100000016845000000000000BLIL.091291910BMFW-10000000000KESENTSENG SEKG00000000000000000000000000000000000000000000000000000000000000000
1028226757110044676000000200328126762106711345100000017990000000000000BLIL.090325484BMFW-10000000000KEFILWE CATHRIN00000000000000000000000000000000000000000000000000000000000000000
1028226757110044676000000200428186762108128431100000031880000000000000BLIL.070890130BMFW-10000000000EDWIN MPOIFANG 00000000000000000000000000000000000000000000000000000000000000000
1028226757110044676000000200528176762110153781100000012566000000000000BLIL.090112562BMFW-10000000000HILDAH MOLEOFE 00000000000000000000000000000000000000000000000000000000000000000
1028226757110044676000000200628166762114661813100000029984000000000000BLIL.090543162BMFW-10000000000TSHEGOFATSO GOB00000000000000000000000000000000000000000000000000000000000000000
1028226757110044676000000200728456762115896328100000064709000000000000BLIL.110393175BMFW-10000000000SYLVIA DITSHEBO00000000000000000000000000000000000000000000000000000000000000000
1028226757110044676000000200828456762115896328100000354312000000000000BLIL.110393271URA1-10000000000SYLVIA DITSHEBO00000000000000000000000000000000000000000000000000000000000000000
1028226757110044676000000200928146762115945125100000013299000000000000BLIL.100530706BMFW-10000000000MMOLOKI IKANENG00000000000000000000000000000000000000000000000000000000000000000
1028226757110044676000000201028146762115945125100000055125000000000000BLIL.100531776URA1-10000000000MMOLOKI IKANENG00000000000000000000000000000000000000000000000000000000000000000
1028226757110044676000000201128236762116491713100000030448000000000000BLIL.110829906BMFW-10000000000CONSTANCE SAMAK00000000000000000000000000000000000000000000000000000000000000000
1028226757110044676000000201228516762117814104100000035664000000000000BLIL.070363262BMFW-10000000000BERNARD MAGANO 00000000000000000000000000000000000000000000000000000000000000000
1028226757110044676000000201328186762119936617100000020250000000000000BLIL.110393875BMFW-10000000000MODIRI GOPOLANG00000000000000000000000000000000000000000000000000000000000000000
1028226757110044676000000201428506762120687390100000031992000000000000BLIL.080126472BMFW-10000000000ONKABETSE KOOAG00000000000000000000000000000000000000000000000000000000000000000
1028226757110044676000000201528516762121627725100000041418000000000000BLIL.061144333BMFW-10000000000OBUSITSWE PUOET00000000000000000000000000000000000000000000000000000000000000000
1028226757110044676000000201628516762123693980100000023221000000000000BLIL.101278505BMFW-10000000000KUTENDA JERRY Y00000000000000000000000000000000000000000000000000000000000000000
1028226757110044676000000201728126762125073669100000024781000000000000BLIL.080125398BMFW-10000000000GOTHATAMANG LET00000000000000000000000000000000000000000000000000000000000000000
1028226757110044676000000201828186762126111088100000030255000000000000BLIL.110727329BMFW-10000000000BOINEELO BUSANG00000000000000000000000000000000000000000000000000000000000000000
1028226757110044676000000201928146762126612929100000022162000000000000BLIL.100299881URA1-10000000000TEKO KEBATENNE 00000000000000000000000000000000000000000000000000000000000000000
1028226757110044676000000202028186762126796210100000025000000000000000BLIL.070993810URA1-10000000000WAZHA SEGOLE   00000000000000000000000000000000000000000000000000000000000000000
1028226757110044676000000202128126762127093409100000048580000000000000BLIL.070467273BMFW-10000000000OLEBENG BINO MO00000000000000000000000000000000000000000000000000000000000000000
1028226757110044676000000202228526762128458587100000029471000000000000BLIL.090113753BMFW-10000000000MALEBOGO MOTSWE00000000000000000000000000000000000000000000000000000000000000000
1028226757110044676000000202328146762128765370100000015618000000000000BLIL.090544838BMFW-10000000000KENALEMANG MAGA00000000000000000000000000000000000000000000000000000000000000000
1028226757110044676000000202428196762129402434100000017105000000000000BLIL.080658386URA1-10000000000MOKGOSI MOKGANO00000000000000000000000000000000000000000000000000000000000000000
1028226757110044676000000202528196762129402434100000033720000000000000BLIL.080658314BMFW-10000000000MOKGOSI MOKGANO00000000000000000000000000000000000000000000000000000000000000000
1028226757110044676000000202628166762129489218100000023292000000000000BLIL.080762854BMFW-10000000000ISAAC JACOBS   00000000000000000000000000000000000000000000000000000000000000000
1028226757110044676000000202728166762129489218100000043946000000000000BLIL.100193293ULM5-10000000000ISAAC JACOBS   00000000000000000000000000000000000000000000000000000000000000000
1028226757110044676000000202828246762130154743100000015799000000000000BLIL.081195070BMFW-10000000000KGALALELO PHIRI00000000000000000000000000000000000000000000000000000000000000000
1028226757110044676000000202928526762131469125100000027040000000000000BLIL.101170342BMFW-10000000000BARBARA MAX MOR00000000000000000000000000000000000000000000000000000000000000000
1028226757110044676000000203028526762131469125100000015000000000000000BLIL.050148689ULP1-10000000000BARBARA MAX MOR00000000000000000000000000000000000000000000000000000000000000000
1028226757110044676000000203128146762131952196100000037570000000000000BLIL.080339097BMFW-10000000000NEO PUSO       00000000000000000000000000000000000000000000000000000000000000000
1028226757110044676000000203228286762133215906100000022901000000000000BLIL.100639808URA1-10000000000GOABAMANG CHAWA00000000000000000000000000000000000000000000000000000000000000000
1028226757110044676000000203328286762133874364100000025617000000000000BLIL.110832538BMFW-10000000000BOIPELO MATSHAM00000000000000000000000000000000000000000000000000000000000000000
1028226757110044676000000203428526762133928799100000049737000000000000BLIL.100315224BMFW-10000000000ALASKA TSWIRI  00000000000000000000000000000000000000000000000000000000000000000
1028226757110044676000000203528456762134249566100000013302000000000000BLIL.070887555BMFW-10000000000VIOLET SENAH MA00000000000000000000000000000000000000000000000000000000000000000
1028226757110044676000000203628166762134676769100000024674000000000000BLIL.101172567BMFW-10000000000IPELENG IRENE B00000000000000000000000000000000000000000000000000000000000000000
1028226757110044676000000203728526762134789257100000021046000000000000BLIL.070887971BMFW-10000000000ONALENNA SUSAN 00000000000000000000000000000000000000000000000000000000000000000
1028226757110044676000000203828126762134977050100000017028000000000000BLIL.110410207BMFW-10000000000RACHIEL BALISI 00000000000000000000000000000000000000000000000000000000000000000
1028226757110044676000000203928456762135114403100000019421000000000000BLIL.101275260BMFW-10000000000NELSON EDIRETSE00000000000000000000000000000000000000000000000000000000000000000
1028226757110044676000000204028146762137047602100000015762000000000000BLIL.110392307BMFW-10000000000TLHOMAMO B MONK00000000000000000000000000000000000000000000000000000000000000000
1028226757110044676000000204128286762137323292100000017992000000000000BLIL.090432040BMFW-10000000000LESEDI GOITSEON00000000000000000000000000000000000000000000000000000000000000000
1028226757110044676000000204228146762138727394100000013275000000000000BLIL.091291167BMFW-10000000000TSHEGOFATSO G M00000000000000000000000000000000000000000000000000000000000000000
1028226757110044676000000204328246762140819072100000012560000000000000BLIL.091290772BMFW-10000000000MABEDI KEHUMILE00000000000000000000000000000000000000000000000000000000000000000
1028226757110044676000000204428526762141009359100000033201000000000000BLIL.090217160BMFW-10000000000BARBRA MOETELED00000000000000000000000000000000000000000000000000000000000000000
1028226757110044676000000204528526762141009359100000015000000000000000BLIL.090217149ULP1-10000000000BARBRA MOETELED00000000000000000000000000000000000000000000000000000000000000000
1028226757110044676000000204628286762141289977100000016613000000000000BLIL.080554185BMFW-10000000000HELTON MATLHAPE00000000000000000000000000000000000000000000000000000000000000000
1028226757110044676000000204728286762144319987100000015416000000000000BLIL.090217296BMFW-10000000000TEBOYAONE MOLOK00000000000000000000000000000000000000000000000000000000000000000
1028226757110044676000000204828146762148078208100000019175000000000000BLIL.110410300BMFW-10000000000MPHO DANIEL    00000000000000000000000000000000000000000000000000000000000000000
1028226757110044676000000204928126762148230379100000051874000000000000BLIL.081296525ULK6-10000000000BONTLE G NUKU  00000000000000000000000000000000000000000000000000000000000000000
1028226757110044676000000205028526762148859533100000013847000000000000BLIL.080336768BMFW-10000000000ISAIAH MOREWAGA00000000000000000000000000000000000000000000000000000000000000000
1028226757110044676000000205128526762149137441100000019383000000000000BLIL.080125225BMFW-10000000000JANE MOKGALAGAD00000000000000000000000000000000000000000000000000000000000000000
1028226757110044676000000205228286762150538977100000021173000000000000BLIL.080443159BMFW-10000000000GORATA C TSHIPA00000000000000000000000000000000000000000000000000000000000000000
1028226757110044676000000205328526762153413481100000011122000000000000BLIL.071220980BMFW-10000000000AROMAH LETUWE  00000000000000000000000000000000000000000000000000000000000000000
1028226757110044676000000205428286762159301680100000023977000000000000BLIL.090329991BMFW-10000000000DIMPHO TLADI   00000000000000000000000000000000000000000000000000000000000000000
1028226757110044676000000205528316762160083508100000019062000000000000BLIL.080871169BMFW-10000000000KHUMOETSILE PAT00000000000000000000000000000000000000000000000000000000000000000
1028226757110044676000000205628246762163146543100000039100000000000000BLIL.100316008BMFW-10000000000LESITILE MASANA00000000000000000000000000000000000000000000000000000000000000000
1028226757110044676000000205728236762163834320100000021665000000000000BLIL.080231213BMFW-10000000000KEITIRENG GAOFE00000000000000000000000000000000000000000000000000000000000000000
1028226757110044676000000205828526762163982327100000026970000000000000BLIL.080338503BMFW-10000000000BUPELO JENNIFER00000000000000000000000000000000000000000000000000000000000000000
1028226757110044676000000205928526762163982327100000182895000000000000BLIL.090116064URA1-10000000000BUPELO JENNIFER00000000000000000000000000000000000000000000000000000000000000000
1028226757110044676000000206028166762164237680100000022646000000000000BLIL.090325166BMFW-10000000000GOITSEONE MAWE 00000000000000000000000000000000000000000000000000000000000000000
1028226757110044676000000206128246762164485297100000014035000000000000BLIL.090218812BMFW-10000000000ONKGOPOTSE PULE00000000000000000000000000000000000000000000000000000000000000000
1028226757110044676000000206228526762164608047100000028527000000000000BLIL.100315082BMFW-10000000000TEBOGO KEITHEIL00000000000000000000000000000000000000000000000000000000000000000
1028226757110044676000000206328526762165202616100000033159000000000000BLIL.080443256BMFW-10000000000POITSHEGO ROGER00000000000000000000000000000000000000000000000000000000000000000
1028226757110044676000000206428166762167651176100000032269000000000000BLIL.090649438BMFW-10000000000FRANCINAH MATU 00000000000000000000000000000000000000000000000000000000000000000
1028226757110044676000000206528536762168925752100000022481000000000000BLIL.081195428BMFW-10000000000MONTHUSI OTUKIL00000000000000000000000000000000000000000000000000000000000000000
1028226757110044676000000206628536762169935982100000010500000000000000BLIL.081085214URA1-10000000000OMPABALETSE KGA00000000000000000000000000000000000000000000000000000000000000000
1028226757110044676000000206728506762170177747100000018087000000000000BLIL.080977302BMFW-10000000000GOTSHEPHA ROYAN00000000000000000000000000000000000000000000000000000000000000000
1028226757110044676000000206828526762171434633100000037000000000000000BLIL.110410380URA1-10000000000AGANG DIKGOLE  00000000000000000000000000000000000000000000000000000000000000000
1028226757110044676000000206928176762172677133100000016464000000000000BLIL.110725923BMFW-10000000000MABOKO O MAJANG00000000000000000000000000000000000000000000000000000000000000000
1028226757110044676000000207028186762172963003100000015956000000000000BLIL.100530908BMFW-10000000000KEOFE NTU      00000000000000000000000000000000000000000000000000000000000000000
1028226757110044676000000207128456762177825620100000023155000000000000BLIL.100193625BMFW-10000000000NEO LESARWE    00000000000000000000000000000000000000000000000000000000000000000
1028226757110044676000000207228146762179391322100000011679000000000000BLIL.110411859BMFW-10000000000MONKGOGI CHEPET00000000000000000000000000000000000000000000000000000000000000000
1028226757110044676000000207328236762180076715100000042371000000000000BLIL.090968248BMFW-10000000000TSHEPO DIKOKOLA00000000000000000000000000000000000000000000000000000000000000000
1028226757110044676000000207428456762182567043100000022901000000000000BLIL.100195244URA1-10000000000TUMELO PANSIRE 00000000000000000000000000000000000000000000000000000000000000000
1028226757110044676000000207528456762182567043100000034208000000000000BLIL.080975836BMFW-10000000000TUMELO PANSIRE 00000000000000000000000000000000000000000000000000000000000000000
1028226757110044676000000207628316762182730351100000012561000000000000BLIL.100422830BMFW-10000000000KGALALELO LEPHO00000000000000000000000000000000000000000000000000000000000000000
1028226757110044676000000207728456762183283656100000021532000000000000BLIL.080338106BMFW-10000000000KAONA RUKERO   00000000000000000000000000000000000000000000000000000000000000000
1028226757110044676000000207828236762183624446100000015500000000000000BLIL.091075663ULK6-10000000000GRACE NKALA    00000000000000000000000000000000000000000000000000000000000000000
1028226757110044676000000207928516762186932367100000031466000000000000BLIL.080975820BMFW-10000000000JOHANE WASIMONA00000000000000000000000000000000000000000000000000000000000000000
1028226757110044676000000208028506762188844015100000020167000000000000BLIL.090646568BMFW-10000000000MOLIMI NTETANG 00000000000000000000000000000000000000000000000000000000000000000
1028226757110044676000000208128146762191527319100000031124000000000000BLIL.110514342BMFW-10000000000GALALETSANG DAI00000000000000000000000000000000000000000000000000000000000000000
1028226757110044676000000208228236762194381861100000010000000000000000BLIL.090437981URA1-10000000000THOMAS MOSWEU S00000000000000000000000000000000000000000000000000000000000000000
1028226757110044676000000208328526762194782788100000030624000000000000BLIL.080339633BMFW-10000000000KABO M. RAMONAK00000000000000000000000000000000000000000000000000000000000000000
1028226757110044676000000208428236762194893759100000036161000000000000BLIL.090648573BMFW-10000000000KETSILE TONGWAN00000000000000000000000000000000000000000000000000000000000000000
1028226757110044676000000208528236762194893759100000021437000000000000BLIL.090648562URA1-10000000000KETSILE TONGWAN00000000000000000000000000000000000000000000000000000000000000000
1028226757110044676000000208628456762196016268100000015514000000000000BLIL.100741737URA1-10000000000TSHOGANETSO FEL00000000000000000000000000000000000000000000000000000000000000000
1028226757110044676000000208728456762196016268100000020622000000000000BLIL.090113458BMFW-10000000000TSHOGANETSO FEL00000000000000000000000000000000000000000000000000000000000000000
1028226757110044676000000208828286762196132270100000060524000000000000BLIL.100741740BMFW-10000000000TEBOGO LARRY MA00000000000000000000000000000000000000000000000000000000000000000
1028226757110044676000000208928146762197456596100000022095000000000000BLIL.090434350BMFW-10000000000VICTOR GODFREY 00000000000000000000000000000000000000000000000000000000000000000
1028226757110044676000000209028456762198067144100000013151000000000000BLIL.100634601BMFW-10000000000KELEBILE BAREI 00000000000000000000000000000000000000000000000000000000000000000
1028226757110044676000000209128186762198353452100000008863000000000000BLIL.110396644BMFW-10000000000KEDUMETSE DAVID00000000000000000000000000000000000000000000000000000000000000000
1028226757110044676000000209228526762199601024100000076399000000000000BLIL.110829045BMFW-10000000000KAMOGELO KHUMOE00000000000000000000000000000000000000000000000000000000000000000
1028226757110044676000000209328146762202342656100000050000000000000000BLIL.110285010ULP1-10000000000CLIFF DITHAPO  00000000000000000000000000000000000000000000000000000000000000000
1028226757110044676000000209428286762202729820100000017219000000000000BLIL.080874328BMFW-10000000000DINTLE SENUKU  00000000000000000000000000000000000000000000000000000000000000000
1028226757110044676000000209528546762203084059100000025000000000000000BLIL.991017387ULM2-10000000000NONOFO KEAIKITS00000000000000000000000000000000000000000000000000000000000000000
1028226757110044676000000209628236762205666384100000028099000000000000BLIL.100317458BMFW-10000000000KGOMOTSO MOKAE 00000000000000000000000000000000000000000000000000000000000000000
1028226757110044676000000209728456762207148330100000028858000000000000BLIL.090219521BMFW-10000000000MELINAH MAMPARA00000000000000000000000000000000000000000000000000000000000000000
1028226757110044676000000209828186762209068479100000031777000000000000BLIL.100527713BMFW-10000000000MOGOMOTSI SEKAO00000000000000000000000000000000000000000000000000000000000000000
1028226757110044676000000209928516762209288473100000013610000000000000BLIL.101274869BMFW-10000000000JOSHUA KAWILILA00000000000000000000000000000000000000000000000000000000000000000
1028226757110044676000000210028516762212412077100000019062000000000000BLIL.100425876BMFW-10000000000BASADI RAMHITSH00000000000000000000000000000000000000000000000000000000000000000
1028226757110044676000000210128516762212412077100000050500000000000000BLIL.100425855URA1-10000000000BASADI RAMHITSH00000000000000000000000000000000000000000000000000000000000000000
1028226757110044676000000210228126762212969151100000015620000000000000BLIL.110290422BMFW-10000000000CHOCOLATE TEBOG00000000000000000000000000000000000000000000000000000000000000000
1028226757110044676000000210328186762213675864100000045149000000000000BLIL.090646485BMFW-10000000000BASEKI MOKOLWAN00000000000000000000000000000000000000000000000000000000000000000
1028226757110044676000000210428186762213675864100000046539000000000000BLIL.090645739URA1-10000000000BASEKI MOKOLWAN00000000000000000000000000000000000000000000000000000000000000000
1028226757110044676000000210528186762213675864100000031028000000000000BLIL.090646420ULK6-10000000000BASEKI MOKOLWAN00000000000000000000000000000000000000000000000000000000000000000
1028226757110044676000000210628526762215485675100000041754000000000000BLIL.100193304BMFW-10000000000KABO SEMAUSU   00000000000000000000000000000000000000000000000000000000000000000
1028226757110044676000000210728236762218294099100000020597000000000000BLIL.110180616BMFW-10000000000JESSICA BASENYE00000000000000000000000000000000000000000000000000000000000000000
1028226757110044676000000210828146762225007956100000051973000000000000BLIL.080660929BMFW-10000000000MOTSHIDISI NTSO00000000000000000000000000000000000000000000000000000000000000000
1028226757110044676000000210928506762227774579100000053590000000000000BLIL.091289540URA1-10000000000CRAIG THUSO GUL00000000000000000000000000000000000000000000000000000000000000000
1028226757110044676000000211028126762229002655100000019175000000000000BLIL.110514553BMFW-10000000000DIPOPEGO MOKIBE00000000000000000000000000000000000000000000000000000000000000000
1028226757110044676000000211128126762229002655100000012808000000000000BLIL.110724565BMFW-10000000000DIPOPEGO MOKIBE00000000000000000000000000000000000000000000000000000000000000000
1028226757110044676000000211228186762229314993100000042847000000000000BLIL.101065421BMFW-10000000000BABE MAKWINJA  00000000000000000000000000000000000000000000000000000000000000000
1028226757110044676000000211328506762232066474100000014918000000000000BLIL.101062260BMFW-10000000000PINKIE MKHOPHE 00000000000000000000000000000000000000000000000000000000000000000
1028226757110044676000000211428176762234762765100000023132000000000000BLIL.100633797BMFW-10000000000LONE GOITSEONE 00000000000000000000000000000000000000000000000000000000000000000
1028226757110044676000000211528526762242969775100000043733000000000000BLIL.100958504BMFW-10000000000SIKHANYISIWE NC00000000000000000000000000000000000000000000000000000000000000000
1028226757110044676000000211628126762247521489100000017410000000000000BLIL.110180834BMFW-10000000000KABOYAMODIMO LE00000000000000000000000000000000000000000000000000000000000000000
1028226757110044676000000211728516762248024440100000020823000000000000BLIL.110620280BMFW-10000000000PHENYO VICTOR M00000000000000000000000000000000000000000000000000000000000000000
1028226757110044676000000211828536762248665509100000016519000000000000BLIL.110623505BMFW-10000000000THUSOYAONE MOEN00000000000000000000000000000000000000000000000000000000000000000
1028226757110044676000000211928126762249043473100000028846000000000000BLIL.100740885ULP1-10000000000PANANA MOGOMOTS00000000000000000000000000000000000000000000000000000000000000000
1028226757110044676000000212028166762249071581100000015620000000000000BLIL.110393467BMFW-10000000000REBECCA PHURALL00000000000000000000000000000000000000000000000000000000000000000
1028226757110044676000000212128516762249738149100000033074000000000000BLIL.110726147BMFW-10000000000CORNELIUS MAPHA00000000000000000000000000000000000000000000000000000000000000000
1028226757110044676000000212228456762250311447100000048317000000000000BLIL.100847015BMFW-10000000000LENYATSO KESIIL00000000000000000000000000000000000000000000000000000000000000000
1028226757110044676000000212328456762253790101100000021571000000000000BLIL.101277110BMFW-10000000000SEOPEDI JOHN   00000000000000000000000000000000000000000000000000000000000000000
1028226757110044676000000212428526762254746319100000050000000000000000BLIL.110515954ULK6-10000000000MICHAEL MTHANBD00000000000000000000000000000000000000000000000000000000000000000
1028226757110044676000000212528526762256510994100000019172000000000000BLIL.100424916BMFW-10000000000KELEBOGILE A KG00000000000000000000000000000000000000000000000000000000000000000
1028226757110044676000000212628546762259449075100000010000000000000000BLIL.010585356URA1-10000000000OTENG JOSEPH RA00000000000000000000000000000000000000000000000000000000000000000
1028226757110044676000000212728546762259449075100000010400000000000000BLIL.991219945ULM2-10000000000OTENG JOSEPH RA00000000000000000000000000000000000000000000000000000000000000000
1028226757110044676000000212828186762261581211100000012102000000000000BLIL.110289100BMFW-10000000000KABELO KEOTLOGE00000000000000000000000000000000000000000000000000000000000000000
1028226757110044676000000212928286762264049323100000036877000000000000BLIL.100636107BMFW-10000000000DIPUO BATHSEBA 00000000000000000000000000000000000000000000000000000000000000000
1028226757110044676000000213028516762267047225100000018027000000000000BLIL.101062203BMFW-10000000000DORCUS LIKUKELA00000000000000000000000000000000000000000000000000000000000000000
1028226757110044676000000213128166762269972628100000012872000000000000BLIL.100957342BMFW-10000000000MPHOENTLE LETUK00000000000000000000000000000000000000000000000000000000000000000
1028226757110044676000000213228146762270329058100000018363000000000000BLIL.100744842BMFW-10000000000AUDREY DIMPHO M00000000000000000000000000000000000000000000000000000000000000000
1028226757110044676000000213328126762270977922100000032938000000000000BLIL.110183679BMFW-10000000000KABELO KEILETSW00000000000000000000000000000000000000000000000000000000000000000
1028226757110044676000000213428456762273422734100000043434000000000000BLIL.101169972BMFW-10000000000KABELO MOSEBI  00000000000000000000000000000000000000000000000000000000000000000
1028226757110044676000000213528526762275086273100000023468000000000000BLIL.100848585BMFW-10000000000KEDIBONYE SERUM00000000000000000000000000000000000000000000000000000000000000000
1028226757110044676000000213628556762277378909100000019488000000000000BLIL.110938419ULM5-10000000000BAAGI KENOSI   00000000000000000000000000000000000000000000000000000000000000000
1028226757110044676000000213728286762278209971100000043519000000000000BLIL.100319051BMFW-10000000000BOKANI SHIRLEY 00000000000000000000000000000000000000000000000000000000000000000
1028226757110044676000000213828556762279096822100000015568000000000000BLIL.070677568BMFW-10000000000DYTON SEANEGO  00000000000000000000000000000000000000000000000000000000000000000
1028226757110044676000000213928286762279633012100000030263000000000000BLIL.061035375BMFW-10000000000MALEBOGO FLOREN00000000000000000000000000000000000000000000000000000000000000000
1028226757110044676000000214028286762283685091100000017730000000000000BLIL.101063652BMFW-10000000000JACQUELINE OLES00000000000000000000000000000000000000000000000000000000000000000
1028226757110044676000000214128286762283685091100000030000000000000000BLIL.060190322ULP1-10000000000JACQUELINE OLES00000000000000000000000000000000000000000000000000000000000000000
1028226757110044676000000214228606762284605642100000014634000000000000BLIL.110410444BMFW-10000000000BAWINNE KEFORIL00000000000000000000000000000000000000000000000000000000000000000
1028226757110044676000000214328166762287348603100000021812000000000000BLIL.110514667BMFW-10000000000GOFAONE C MOOKA00000000000000000000000000000000000000000000000000000000000000000
1028226757110044676000000214428456762299089881100000022376000000000000BLIL.110619468BMFW-10000000000NAMETSEGANG LEK00000000000000000000000000000000000000000000000000000000000000000
1028226757110044676000000214528606762305635263100000011615000000000000BLIL.110935417BMFW-10000000000KELEBOGILE ISAA00000000000000000000000000000000000000000000000000000000000000000
1028226757110044676000000214628186762310911583100000018300000000000000BLIL.101276245BMFW-10000000000IPELENG SINOMBE00000000000000000000000000000000000000000000000000000000000000000
1028226757110044676000000214728146762312320120100000034761000000000000BLIL.110725356BMFW-10000000000MPHO MAGDELENE 00000000000000000000000000000000000000000000000000000000000000000
1028226757110044676000000214828506762321815609100000015054000000000000BLIL.110937807BMFW-10000000000DIKETSO KELETSO00000000000000000000000000000000000000000000000000000000000000000
1028226757110044676000000214928186762528966007100000089082000000000000BLIL.101276914BMKS-10000000000PEGGY HAMOONGA 00000000000000000000000000000000000000000000000000000000000000000
1028226757110044676000000215028126762776489231100000053240000000000000BLIL.080125688URA1-10000000000KADIMO TSEME   00000000000000000000000000000000000000000000000000000000000000000
1028226757110044676000000215128126762776489231100000034839000000000000BLIL.070363570BMFW-10000000000KADIMO TSEME   00000000000000000000000000000000000000000000000000000000000000000
1028226757110044676000000215228176762582765065100000016361000000000000BLIL.100194897BMFW-10000000000NTLAMELANG TANK00000000000000000000000000000000000000000000000000000000000000000
1028226757110044676000000215328516762571382101100000098511000000000000BLIL.4001202676BMFW-0000000000UMTHABISI NDLOV00000000000000000000000000000000000000000000000000000000000000000
1028226757110044676000000215428176762328654307100000045714000000000000BLIL.090223257BMFW-10000000000SAMUEL WILSON K00000000000000000000000000000000000000000000000000000000000000000
1028226757110044676000000215528146762297417638100000056500000000000000BLIL.000620418ULM2-10000000000OREWETSE MOSITI00000000000000000000000000000000000000000000000000000000000000000
1028226757110044676000000215628236762419087368100000020686000000000000BLIL.110936314BMFW-10000000000OLEFILE MOLEBAT00000000000000000000000000000000000000000000000000000000000000000
1028226757110044676000000215728456762571530932100000023920000000000000BLIL.110830235BMFW-10000000000CHABANE CINDY C00000000000000000000000000000000000000000000000000000000000000000
1028226757110044676000000215828526762419503124100000030000000000000000BLIL.4000662789URA1-0000000000BAOBAB SCHOOL 200000000000000000000000000000000000000000000000000000000000000000
1028226757110044676000000215928236762173721062100000019574000000000000BLIL.4001410118BMFW-0000000000KAONE BOJOSI   00000000000000000000000000000000000000000000000000000000000000000
1028226757110044676000000216028306762483824382100000019218000000000000BLIL.4003148589BMFW-0000000000KEIUMETSE WAMAS00000000000000000000000000000000000000000000000000000000000000000
1028226757110044676000000216128236762344853462100000012844000000000000BLIL.4003720812BMFW-0000000000OMPHILE MOABI  00000000000000000000000000000000000000000000000000000000000000000
1028226757110044676000000216228236762102729201100000033017000000000000BLIL.4000153554ULM5-0000000000NEO SENABE     00000000000000000000000000000000000000000000000000000000000000000
1028226757110044676000000216328546757110030287100000054375000000000000BLIL.100530015BMFW-10000000000PATRICK OTLAADI00000000000000000000000000000000000000000000000000000000000000000
1028226757110044676000000216428546757110030287100000260000000000000000BLIL.001145518URA1-10000000000PATRICK OTLAADI00000000000000000000000000000000000000000000000000000000000000000
1028226757110044676000000216528186762331190447100000036978000000000000BLIL.4004694211PSTA-0000000000MAITUMELO M PET00000000000000000000000000000000000000000000000000000000000000000
120000000000000000000000000000000000000000000000000000000018122600000000000000000000000000000000000000000000000000000000000000000000000000000000000000000000000000000000000000000000
920000000000000000000000000000000000000000000000000000000000000000000000000000000000000000000000000000000000000000000000000000000000000000000000000000000000000000000000000000000000
940000000000000000000000000000000000000000000000000000000000000000000000000000000000000000000000000000000000000000000000000000000000000000000000000000000000000000000000000000000000
