1028226757110044676000000049928306762209707415100000025000000000000000BLIL.4006677382MFDS-0000000000MOSHE MOKGADI  00000000000000000000000000000000000000000000000000000000000000000
1028226757110044676000000050028146762289882518100000011687000000000000BLIL.4004150883BMFW-0000000000TEBOGO MOKWENA 00000000000000000000000000000000000000000000000000000000000000000
1028226757110044676000000050128286762089770038100000030535000000000000BLIL.0000198146BMFW-0000000000RUTH KEDIKILWE 00000000000000000000000000000000000000000000000000000000000000000
1028226757110044676000000050228286762484274437100000020000000000000000BLIL.4004242355URA1-0000000000TSHEPANG OLERAT00000000000000000000000000000000000000000000000000000000000000000
1028226757110044676000000050328126762228930790100000037335000000000000BLIL.4002013726URA1-0000000000WINNIE GATWENG 00000000000000000000000000000000000000000000000000000000000000000
1028226757110044676000000050428286762086971762100000029520000000000000BLIL.4003339413ULM3-0000000000BAATILE M MASIE00000000000000000000000000000000000000000000000000000000000000000
1028226757110044676000000050528146762261679149100000020600000000000000BLIL.4006436186BMFW-0000000000KAGISO MOOKA   00000000000000000000000000000000000000000000000000000000000000000
1028226757110044676000000050628556762304198775100000015000000000000000BLIL.4005317518BMFW-0000000000THABANG O AURTH00000000000000000000000000000000000000000000000000000000000000000
1028226757110044676000000050728236762682736445100000022800000000000000BLIL.4006120254BMFW-0000000000OTHUSITSE SAMOS00000000000000000000000000000000000000000000000000000000000000000
1028226757110044676000000050828536762232145799100000032560000000000000BLIL.4003704349BMFW-0000000000MMAMONWANA BOSE00000000000000000000000000000000000000000000000000000000000000000
1028226757110044676000000050928536762232301672100000032298000000000000BLIL.4003702151BMFW-0000000000MALEBOGO KEBALE00000000000000000000000000000000000000000000000000000000000000000
1028226757110044676000000051028146762358454090100000022711000000000000BLIL.4004625703BMFW-0000000000TLHOKOMELANG LE00000000000000000000000000000000000000000000000000000000000000000
1028226757110044676000000051128826762690626828100000071665000000000000BLIL.4006958613PSTA-0000000000LESEGO HYSSON N00000000000000000000000000000000000000000000000000000000000000000
1028226757110044676000000051228286762379062723100000016000000000000000BLIL.4005920561BMFW-0000000000TAYABANG FANYAN00000000000000000000000000000000000000000000000000000000000000000
1028226757110044676000000051328526762165568696100000034759000000000000BLIL.4001641117BMFW-0000000000THABO GADZANI M00000000000000000000000000000000000000000000000000000000000000000
1028226757110044676000000051428286762428504832100000038418000000000000BLIL.4005823583PSTA-0000000000BONNO KALULUKA 00000000000000000000000000000000000000000000000000000000000000000
1028226757110044676000000051528176762482801092100000029505000000000000BLIL.4005555342BMFW-0000000000OTSILE PATRICK 00000000000000000000000000000000000000000000000000000000000000000
1028226757110044676000000051628456762661916290100000010000000000000000BLIL.4005937930BMFW-0000000000MERAPELO NGONGO00000000000000000000000000000000000000000000000000000000000000000
1028226757110044676000000051728176762328654307100000030000000000000000BLIL.4006783692MFDS-0000000000SAMUEL WILSON K00000000000000000000000000000000000000000000000000000000000000000
1028226757110044676000000051828526762369687804100000011713000000000000BLIL.4002499708ULM5-0000000000KEOTSHEPILE MME00000000000000000000000000000000000000000000000000000000000000000
1028226757110044676000000051928516762399195637100000014663000000000000BLIL.4004542864BMFW-0000000000MUFHWANZALA MBE00000000000000000000000000000000000000000000000000000000000000000
1028226757110044676000000052028236762504231888100000017905000000000000BLIL.4005412730BMFW-0000000000MOTSEOTSILE G. 00000000000000000000000000000000000000000000000000000000000000000
1028226757110044676000000052128306762183960155100000049833000000000000BLIL.4005048779BMFW-0000000000GOGAKAONE DIBOS00000000000000000000000000000000000000000000000000000000000000000
1028226757110044676000000052228456762264027113100000028300000000000000BLIL.4006438887BMFW-0000000000MOEMEDI TESELET00000000000000000000000000000000000000000000000000000000000000000
1028226757110044676000000052328526762280018419100000028444000000000000BLIL.4004337922BMFW-0000000000TSHEPANG GLORIA00000000000000000000000000000000000000000000000000000000000000000
1028226757110044676000000052428286762086998534100000025500000000000000BLIL.4005104084ULM3-0000000000FIDEL MPOLOKA  00000000000000000000000000000000000000000000000000000000000000000
1028226757110044676000000052528566762323937964100000008000000000000000BLIL.4005210700BMFW-0000000000SEGOMOTSO DIKAG00000000000000000000000000000000000000000000000000000000000000000
1028226757110044676000000052628146762494570445100000052442000000000000BLIL.4003642884BMFW-0000000000WILLIAM SEKGATS00000000000000000000000000000000000000000000000000000000000000000
1028226757110044676000000052728146762276442086100000023901000000000000BLIL.4000921038ULP1-0000000000NTONA RICHARD R00000000000000000000000000000000000000000000000000000000000000000
1028226757110044676000000052828896762699313418100000026691000000000000BLIL.4005797510PSTA-0000000000GERTRUDE MUNGIR00000000000000000000000000000000000000000000000000000000000000000
1028226757110044676000000052928456762144796359100000082730000000000000BLIL.4004812633BPSTA0000000000IBENI SENEWA PH00000000000000000000000000000000000000000000000000000000000000000
1028226757110044676000000053028526762234628884100000021525000000000000BLIL.4005493277BMFW-0000000000LESEGO KELERILE00000000000000000000000000000000000000000000000000000000000000000
1028226757110044676000000053128186762024863997100000067216000000000000BLIL.4003377691URA1-0000000000WASHINGTON TSHO00000000000000000000000000000000000000000000000000000000000000000
1028226757110044676000000053228186762107720113100000027286000000000000BLIL.4003881290URA1-0000000000KEMISO NNANDZWA00000000000000000000000000000000000000000000000000000000000000000
1028226757110044676000000053328286762502365910100000040005000000000000BLIL.4005082589BMFW-0000000000KAGISO RAYMOND 00000000000000000000000000000000000000000000000000000000000000000
1028226757110044676000000053428186762282654790100000017943000000000000BLIL.4003406010ULM5-0000000000LAPOLOGANG GONT00000000000000000000000000000000000000000000000000000000000000000
1028226757110044676000000053528236762699282192100000018375000000000000BLIL.4006119344BMFW-0000000000ONALETHATA KEAB00000000000000000000000000000000000000000000000000000000000000000
1028226757110044676000000053628286762104960168100000030000000000000000BLIL.0000048539URA1-0000000000PHENYO WETSHOOT00000000000000000000000000000000000000000000000000000000000000000
1028226757110044676000000053728286762727316532100000067509000000000000BLIL.4005897928PSTA-0000000000NAMIE MODIRI   00000000000000000000000000000000000000000000000000000000000000000
1028226757110044676000000053828286762312866794100000107625000000000000BLIL.4006275146MFDS-0000000000KATLEGO THUTO  00000000000000000000000000000000000000000000000000000000000000000
1028226757110044676000000053928286762146596921100000060500000000000000BLIL.4004503567URA1-0000000000LORRAINE LORATO00000000000000000000000000000000000000000000000000000000000000000
1028226757110044676000000054028556762611939854100000020000000000000000BLIL.4006930122MFDS-0000000000GASEWAME SELEME00000000000000000000000000000000000000000000000000000000000000000
1028226757110044676000000054128126762467747104100000039200000000000000BLIL.4007058142BMFW-0000000000GOSEGO SEEMA   00000000000000000000000000000000000000000000000000000000000000000
1028226757110044676000000054228286762301416477100000039000000000000000BLIL.4007166349BMFW-0000000000ONKAGETSE FISH 00000000000000000000000000000000000000000000000000000000000000000
1028226757110044676000000054328286760711179049100000010500000000000000BLIL.4000763575ULM5-0000000000WAITSE BOAMMAAR00000000000000000000000000000000000000000000000000000000000000000
1028226757110044676000000054428456762420726773100000023500000000000000BLIL.4005145236BMFW-0000000000TUDUETSO ITUMEL00000000000000000000000000000000000000000000000000000000000000000
1028226757110044676000000054528236762366199092100000022550000000000000BLIL.4005275114ULP1-0000000000CLINTON MOKOWE 00000000000000000000000000000000000000000000000000000000000000000
1028226757110044676000000054628146762087995406100000023323000000000000BLIL.0000273053BMFW-0000000000GAONE MUZILA   00000000000000000000000000000000000000000000000000000000000000000
1028226757110044676000000054728556762235959270100000020500000000000000BLIL.4006845440MFDS-0000000000GOROGWAMANG BAI00000000000000000000000000000000000000000000000000000000000000000
1028226757110044676000000054828526762302511565100000040720000000000000BLIL.4001371615BMFW-0000000000NOMSA MMAMBAIWA00000000000000000000000000000000000000000000000000000000000000000
1028226757110044676000000054928556762113273362100000030153000000000000BLIL.0000461264BMFW-0000000000LETTA L SHABANI00000000000000000000000000000000000000000000000000000000000000000
1028226757110044676000000055028236762332186908100000022500000000000000BLIL.4006965943MFDS-0000000000ITEKENG GABOITE00000000000000000000000000000000000000000000000000000000000000000
1028226757110044676000000055128166762713900753100000042500000000000000BLIL.4006941757MFDS-0000000000GOMOLEMO ANTHON00000000000000000000000000000000000000000000000000000000000000000
1028226757110044676000000055228146762172099121100000020576000000000000BLIL.4004390596BMFW-0000000000KAGISO DIPHUPU 00000000000000000000000000000000000000000000000000000000000000000
1028226757110044676000000055328146762259522904100000085025000000000000BLIL.4007120317PSWL-0000000000THATO MOSINKI  00000000000000000000000000000000000000000000000000000000000000000
1028226757110044676000000055428146762104651965100000268738000000000000BLIL.4007178768PSWL-0000000000KENEILWE NKGOLA00000000000000000000000000000000000000000000000000000000000000000
1028226757110044676000000055528126762200499912100000051255000000000000BLIL.4005719348PSTA-0000000000LESEGO KAGISANO00000000000000000000000000000000000000000000000000000000000000000
1028226757110044676000000055628236762369598910100000018400000000000000BLIL.4006983264BMFW-0000000000THAPELO MORAPED00000000000000000000000000000000000000000000000000000000000000000
1028226757110044676000000055728186762286606599100000021525000000000000BLIL.4005604408ULP1-0000000000SEBEWA MOTHOKA 00000000000000000000000000000000000000000000000000000000000000000
1028226757110044676000000055828286762113783618100000112750000000000000BLIL.4005648747MFRA-0000000000YAME TSHEPO KEB00000000000000000000000000000000000000000000000000000000000000000
1028226757110044676000000055928126762018821224100000024927000000000000BLIL.0000673548BMFW-0000000000KEBANYATSE BOTL00000000000000000000000000000000000000000000000000000000000000000
1028226757110044676000000056028456762021230892100000031524000000000000BLIL.4000244698BMFW-0000000000ALBERT SUPER KE00000000000000000000000000000000000000000000000000000000000000000
1028226757110044676000000056128236762109230201100000020370000000000000BLIL.4005722315BMFW-0000000000GOSALAMANG RAMA00000000000000000000000000000000000000000000000000000000000000000
1028226757110044676000000056228546762194787936100000084500000000000000BLIL.4006014635BMFW-0000000000JOY OKEDI KARAB00000000000000000000000000000000000000000000000000000000000000000
1028226757110044676000000056328146762194787936100000088579000000000000BLIL.4002343535URA1-0000000000JOY OKEDI KARAB00000000000000000000000000000000000000000000000000000000000000000
1028226757110044676000000056428246762739456730100000020500000000000000BLIL.4007251819MFDS-0000000000SYDNEY OBED MAR00000000000000000000000000000000000000000000000000000000000000000
1028226757110044676000000056528306762426072162100000019700000000000000BLIL.4006678223BMFW-0000000000KEOLOPILE TSANK00000000000000000000000000000000000000000000000000000000000000000
1028226757110044676000000056628286762380428972100000073403000000000000BLIL.4006538392PSWL-0000000000MOARABI MAKUTU 00000000000000000000000000000000000000000000000000000000000000000
1028226757110044676000000056728526762183739261100000050000000000000000BLIL.4007180860MFDS-0000000000TSHENOLO RYAN M00000000000000000000000000000000000000000000000000000000000000000
1028226757110044676000000056828606762666420626100000022500000000000000BLIL.4007007662MFDS-0000000000OTENG NDARA    00000000000000000000000000000000000000000000000000000000000000000
1028226757110044676000000056928186762591289626100000020500000000000000BLIL.4006244476URA1-0000000000DAVID KGOBOENG 00000000000000000000000000000000000000000000000000000000000000000
1028226757110044676000000057028286762086989103100000031688000000000000BLIL.4000803058BMFW-0000000000TSHEPISO MONYAT00000000000000000000000000000000000000000000000000000000000000000
1028226757110044676000000057128236762405521297100000022500000000000000BLIL.4006530920MFDS-0000000000TATHANO MOKWETO00000000000000000000000000000000000000000000000000000000000000000
1028226757110044676000000057228376762325488353100000025300000000000000BLIL.4007041228BMFW-0000000000THABO JOSEPH MO00000000000000000000000000000000000000000000000000000000000000000
1028226757110044676000000057328536762171163216100000032292000000000000BLIL.4000662739BMFW-0000000000BABAAKANYI LEIN00000000000000000000000000000000000000000000000000000000000000000
1028226757110044676000000057428286762274429929100000034100000000000000BLIL.4005887585BMFW-0000000000MOSETSANAGAPE K00000000000000000000000000000000000000000000000000000000000000000
1028226757110044676000000057528286762190767180100000037335000000000000BLIL.4002537409ULM3-0000000000KENTSHITSWE JAM00000000000000000000000000000000000000000000000000000000000000000
1028226757110044676000000057628286762171886628100000022343000000000000BLIL.4002938542BMFW-0000000000TAMUCHA FIDZANI00000000000000000000000000000000000000000000000000000000000000000
1028226757110044676000000057728236762694167795100000032025000000000000BLIL.4005780214ULP1-0000000000THALOSANG BATSH00000000000000000000000000000000000000000000000000000000000000000
1028226757110044676000000057828286762035076927100000061105000000000000BLIL.4004541509URA1-0000000000CHIPO KEITUMETS00000000000000000000000000000000000000000000000000000000000000000
1028226757110044676000000057928316762768030802100000030000000000000000BLIL.4007117714MFDS-0000000000DOCTOR OTUKILE 00000000000000000000000000000000000000000000000000000000000000000
1028226757110044676000000058028146762196529956100000017943000000000000BLIL.4003105539URA1-0000000000MODIMOOSI RAPHU00000000000000000000000000000000000000000000000000000000000000000
1028226757110044676000000058128526762324290147100000051782000000000000BLIL.4001435669BMFW-0000000000MOGOMOTSI MATSH00000000000000000000000000000000000000000000000000000000000000000
1028226757110044676000000058228286762249201386100000031526000000000000BLIL.4000631815BMFW-0000000000TSHIAMISO RUTH 00000000000000000000000000000000000000000000000000000000000000000
1028226757110044676000000058328826762276557893100000030900000000000000BLIL.4007149812BMFW-0000000000ORATILE MOLOSIW00000000000000000000000000000000000000000000000000000000000000000
1028226757110044676000000058428526762333705450100000023456000000000000BLIL.0000764292BMFW-0000000000MOEGOGI KEHAKAE00000000000000000000000000000000000000000000000000000000000000000
1028226757110044676000000058528146762417813153100000028114000000000000BLIL.4004264874ULM3-0000000000CHAWANGWA CHOOL00000000000000000000000000000000000000000000000000000000000000000
1028226757110044676000000058628286762279831567100000043879000000000000BLIL.4004434277BMFW-0000000000GOEMEONE PHETO 00000000000000000000000000000000000000000000000000000000000000000
1028226757110044676000000058728316762008519491100000042212000000000000BLIL.0000699859ULM3-0000000000COLLIN GORATA M00000000000000000000000000000000000000000000000000000000000000000
1028226757110044676000000058828286762279420691100000033800000000000000BLIL.4007099239BMFW-0000000000DITSAPELO RAKON00000000000000000000000000000000000000000000000000000000000000000
1028226757110044676000000058928236762212299475100000013082000000000000BLIL.4002855522BMFW-0000000000GLADYS DITLADI 00000000000000000000000000000000000000000000000000000000000000000
1028226757110044676000000059028606762492631752100000130000000000000000BLIL.4007048864MFRA-0000000000LUBIA NORBERT M00000000000000000000000000000000000000000000000000000000000000000
1028226757110044676000000059128286762159301680100000050083000000000000BLIL.4000299075BMKS-0000000000DIMPHO TLADI   00000000000000000000000000000000000000000000000000000000000000000
1028226757110044676000000059228286762086937532100000060000000000000000BLIL.4001997423ULMG-0000000000BONOLO R DINOKO00000000000000000000000000000000000000000000000000000000000000000
1028226757110044676000000059328506762260721230100000015200000000000000BLIL.4006210130BMFW-0000000000GEORGE NTSOSE  00000000000000000000000000000000000000000000000000000000000000000
1028226757110044676000000059428316762008519491100000067253000000000000BLIL.4004488404BMFW-0000000000COLLIN GORATA M00000000000000000000000000000000000000000000000000000000000000000
1028226757110044676000000059528556762323717473100000036512000000000000BLIL.4006866264PSTA-0000000000KEGAISITSE FELI00000000000000000000000000000000000000000000000000000000000000000
1028226757110044676000000059628286762087018779100000024805000000000000BLIL.4004924371URA1-0000000000BONNY BONANG SE00000000000000000000000000000000000000000000000000000000000000000
1028226757110044676000000059728566762279618460100000032500000000000000BLIL.4006694932MFDS-0000000000THULAGANYO MONE00000000000000000000000000000000000000000000000000000000000000000
1028226757110044676000000059828306762257094658100000026100000000000000BLIL.4006713439BMFW-0000000000GADIFELE PRECIO00000000000000000000000000000000000000000000000000000000000000000
1028226757110044676000000059928306762223242984100000039300000000000000BLIL.4006680383BMFW-0000000000KEDIDIMETSE DOL00000000000000000000000000000000000000000000000000000000000000000
1028226757110044676000000060028286762496660046100000024900000000000000BLIL.4006526664BMFW-0000000000KELEBOGILE KGOT00000000000000000000000000000000000000000000000000000000000000000
1028226757110044676000000060128186762084791401100000050000000000000000BLIL.4007098673MFDS-0000000000THATO LEKONE   00000000000000000000000000000000000000000000000000000000000000000
1028226757110044676000000060228516762726953591100000017000000000000000BLIL.4007232259BMFW-0000000000JANET TOTENG   00000000000000000000000000000000000000000000000000000000000000000
1028226757110044676000000060328546762081692008100000033670000000000000BLIL.4002453718BMFW-0000000000KHUMALO MHLANGA00000000000000000000000000000000000000000000000000000000000000000
1028226757110044676000000060428526762165568696100000066617000000000000BLIL.4001583305ULM3-0000000000THABO GADZANI M00000000000000000000000000000000000000000000000000000000000000000
1028226757110044676000000060528526762149813447100000054194000000000000BLIL.4004908468PSTA-0000000000KAGISO KEAPEREN00000000000000000000000000000000000000000000000000000000000000000
1028226757110044676000000060628556762472082793100000024918000000000000BLIL.4002500288ULM5-0000000000JOSHUA MONTWEDI00000000000000000000000000000000000000000000000000000000000000000
1028226757110044676000000060728186762322643215100000025000000000000000BLIL.4007110592MFDS-0000000000KGOSITOTO MODIS00000000000000000000000000000000000000000000000000000000000000000
1028226757110044676000000060828166762324727249100000102500000000000000BLIL.4006762030MFDS-0000000000LAZARUS MOTLHAB00000000000000000000000000000000000000000000000000000000000000000
1028226757110044676000000060928126762277010923100000014002000000000000BLIL.4004415073BMFW-0000000000LESEDI GASETHEB00000000000000000000000000000000000000000000000000000000000000000
1028226757110044676000000061028146762293255397100000038119000000000000BLIL.4000399954BMFW-0000000000ONTEBETSE SETIL00000000000000000000000000000000000000000000000000000000000000000
1028226757110044676000000061128456762115507181100000030823000000000000BLIL.4000114833BMFW-0000000000PRETORIUS LOUIS00000000000000000000000000000000000000000000000000000000000000000
1028226757110044676000000061228286762189459946100000040000000000000000BLIL.4002945597URA1-0000000000TLHOPHO BONIFAC00000000000000000000000000000000000000000000000000000000000000000
1028226757110044676000000061328456762542599058100000018900000000000000BLIL.4006714956BMFW-0000000000NYALALANI MOKGE00000000000000000000000000000000000000000000000000000000000000000
1028226757110044676000000061428526762510361843100000057766000000000000BLIL.4003477083BMFW-0000000000PRUDENCE BAKWEN00000000000000000000000000000000000000000000000000000000000000000
1028226757110044676000000061528526762520472010100000026775000000000000BLIL.4005302523ULP1-0000000000PONATSHEGO RUTH00000000000000000000000000000000000000000000000000000000000000000
1028226757110044676000000061628456762118616939100000032025000000000000BLIL.4005390594ULM5-0000000000CHRISTOPHER SEF00000000000000000000000000000000000000000000000000000000000000000
1028226757110044676000000061728146762483483104100000022550000000000000BLIL.4004309763ULM5-0000000000ODISITSE JUWA  00000000000000000000000000000000000000000000000000000000000000000
1028226757110044676000000061828306762661910755100000017300000000000000BLIL.4006677861BMFW-0000000000DANIEL RADITANT00000000000000000000000000000000000000000000000000000000000000000
1028226757110044676000000061928556762231570202100000038550000000000000BLIL.4003881892BMFW-0000000000KEODIRETSE RABO00000000000000000000000000000000000000000000000000000000000000000
1028226757110044676000000062028526762254587937100000027893000000000000BLIL.4004017629BMFW-0000000000GAOLATHE WALTER00000000000000000000000000000000000000000000000000000000000000000
1028226757110044676000000062128316762198165774100000022974000000000000BLIL.4001413522BMFW-0000000000THULAGANYO NEOY00000000000000000000000000000000000000000000000000000000000000000
1028226757110044676000000062228516762429957361100000019625000000000000BLIL.4004714691BMFW-0000000000OLATOTSWE ALICE00000000000000000000000000000000000000000000000000000000000000000
1028226757110044676000000062328526762543788014100000011700000000000000BLIL.4006153390BMFW-0000000000OREEDITSE KEWAK00000000000000000000000000000000000000000000000000000000000000000
1028226757110044676000000062428126762307725781100000017309000000000000BLIL.4004413097BMFW-0000000000LINGANI SOLOMON00000000000000000000000000000000000000000000000000000000000000000
1028226757110044676000000062528556762326393303100000030500000000000000BLIL.4005855291ULM3-0000000000KEMMONYE NTHAOL00000000000000000000000000000000000000000000000000000000000000000
1028226757110044676000000062628166762217542754100000085305000000000000BLIL.4004047775ULP1-0000000000TEBOGO KGAMANYA00000000000000000000000000000000000000000000000000000000000000000
1028226757110044676000000062728566762322037616100000024200000000000000BLIL.4004605294ULP1-0000000000AARON DIPOGISO 00000000000000000000000000000000000000000000000000000000000000000
1028226757110044676000000062828456762535176144100000015655000000000000BLIL.4004681375BMFW-0000000000SHIMANI LOVEMOR00000000000000000000000000000000000000000000000000000000000000000
1028226757110044676000000062928146762240388927100000044625000000000000BLIL.4005943743MFDS-0000000000IKGOPOLENG KGAT00000000000000000000000000000000000000000000000000000000000000000
1028226757110044676000000063028146762240388927100000042525000000000000BLIL.4005943426ULP1-0000000000IKGOPOLENG KGAT00000000000000000000000000000000000000000000000000000000000000000
1028226757110044676000000063128286762150244730100000020500000000000000BLIL.0000641199URA1-0000000000THEOPHILLUS O M00000000000000000000000000000000000000000000000000000000000000000
1028226757110044676000000063228456762227946649100000028050000000000000BLIL.4005763313ULM5-0000000000ONALETHATA NARE00000000000000000000000000000000000000000000000000000000000000000
1028226757110044676000000063328166757130044664100000050000000000000000BLIL.4001520862ULMG-0000000000MONTI TLAGAE   00000000000000000000000000000000000000000000000000000000000000000
1028226757110044676000000063428826762020664612100000021600000000000000BLIL.04000287321MPFP0000000000GOBUSAMANG DEMP00000000000000000000000000000000000000000000000000000000000000000
1028226757110044676000000063528166762722167443100000055651000000000000BLIL.4006532566PSWL-0000000000ANTHONY KATANDO00000000000000000000000000000000000000000000000000000000000000000
1028226757110044676000000063628286762087013472100000031800000000000000BLIL.4005574342BMFW-0000000000MMALETSATSI RAM00000000000000000000000000000000000000000000000000000000000000000
1028226757110044676000000063728316762285765073100000015300000000000000BLIL.4007064735BMFW-0000000000GILBERT TUKA TO00000000000000000000000000000000000000000000000000000000000000000
1028226757110044676000000063828526762154506508100000032853000000000000BLIL.4005972500PSTA-0000000000SHEILA MONICA G00000000000000000000000000000000000000000000000000000000000000000
1028226757110044676000000063928286762234528505100000102500000000000000BLIL.4006539071MFRA-0000000000CLEMENT MBAKISI00000000000000000000000000000000000000000000000000000000000000000
1028226757110044676000000064028286762020282993100000018059000000000000BLIL.4003409199BMFW-0000000000TIROYAONE CHEST00000000000000000000000000000000000000000000000000000000000000000
1028226757110044676000000064128196762399985244100000026277000000000000BLIL.4001741907BMFW-0000000000KEATLARETSE MAL00000000000000000000000000000000000000000000000000000000000000000
1028226757110044676000000064228236762436997508100000022500000000000000BLIL.4006814568MFDS-0000000000KABO KAREYOPA  00000000000000000000000000000000000000000000000000000000000000000
1028226757110044676000000064328146762641704764100000037595000000000000BLIL.4004963961BMFW-0000000000AMOGELANG THEMB00000000000000000000000000000000000000000000000000000000000000000
1028226757110044676000000064428236762536472260100000032025000000000000BLIL.4005001351ULM3-0000000000CATHERINE ASA  00000000000000000000000000000000000000000000000000000000000000000
1028226757110044676000000064528246762702433202100000022500000000000000BLIL.4006526101MFDS-0000000000BARULAGANYE GEO00000000000000000000000000000000000000000000000000000000000000000
1028226757110044676000000064628186762307095837100000036603000000000000BLIL.4004503509BMFW-0000000000BOAGO GABONTSHI00000000000000000000000000000000000000000000000000000000000000000
1028226757110044676000000064728516762741166301100000024500000000000000BLIL.4006861646BMFW-0000000000ORATILE THANDI 00000000000000000000000000000000000000000000000000000000000000000
1028226757110044676000000064828146762378334743100000013373000000000000BLIL.4001953037BMFW-0000000000TSHEPO MMUSI   00000000000000000000000000000000000000000000000000000000000000000
1028226757110044676000000064928286762133574922100000051300000000000000BLIL.4007182723BMFW-0000000000MICHELLE THOLE 00000000000000000000000000000000000000000000000000000000000000000
1028226757110044676000000065028146762719045438100000015512000000000000BLIL.4003011154BMFW-0000000000TEBOGO MOSARWA 00000000000000000000000000000000000000000000000000000000000000000
1028226757110044676000000065128456762660772510100000015000000000000000BLIL.4006951776BMFW-0000000000GOSEGO TSHEPO P00000000000000000000000000000000000000000000000000000000000000000
1028226757110044676000000065228186762084791401100000050000000000000000BLIL.4007098615MFRA-0000000000THATO LEKONE   00000000000000000000000000000000000000000000000000000000000000000
1028226757110044676000000065328536762224253831100000022500000000000000BLIL.4006786739MFDS-0000000000TSHOLOFELO GARE00000000000000000000000000000000000000000000000000000000000000000
1028226757110044676000000065428176762120438149100000032500000000000000BLIL.4006999750MFRA-0000000000ALFRED SEAKOLO 00000000000000000000000000000000000000000000000000000000000000000
1028226757110044676000000065528526762149425721100000025870000000000000BLIL.4001474461BMFW-0000000000DOLLY RANTSHILW00000000000000000000000000000000000000000000000000000000000000000
1028226757110044676000000065628286762235876440100000032600000000000000BLIL.4006551419BMFW-0000000000MICHAEL N MOSWE00000000000000000000000000000000000000000000000000000000000000000
1028226757110044676000000065728236762405521297100000018300000000000000BLIL.4006531049BMFW-0000000000TATHANO MOKWETO00000000000000000000000000000000000000000000000000000000000000000
1028226757110044676000000065828556762604577736100000027500000000000000BLIL.4006807327BMFW-0000000000JEUBE XLUIIBE  00000000000000000000000000000000000000000000000000000000000000000
1028226757110044676000000065928236762033130692100000024432000000000000BLIL.4002496768BMFW-0000000000SEKANI BALIKI  00000000000000000000000000000000000000000000000000000000000000000
1028226757110044676000000066028456762253790101100000018840000000000000BLIL.4002457217ULM5-0000000000SEOPEDI JOHN   00000000000000000000000000000000000000000000000000000000000000000
1028226757110044676000000066128236762045068584100000026775000000000000BLIL.4005251839ULM5-0000000000BALEHEDI MOATLA00000000000000000000000000000000000000000000000000000000000000000
1028226757110044676000000066228146762126612929100000047227000000000000BLIL.4000974748BMFW-0000000000TEKO KEBATENNE 00000000000000000000000000000000000000000000000000000000000000000
1028226757110044676000000066328286762547179045100000035702000000000000BLIL.4001917762BMFW-0000000000KAGO KADISA    00000000000000000000000000000000000000000000000000000000000000000
1028226757110044676000000066428306762243069748100000029985000000000000BLIL.4002750952ULP1-0000000000BOITUMELO MPOWE00000000000000000000000000000000000000000000000000000000000000000
1028226757110044676000000066528556762238765202100000152500000000000000BLIL.4007286339MFDS-0000000000KAGISO NKATSWE 00000000000000000000000000000000000000000000000000000000000000000
1028226757110044676000000066628826762645841257100000150951000000000000BLIL.4005613829PSTA-0000000000THABANI BALANG 00000000000000000000000000000000000000000000000000000000000000000
1028226757110044676000000066728166762247167647100000019514000000000000BLIL.4004226581BMFW-0000000000THATA DIKHUTSAF00000000000000000000000000000000000000000000000000000000000000000
1028226757110044676000000066828456762698960707100000012200000000000000BLIL.4006998217BMFW-0000000000BOEMO MAKGOLOKE00000000000000000000000000000000000000000000000000000000000000000
1028226757110044676000000066928126762087415397100000009500000000000000BLIL.4006363567BMFW-0000000000KABELO MULBRIDG00000000000000000000000000000000000000000000000000000000000000000
1028226757110044676000000067028506762283981530100000015400000000000000BLIL.4006445044BMFW-0000000000SEONYATSENG LEL00000000000000000000000000000000000000000000000000000000000000000
1028226757110044676000000067128186762245027520100000021376000000000000BLIL.4004455813BMFW-0000000000TSHOTLEGO KHILA00000000000000000000000000000000000000000000000000000000000000000
1028226757110044676000000067228286762189468567100000036300000000000000BLIL.4004445234ULMG-0000000000HELENAH GADIFEL00000000000000000000000000000000000000000000000000000000000000000
1028226757110044676000000067328236762552986469100000032500000000000000BLIL.4006536277MFDS-0000000000NEELO BAHENYI  00000000000000000000000000000000000000000000000000000000000000000
1028226757110044676000000067428306762258905250100000028449000000000000BLIL.4005790039PSTA-0000000000KEALEBOGA S ARA00000000000000000000000000000000000000000000000000000000000000000
1028226757110044676000000067528286762324107706100000102500000000000000BLIL.4006710473MFRA-0000000000THATAYAONE CHUM00000000000000000000000000000000000000000000000000000000000000000
1028226757110044676000000067628146762425555846100000060500000000000000BLIL.4001961591ULMG-0000000000MACHEL MASHABA 00000000000000000000000000000000000000000000000000000000000000000
1028226757110044676000000067728186762542995834100000024500000000000000BLIL.4006370261BMFW-0000000000NTESANG GAODUME00000000000000000000000000000000000000000000000000000000000000000
1028226757110044676000000067828286762113273362100000030855000000000000BLIL.4004543909ULM3-0000000000LETTA SHABANI  00000000000000000000000000000000000000000000000000000000000000000
1028226757110044676000000067928456760711115184100000054156000000000000BLIL.4004762432PSTA-0000000000LEATILE GOABAON00000000000000000000000000000000000000000000000000000000000000000
1028226757110044676000000068028286762194831395100000121605000000000000BLIL.4004065177ULP1-0000000000BOTHO LEKOKO   00000000000000000000000000000000000000000000000000000000000000000
1028226757110044676000000068128286762377436673100000029437000000000000BLIL.4004750738BMFW-0000000000KELLY KAONE MOK00000000000000000000000000000000000000000000000000000000000000000
1028226757110044676000000068228286762323403428100000021900000000000000BLIL.4006787751BMFW-0000000000BOEMO EVENT KER00000000000000000000000000000000000000000000000000000000000000000
1028226757110044676000000068328186757151201011100000016538000000000000BLIL.4002738093ULM5-0000000000MARTHA LEKONE M00000000000000000000000000000000000000000000000000000000000000000
1028226757110044676000000068428506762260881761100000017745000000000000BLIL.4006210334BMFW-0000000000MATHOMOLA DITEK00000000000000000000000000000000000000000000000000000000000000000
1028226757110044676000000068528526762004511615100000058637000000000000BLIL.4005970728PSTA-0000000000MERCY THABEA SE00000000000000000000000000000000000000000000000000000000000000000
1028226757110044676000000068628146762471636450100000112750000000000000BLIL.4005543517MFDS-0000000000PROSPERITY OPTI00000000000000000000000000000000000000000000000000000000000000000
1028226757110044676000000068728186762282654790100000026536000000000000BLIL.4007123098PSTA-0000000000LAPOLOGANG GONT00000000000000000000000000000000000000000000000000000000000000000
1028226757110044676000000068828506762218688721100000020500000000000000BLIL.4005034120ULP1-0000000000ABEL RANKAISANG00000000000000000000000000000000000000000000000000000000000000000
1028226757110044676000000068928826762626251508100000045597000000000000BLIL.4005229375PSTA-0000000000NEO CHRISTOPHIN00000000000000000000000000000000000000000000000000000000000000000
1028226757110044676000000069028146762394831236100000081727000000000000BLIL.4000558853BMFW-0000000000GORATA MOTABE  00000000000000000000000000000000000000000000000000000000000000000
1028226757110044676000000069128176762036798786100000010000000000000000BLIL.4001210245URA1-0000000000JOHANE MOOKETSI00000000000000000000000000000000000000000000000000000000000000000
1028226757110044676000000069228456762406118217100000055550000000000000BLIL.4005576603ULM3-0000000000GABAGAISANE MOL00000000000000000000000000000000000000000000000000000000000000000
1028226757110044676000000069328546757110030287100000067700000000000000BLIL.4006511336BMFW-0000000000PATRICK OTLAADI00000000000000000000000000000000000000000000000000000000000000000
1028226757110044676000000069428146762468494390100000013500000000000000BLIL.4007083395BMFW-0000000000ONKAGETSE KING 00000000000000000000000000000000000000000000000000000000000000000
1028226757110044676000000069528236762525842383100000030000000000000000BLIL.4007174845MFDS-0000000000HAPPY MOSHA PIT00000000000000000000000000000000000000000000000000000000000000000
1028226757110044676000000069628236762615864411100000030000000000000000BLIL.4006467026MFRA-0000000000MOMPATI SETSHOS00000000000000000000000000000000000000000000000000000000000000000
1028226757110044676000000069728456760715119851100000062842000000000000BLIL.4001432409BMFW-0000000000MALEBOGO M BAKW00000000000000000000000000000000000000000000000000000000000000000
1028226757110044676000000069828286762190821902100000026500000000000000BLIL.4006344355BMFW-0000000000LIZZY L GASHA  00000000000000000000000000000000000000000000000000000000000000000
1028226757110044676000000069928286762086936196100000075500000000000000BLIL.4006615251BMFW-0000000000LESEGO GAPE DAM00000000000000000000000000000000000000000000000000000000000000000
1028226757110044676000000070028456762514579955100000010700000000000000BLIL.4005490473BMFW-0000000000OTHUSITSE MOLEF00000000000000000000000000000000000000000000000000000000000000000
1028226757110044676000000070128546762147719704100000133742000000000000BLIL.4005472437PSTA-0000000000SEBATHU PHILLIP00000000000000000000000000000000000000000000000000000000000000000
1028226757110044676000000070228186762475667782100000024400000000000000BLIL.4006379605BMFW-0000000000LESLIE TAWANA  00000000000000000000000000000000000000000000000000000000000000000
1028226757110044676000000070328146762616366929100000050500000000000000BLIL.4006215994ULM3-0000000000THABANG MOSWAI 00000000000000000000000000000000000000000000000000000000000000000
1028226757110044676000000070428246762725911582100000024500000000000000BLIL.4006752207BMFW-0000000000KEITUMETSE RANK00000000000000000000000000000000000000000000000000000000000000000
1028226757110044676000000070528456762706709831100000021525000000000000BLIL.4006199534ULM3-0000000000LUCY IKANYENG T00000000000000000000000000000000000000000000000000000000000000000
1028226757110044676000000070628456762504315111100000147304000000000000BLIL.4004983331PSTA-0000000000WAIBALE MUGANGA00000000000000000000000000000000000000000000000000000000000000000
1028226757110044676000000070728286762146586386100000024658000000000000BLIL.4000101963BMFW-0000000000TIDIMALO MAGOSI00000000000000000000000000000000000000000000000000000000000000000
1028226757110044676000000070828286762237885910100000045800000000000000BLIL.4006028967BMFW-0000000000REETSANG KENALE00000000000000000000000000000000000000000000000000000000000000000
1028226757110044676000000070928286762086991265100000039050000000000000BLIL.4005801519ULM3-0000000000LUCAS TEKO MOSA00000000000000000000000000000000000000000000000000000000000000000
1028226757110044676000000071028186762275220871100000019300000000000000BLIL.4006438968BMFW-0000000000PELAELO GWALI  00000000000000000000000000000000000000000000000000000000000000000
1028226757110044676000000071128146762115945125100000040500000000000000BLIL.4001411871ULM3-0000000000MMOLOKI IKANENG00000000000000000000000000000000000000000000000000000000000000000
1028226757110044676000000071228166757130095188100000045726000000000000BLIL.4003484949BMFW-0000000000ITUMELENG MOKGA00000000000000000000000000000000000000000000000000000000000000000
1028226757110044676000000071328126762055285871100000025134000000000000BLIL.4003519762BMFW-0000000000MATSHEDISO IKAN00000000000000000000000000000000000000000000000000000000000000000
1028226757110044676000000071428146762438153249100000027500000000000000BLIL.4006508238BMFW-0000000000OSEGO RATSURU  00000000000000000000000000000000000000000000000000000000000000000
1028226757110044676000000071528236762759040521100000014500000000000000BLIL.4006773372BMFW-0000000000AOBAKWE MABOTE 00000000000000000000000000000000000000000000000000000000000000000
1028226757110044676000000071628286762086953265100000045580000000000000BLIL.4006009179PSTA-0000000000NTJENGETI M KGA00000000000000000000000000000000000000000000000000000000000000000
1028226757110044676000000071728456762602301947100000020500000000000000BLIL.4006382224MFDS-0000000000KAGISO TIROYAKG00000000000000000000000000000000000000000000000000000000000000000
1028226757110044676000000071828526762227734010100000029586000000000000BLIL.4005798451PSTA-0000000000ERNEST BONI LET00000000000000000000000000000000000000000000000000000000000000000
1028226757110044676000000071928236762726500037100000012300000000000000BLIL.4006293873BMFW-0000000000KENANAO MOEZE  00000000000000000000000000000000000000000000000000000000000000000
1028226757110044676000000072028556762644707335100000025000000000000000BLIL.4006845204MFDS-0000000000VEMBUKENG SAAKA00000000000000000000000000000000000000000000000000000000000000000
1028226757110044676000000072128286762192736050100000039813000000000000BLIL.4004989727PSTA-0000000000KATLEGO SOLOMON00000000000000000000000000000000000000000000000000000000000000000
1028226757110044676000000072228456762759321640100000019100000000000000BLIL.4007085119BMFW-0000000000KEITUMETSE KEMI00000000000000000000000000000000000000000000000000000000000000000
1028226757110044676000000072328236762679454547100000032025000000000000BLIL.4005780311ULP1-0000000000NTWAKGOLO KEBON00000000000000000000000000000000000000000000000000000000000000000
1028226757110044676000000072428456762750124770100000014500000000000000BLIL.4006718617BMFW-0000000000MOAGISI KGABOTS00000000000000000000000000000000000000000000000000000000000000000
1028226757110044676000000072528516762158681108100000035523000000000000BLIL.4004504262BMFW-0000000000BEAUTY NKWAZI  00000000000000000000000000000000000000000000000000000000000000000
1028226757110044676000000072628566762322026338100000025000000000000000BLIL.4007133473MFDS-0000000000PHETO MOTLHABAN00000000000000000000000000000000000000000000000000000000000000000
1028226757110044676000000072728166762134676769100000029520000000000000BLIL.4003640549URA1-0000000000IPELENG IRENE B00000000000000000000000000000000000000000000000000000000000000000
1028226757110044676000000072828316762758911731100000022500000000000000BLIL.4007096590MFDS-0000000000BALOSANG SEFAKO00000000000000000000000000000000000000000000000000000000000000000
1028226757110044676000000072928826762161504454100000051680000000000000BLIL.4005291962PSTA-0000000000DESMA DAVID    00000000000000000000000000000000000000000000000000000000000000000
1028226757110044676000000073028456762445806758100000011700000000000000BLIL.4005533433BMFW-0000000000BOIKOBO GELIGRI00000000000000000000000000000000000000000000000000000000000000000
1028226757110044676000000073128186762408185256100000018112000000000000BLIL.4002150463BMFW-0000000000NLISI MAJAHA   00000000000000000000000000000000000000000000000000000000000000000
1028226757110044676000000073228286762087010775100000050873000000000000BLIL.4005342452PSTA-0000000000MOOKETSI POANE 00000000000000000000000000000000000000000000000000000000000000000
1028226757110044676000000073328286762279420691100000033550000000000000BLIL.4005416530ULP1-0000000000DITSAPELO RAKON00000000000000000000000000000000000000000000000000000000000000000
1028226757110044676000000073428456762306336406100000017750000000000000BLIL.4004577033BMFW-0000000000NEO MOLEBE     00000000000000000000000000000000000000000000000000000000000000000
1028226757110044676000000073528166762631983526100000019500000000000000BLIL.4006214354BMFW-0000000000MALEBOGO MOSADI00000000000000000000000000000000000000000000000000000000000000000
1028226757110044676000000073628166762599686387100000011700000000000000BLIL.4006811667BMFW-0000000000OFENTSE KENTSHE00000000000000000000000000000000000000000000000000000000000000000
1028226757110044676000000073728456762185619007100000030500000000000000BLIL.0000619669URA1-0000000000KENEILWE PEARL 00000000000000000000000000000000000000000000000000000000000000000
1028226757110044676000000073828556762533751336100000030400000000000000BLIL.4006806745BMFW-0000000000KAMOGELO TSAPO 00000000000000000000000000000000000000000000000000000000000000000
1028226757110044676000000073928566762261158482100000029738000000000000BLIL.4000674823BMFW-0000000000LEKGOTLA RADITL00000000000000000000000000000000000000000000000000000000000000000
1028226757110044676000000074028286762495467633100000030000000000000000BLIL.4007242430MFRA-0000000000KABO MAGRET MOS00000000000000000000000000000000000000000000000000000000000000000
1028226757110044676000000074128456760715119851100000061383000000000000BLIL.4001427511URA1-0000000000MALEBOGO M BAKW00000000000000000000000000000000000000000000000000000000000000000
1028226757110044676000000074228306762572701178100000021200000000000000BLIL.4007091176BMFW-0000000000MOSETSANAGAPE M00000000000000000000000000000000000000000000000000000000000000000
1028226757110044676000000074328516762291438531100000012763000000000000BLIL.4002051556ULM5-0000000000JENSEN RUNGWE S00000000000000000000000000000000000000000000000000000000000000000
1028226757110044676000000074428556762576898989100000034949000000000000BLIL.4004534203BMFW-0000000000LESILIE BALEKI 00000000000000000000000000000000000000000000000000000000000000000
1028226757110044676000000074528546762009027774100000384255000000000000BLIL.4005893908PSWL-0000000000TAPIWA BOINGOTL00000000000000000000000000000000000000000000000000000000000000000
1028226757110044676000000074628556762525893477100000026048000000000000BLIL.4003919736BMFW-0000000000OBATALETSE BAKW00000000000000000000000000000000000000000000000000000000000000000
1028226757110044676000000074728186762680269141100000021000000000000000BLIL.4006020202URA1-0000000000JOYCE MAKHALANG00000000000000000000000000000000000000000000000000000000000000000
1028226757110044676000000074828286762126558230100000031481000000000000BLIL.4001639837BMFW-0000000000THABO DINTWE   00000000000000000000000000000000000000000000000000000000000000000
1028226757110044676000000074928236762175644056100000022700000000000000BLIL.4006772596BMFW-0000000000OSENTSE NKAPE  00000000000000000000000000000000000000000000000000000000000000000
1028226757110044676000000075028526762087005734100000080850000000000000BLIL.0000507159BMFW-0000000000RENEILWE OBUSEN00000000000000000000000000000000000000000000000000000000000000000
1028226757110044676000000075128566762249089154100000018505000000000000BLIL.4001118314BMFW-0000000000MESINYANA TUDUE00000000000000000000000000000000000000000000000000000000000000000
1028226757110044676000000075228456762406118217100000055550000000000000BLIL.4005576483ULP1-0000000000GABAGAISANE MOL00000000000000000000000000000000000000000000000000000000000000000
1028226757110044676000000075328566762604112235100000022500000000000000BLIL.4007007646MFDS-0000000000LEBOKO LEFASO  00000000000000000000000000000000000000000000000000000000000000000
1028226757110044676000000075428526762153436186100000026900000000000000BLIL.4007208044BMFW-0000000000KEATLARETSE MAS00000000000000000000000000000000000000000000000000000000000000000
1028226757110044676000000075528286762089772406100000022255000000000000BLIL.4000064828BMFW-0000000000LABAN BOTLHOLE 00000000000000000000000000000000000000000000000000000000000000000
1028226757110044676000000075628526762163982327100000172259000000000000BLIL.4006890209PSWL-0000000000BUPELO JENNIFER00000000000000000000000000000000000000000000000000000000000000000
1028226757110044676000000075728146762417813153100000014004000000000000BLIL.4004265888BMFW-0000000000CHAWANGWA CHOOL00000000000000000000000000000000000000000000000000000000000000000
1028226757110044676000000075828286762035076927100000121000000000000000BLIL.4004541305ULM3-0000000000CHIPO KEITUMETS00000000000000000000000000000000000000000000000000000000000000000
1028226757110044676000000075928286762190767180100000030015000000000000BLIL.4002534257URA1-0000000000KENTSHITSWE JAM00000000000000000000000000000000000000000000000000000000000000000
1028226757110044676000000076028236762231204025100000068300000000000000BLIL.4005632528BMFW-0000000000NNANIKI KEGAKAM00000000000000000000000000000000000000000000000000000000000000000
1028226757110044676000000076128166757130083258100000073938000000000000BLIL.4001645048URA1-0000000000MPHO KOOLESE   00000000000000000000000000000000000000000000000000000000000000000
1028226757110044676000000076228146762619644629100000025100000000000000BLIL.4006695174BMFW-0000000000AMUCHILANI NINJ00000000000000000000000000000000000000000000000000000000000000000
1028226757110044676000000076328526762069615501100000133766000000000000BLIL.4003158469URA1-0000000000KEITUMETSE MPOT00000000000000000000000000000000000000000000000000000000000000000
1028226757110044676000000076428146762245631743100000024600000000000000BLIL.4006664381BMFW-0000000000DITABA TONNY KG00000000000000000000000000000000000000000000000000000000000000000
1028226757110044676000000076528506762584084653100000011865000000000000BLIL.4005120175BMFW-0000000000BOITUMELO MANJI00000000000000000000000000000000000000000000000000000000000000000
1028226757110044676000000076628146762722725225100000028500000000000000BLIL.4007144333BMFW-0000000000FRANK MPHEHLO  00000000000000000000000000000000000000000000000000000000000000000
1028226757110044676000000076728166762100456260100000021945000000000000BLIL.0000007662BMFW-0000000000KENEILWE MONTSH00000000000000000000000000000000000000000000000000000000000000000
1028226757110044676000000076828186762188388899100000029081000000000000BLIL.0000293504BMFW-0000000000KENEILWE KGAKIS00000000000000000000000000000000000000000000000000000000000000000
1028226757110044676000000076928456762628733736100000009700000000000000BLIL.4005614281BMFW-0000000000GOMOLEMO SEPAKO00000000000000000000000000000000000000000000000000000000000000000
1028226757110044676000000077028306762478101109100000025000000000000000BLIL.4006676865MFDS-0000000000BAITSHEPI LORRI00000000000000000000000000000000000000000000000000000000000000000
1028226757110044676000000077128456762082856067100000052800000000000000BLIL.4006536950MFRA-0000000000NAOMI LILIAN LO00000000000000000000000000000000000000000000000000000000000000000
1028226757110044676000000077228186762361733382100000033941000000000000BLIL.4002931508ULM3-0000000000ELLEN TAWANA   00000000000000000000000000000000000000000000000000000000000000000
1028226757110044676000000077328236762262977005100000009345000000000000BLIL.4005404412BMFW-0000000000ANNET KHATA    00000000000000000000000000000000000000000000000000000000000000000
1028226757110044676000000077428286762085893230100000028200000000000000BLIL.4006380248BMFW-0000000000GASEHENGWE PORT00000000000000000000000000000000000000000000000000000000000000000
1028226757110044676000000077528526762290721797100000059485000000000000BLIL.4004638990PSTA-0000000000KOKETSO TUELO L00000000000000000000000000000000000000000000000000000000000000000
1028226757110044676000000077628506762602385313100000025000000000000000BLIL.4006916342MFDS-0000000000MATSETSELEKO BE00000000000000000000000000000000000000000000000000000000000000000
1028226757110044676000000077728286762150572553100000022782000000000000BLIL.4000030011BMFW-0000000000JOSEPH  ONTHUSI00000000000000000000000000000000000000000000000000000000000000000
1028226757110044676000000077828546762520019416100000015986000000000000BLIL.4005009676BMFW-0000000000WEDU TSHUPOENG 00000000000000000000000000000000000000000000000000000000000000000
1028226757110044676000000077928186762228482303100000072764000000000000BLIL.4006474283PSTA-0000000000TOPO PHILLIMON 00000000000000000000000000000000000000000000000000000000000000000
1028226757110044676000000078028556762438317514100000018639000000000000BLIL.4003440286BMFW-0000000000KABO GALESEKEGW00000000000000000000000000000000000000000000000000000000000000000
1028226757110044676000000078128456762629029720100000022805000000000000BLIL.4003804969BMFW-0000000000MOEMEDI KENNETH00000000000000000000000000000000000000000000000000000000000000000
1028226757110044676000000078228286762249201386100000041869000000000000BLIL.4004789113PSTA-0000000000TSHIAMISO RUTH 00000000000000000000000000000000000000000000000000000000000000000
1028226757110044676000000078328286762095764299100000042500000000000000BLIL.4006591314MFRA-0000000000OIKANYENG TLALA00000000000000000000000000000000000000000000000000000000000000000
1028226757110044676000000078428286762227927102100000050000000000000000BLIL.4007068470MFDS-0000000000LEKEDZANI UTLWA00000000000000000000000000000000000000000000000000000000000000000
1028226757110044676000000078528286762227901908100000035500000000000000BLIL.4004654099PSTA-0000000000NONOFO MATHIBA 00000000000000000000000000000000000000000000000000000000000000000
1028226757110044676000000078628286762235877208100000057943000000000000BLIL.4006379786BMFW-0000000000LOLO REBAFENYI 00000000000000000000000000000000000000000000000000000000000000000
1028226757110044676000000078728236762191590712100000022500000000000000BLIL.4006549155MFRA-0000000000BABINI PHILIP  00000000000000000000000000000000000000000000000000000000000000000
1028226757110044676000000078828286762194829960100000055676000000000000BLIL.4004418152ULMG-0000000000MOYOMBUYA MATHU00000000000000000000000000000000000000000000000000000000000000000
1028226757110044676000000078928286762676941414100000024600000000000000BLIL.4006865789BMFW-0000000000TSHEPANG THAPEL00000000000000000000000000000000000000000000000000000000000000000
1028226757110044676000000079028456762288540456100000016100000000000000BLIL.4005269636BMFW-0000000000MARGARET TOPORO00000000000000000000000000000000000000000000000000000000000000000
1028226757110044676000000079128286762393488799100000009371000000000000BLIL.4004523791BMFW-0000000000KAGO KABELO    00000000000000000000000000000000000000000000000000000000000000000
1028226757110044676000000079228286762372753957100000110000000000000000BLIL.4005840662ULP1-0000000000OTENG PATRICK T00000000000000000000000000000000000000000000000000000000000000000
1028226757110044676000000079328236762682721149100000021525000000000000BLIL.4006119823ULP1-0000000000GOTHATAONE DINE00000000000000000000000000000000000000000000000000000000000000000
1028226757110044676000000079428146762080791158100000027059000000000000BLIL.0000482591BMFW-0000000000GORATA TSHETSAN00000000000000000000000000000000000000000000000000000000000000000
1028226757110044676000000079528546762299211286100000355199000000000000BLIL.0000838362ULMG-0000000000LETSOGILE M MOT00000000000000000000000000000000000000000000000000000000000000000
1028226757110044676000000079628186762151641315100000010500000000000000BLIL.4003126133ULM5-0000000000TLAMELO KEIPONY00000000000000000000000000000000000000000000000000000000000000000
1028226757110044676000000079728506762181707301100000017943000000000000BLIL.4002790564ULM5-0000000000SHEPHARD JOHN  00000000000000000000000000000000000000000000000000000000000000000
1028226757110044676000000079828286762416391473100000033180000000000000BLIL.4006157807BMFW-0000000000BOITUMELO KENAN00000000000000000000000000000000000000000000000000000000000000000
1028226757110044676000000079928186762282450817100000028100000000000000BLIL.4007008668BMFW-0000000000KABOYAONE MAJUB00000000000000000000000000000000000000000000000000000000000000000
1028226757110044676000000080028166762034949571100000022500000000000000BLIL.4006378887MFRA-0000000000MALEBOGO MAGIBI00000000000000000000000000000000000000000000000000000000000000000
1028226757110044676000000080128286762129928943100000042000000000000000BLIL.4005299546ULM5-0000000000DUMANO BATSHANI00000000000000000000000000000000000000000000000000000000000000000
1028226757110044676000000080228286762087010775100000043536000000000000BLIL.4005919643PSTA-0000000000POLINAH PALESA 00000000000000000000000000000000000000000000000000000000000000000
1028226757110044676000000080328526762183739261100000292820000000000000BLIL.4002326692ULMG-0000000000TSHENOLO RYAN M00000000000000000000000000000000000000000000000000000000000000000
1028226757110044676000000080428166762104718038100000011025000000000000BLIL.4005646664BMFW-0000000000THEBEYAME MATHA00000000000000000000000000000000000000000000000000000000000000000
1028226757110044676000000080528236762590180528100000026775000000000000BLIL.4006120301ULP1-0000000000OLERILE BATSHOL00000000000000000000000000000000000000000000000000000000000000000
1028226757110044676000000080628286762150241653100000024000000000000000BLIL.4006446668BMFW-0000000000MPOLOKANG MUZIL00000000000000000000000000000000000000000000000000000000000000000
1028226757110044676000000080728286762146584992100000028334000000000000BLIL.4004615433BMFW-0000000000CONSTANCE TITOS00000000000000000000000000000000000000000000000000000000000000000
1028226757110044676000000080828826762561665989100000050050000000000000BLIL.4004974279ULM3-0000000000ANDREW LELAKA  00000000000000000000000000000000000000000000000000000000000000000
1028226757110044676000000080928286762373580359100000030500000000000000BLIL.4005742793URA1-0000000000ABRAM NTSHIPING00000000000000000000000000000000000000000000000000000000000000000
1028226757110044676000000081028146762333436542100000031141000000000000BLIL.4003135083BMFW-0000000000MASEGO P. MOKGE00000000000000000000000000000000000000000000000000000000000000000
1028226757110044676000000081128286762301416477100000030000000000000000BLIL.4007166640MFDS-0000000000ONKAGETSE FISH 00000000000000000000000000000000000000000000000000000000000000000
1028226757110044676000000081228186762222061541100000018500000000000000BLIL.4006698936BMFW-0000000000SHATHISO MATEBE00000000000000000000000000000000000000000000000000000000000000000
1028226757110044676000000081328186762275772575100000020500000000000000BLIL.4004785737URA1-0000000000JOHN LIONEL BEY00000000000000000000000000000000000000000000000000000000000000000
1028226757110044676000000081428236762032546048100000100500000000000000BLIL.4006102030ULMG-0000000000MPHO TLAGAE    00000000000000000000000000000000000000000000000000000000000000000
1028226757110044676000000081528286762427127289100000032500000000000000BLIL.4006695213MFDS-0000000000NIKIWE MAHLASEL00000000000000000000000000000000000000000000000000000000000000000
1028226757110044676000000081628286762373571796100000052900000000000000BLIL.4006425488BMFW-0000000000TSHENOLO ABEDIN00000000000000000000000000000000000000000000000000000000000000000
1028226757110044676000000081728146762469137981100000112600000000000000BLIL.4002144383ULMG-0000000000KESEGO MARCIA J00000000000000000000000000000000000000000000000000000000000000000
1028226757110044676000000081828146762629287617100000036118000000000000BLIL.4004616219PSTA-0000000000BRENDAH KEITUME00000000000000000000000000000000000000000000000000000000000000000
1028226757110044676000000081928286762301436433100000024442000000000000BLIL.4006980575PSTA-0000000000OLINE BOLAANE  00000000000000000000000000000000000000000000000000000000000000000
1028226757110044676000000082028286762132128481100000015629000000000000BLIL.4003731764BMFW-0000000000CHARITY RASEGOJ00000000000000000000000000000000000000000000000000000000000000000
1028226757110044676000000082128186762004126729100000022500000000000000BLIL.4006550552MFDS-0000000000MALEBOGO TAMISU00000000000000000000000000000000000000000000000000000000000000000
1028226757110044676000000082228236762380912090100000020500000000000000BLIL.4005099144ULP1-0000000000ORUILWE GALESIE00000000000000000000000000000000000000000000000000000000000000000
1028226757110044676000000082328236762399852592100000024900000000000000BLIL.4006761157BMFW-0000000000ROSEMARY KENEE 00000000000000000000000000000000000000000000000000000000000000000
1028226757110044676000000082428286762234528646100000039240000000000000BLIL.4006851300PSTA-0000000000ABEL KOOAGILE K00000000000000000000000000000000000000000000000000000000000000000
1028226757110044676000000082528286762312866794100000052347000000000000BLIL.4006275285PSTA-0000000000KATLEGO THUTO  00000000000000000000000000000000000000000000000000000000000000000
1028226757110044676000000082628286762235855171100000021525000000000000BLIL.4005152605URA1-0000000000PERCY SELOILWE 00000000000000000000000000000000000000000000000000000000000000000
1028226757110044676000000082728286762501002860100000018000000000000000BLIL.04005153847LORE0000000000GAOLATLHE SWERE00000000000000000000000000000000000000000000000000000000000000000
1028226757110044676000000082828286762189459946100000015816000000000000BLIL.4002943537BMFW-0000000000TLHOPHO BONIFAC00000000000000000000000000000000000000000000000000000000000000000
1028226757110044676000000082928146762257100893100000013401000000000000BLIL.0000437041URA1-0000000000MOREKOLODI SETS00000000000000000000000000000000000000000000000000000000000000000
1028226757110044676000000083028146762551021745100000044296000000000000BLIL.4005162585PSTA-0000000000MOTLHANKA OTSET00000000000000000000000000000000000000000000000000000000000000000
1028226757110044676000000083128236762692674817100000010700000000000000BLIL.4006120783BMFW-0000000000GAOGANEBATHO DI00000000000000000000000000000000000000000000000000000000000000000
1028226757110044676000000083228516762333874354100000035500000000000000BLIL.4006789850MFDS-0000000000MOKGANEDI NTANA00000000000000000000000000000000000000000000000000000000000000000
1028226757110044676000000083328126762588640724100000016100000000000000BLIL.4007123111BMFW-0000000000THULI BOIKHUTSO00000000000000000000000000000000000000000000000000000000000000000
1028226757110044676000000083428166762661781453100000016900000000000000BLIL.4006783155BMFW-0000000000MOMPATI SHALOBA00000000000000000000000000000000000000000000000000000000000000000
1028226757110044676000000083528526762645522089100000022550000000000000BLIL.4005833748URA1-0000000000BOITUMELO RABAT00000000000000000000000000000000000000000000000000000000000000000
1028226757110044676000000083628526762409144219100000116341000000000000BLIL.4002959057URA1-0000000000DAYANA IRAOLA C00000000000000000000000000000000000000000000000000000000000000000
1028226757110044676000000083728186762407376484100000035492000000000000BLIL.4002327494BMFW-0000000000ONTEBETSE OSUPI00000000000000000000000000000000000000000000000000000000000000000
1028226757110044676000000083828146762261679149100000017829000000000000BLIL.4003541543BMFW-0000000000KAGISO MOOKA   00000000000000000000000000000000000000000000000000000000000000000
1028226757110044676000000083928456762323706997100000012500000000000000BLIL.4003408216ULP1-0000000000NONOFO SEGWABAN00000000000000000000000000000000000000000000000000000000000000000
1028226757110044676000000084028546762224179920100000045703000000000000BLIL.4001079918BMFW-0000000000DITOLO MABEL PH00000000000000000000000000000000000000000000000000000000000000000
1028226757110044676000000084128146762113792685100000030500000000000000BLIL.4006578750BMFW-0000000000KETSHEPHEMANG M00000000000000000000000000000000000000000000000000000000000000000
1028226757110044676000000084228236762182626807100000032500000000000000BLIL.4006656322MFRA-0000000000NAMASIKO G KETW00000000000000000000000000000000000000000000000000000000000000000
1028226757110044676000000084328236762685419080100000014700000000000000BLIL.4005780133BMFW-0000000000MALEBOGO MONNAK00000000000000000000000000000000000000000000000000000000000000000
1028226757110044676000000084428236762394216470100000026775000000000000BLIL.4006120149ULM3-0000000000MAITHOKO NYAME 00000000000000000000000000000000000000000000000000000000000000000
1028226757110044676000000084528186762209988883100000100500000000000000BLIL.4006278479ULMG-0000000000MELEKO MOREMI  00000000000000000000000000000000000000000000000000000000000000000
1028226757110044676000000084628286762189468567100000032304000000000000BLIL.4004736233BMFW-0000000000HELENAH GADIFEL00000000000000000000000000000000000000000000000000000000000000000
1028226757110044676000000084728826762484501096100000019700000000000000BLIL.4005610342BMFW-0000000000KELEBOGILE MOGO00000000000000000000000000000000000000000000000000000000000000000
1028226757110044676000000084828556762604577736100000025000000000000000BLIL.4006806321MFRA-0000000000JEUBE XLUIIBE  00000000000000000000000000000000000000000000000000000000000000000
1028226757110044676000000084928506762776895553100000013900000000000000BLIL.4007292299BMFW-0000000000WENDY MOIPONE M00000000000000000000000000000000000000000000000000000000000000000
1028226757110044676000000085028286762430326571100000058460000000000000BLIL.4003635180URA1-0000000000NNA YVES CAESAR00000000000000000000000000000000000000000000000000000000000000000
1028226757110044676000000085128286762196132270100000073938000000000000BLIL.4002133554ULM3-0000000000TEBOGO LARRY MA00000000000000000000000000000000000000000000000000000000000000000
1028226757110044676000000085228516762429699111100000021278000000000000BLIL.4004352504BMFW-0000000000FALES BASIAME  00000000000000000000000000000000000000000000000000000000000000000
1028226757110044676000000085328126762468701696100000014600000000000000BLIL.4007090413BMFW-0000000000POLOKO MBULAWA 00000000000000000000000000000000000000000000000000000000000000000
1028226757110044676000000085428286762279723144100000022500000000000000BLIL.4006731700MFDS-0000000000BRIGHT CHAKABIP00000000000000000000000000000000000000000000000000000000000000000
1028226757110044676000000085528186762029244225100000008300000000000000BLIL.4006550455BMFW-0000000000SAMUEL M. SETAB00000000000000000000000000000000000000000000000000000000000000000
1028226757110044676000000085628286762148069299100000061400000000000000BLIL.4006379485BMFW-0000000000BOKAMOSO ETHUSA00000000000000000000000000000000000000000000000000000000000000000
1028226757110044676000000085728556762725872031100000052500000000000000BLIL.4005688480ULMG-0000000000BATISANI MOLULW00000000000000000000000000000000000000000000000000000000000000000
1028226757110044676000000085828236762268791368100000022500000000000000BLIL.4006725620MFDS-0000000000KHUMANEGO MOTHA00000000000000000000000000000000000000000000000000000000000000000
1028226757110044676000000085928456762469346342100000015200000000000000BLIL.4006523640BMFW-0000000000LEFIKA MMATLI  00000000000000000000000000000000000000000000000000000000000000000
1028226757110044676000000086028506762330455082100000055550000000000000BLIL.4005702181URA1-0000000000RACIOUS B MANOW00000000000000000000000000000000000000000000000000000000000000000
1028226757110044676000000086128236762514136763100000020500000000000000BLIL.4003253479ULM5-0000000000GOABAONE PEKENE00000000000000000000000000000000000000000000000000000000000000000
1028226757110044676000000086228456762443961992100000030500000000000000BLIL.4004127048ULM3-0000000000WAITSE BOAMMAAR00000000000000000000000000000000000000000000000000000000000000000
1028226757110044676000000086328546762499942657100000035500000000000000BLIL.4003520949URA1-0000000000SIBONANI NYATHI00000000000000000000000000000000000000000000000000000000000000000
1028226757110044676000000086428286762190803083100000013700000000000000BLIL.4005646949BMFW-0000000000ITSENG TLHOIWE 00000000000000000000000000000000000000000000000000000000000000000
1028226757110044676000000086528306762087833359100000016897000000000000BLIL.4001581882BMFW-0000000000RATANG TLHAGWAN00000000000000000000000000000000000000000000000000000000000000000
1028226757110044676000000086628236762743576798100000022500000000000000BLIL.4006709416MFDS-0000000000OPELO MOSHETI  00000000000000000000000000000000000000000000000000000000000000000
1028226757110044676000000086728176762036798786100000025000000000000000BLIL.4006669624MFDS-0000000000JOHANE MOOKETSI00000000000000000000000000000000000000000000000000000000000000000
1028226757110044676000000086828146762431324160100000035703000000000000BLIL.4004122022BMFW-0000000000KEAMOGETSE PHIR00000000000000000000000000000000000000000000000000000000000000000
1028226757110044676000000086928146762202342656100000097700000000000000BLIL.4006874061BMFW-0000000000CLIFF DITHAPO  00000000000000000000000000000000000000000000000000000000000000000
1028226757110044676000000087028286762393488799100000022601000000000000BLIL.4004593077URA1-0000000000KAGO KABELO    00000000000000000000000000000000000000000000000000000000000000000
1028226757110044676000000087128506762456931651100000014700000000000000BLIL.4006392120BMFW-0000000000OTSILE SIMON   00000000000000000000000000000000000000000000000000000000000000000
1028226757110044676000000087228166762104718038100000022500000000000000BLIL.4006624818MFDS-0000000000IRENE OLATOTSE 00000000000000000000000000000000000000000000000000000000000000000
1028226757110044676000000087328146762456043430100000012238000000000000BLIL.4004132782BMFW-0000000000BOTSANG FRANK  00000000000000000000000000000000000000000000000000000000000000000
1028226757110044676000000087428456762274446428100000038790000000000000BLIL.0000847945BMFW-0000000000KGOMOTSO MASWEU00000000000000000000000000000000000000000000000000000000000000000
1028226757110044676000000087528166762412977582100000014641000000000000BLIL.4002455883ULP1-0000000000QUEEN LOABILE  00000000000000000000000000000000000000000000000000000000000000000
1028226757110044676000000087628506762170177747100000013689000000000000BLIL.4003033495BMFW-0000000000GOTSHEPHA ROYAN00000000000000000000000000000000000000000000000000000000000000000
1028226757110044676000000087728286762297329536100000050000000000000000BLIL.4005009854MFRA-0000000000KABOYAMODIMO MO00000000000000000000000000000000000000000000000000000000000000000
1028226757110044676000000087828166762399096207100000028700000000000000BLIL.4005439411BMFW-0000000000BASIMANE PULE  00000000000000000000000000000000000000000000000000000000000000000
1028226757110044676000000087928186762192763897100000011577000000000000BLIL.4004099641BMFW-0000000000GOFAONE TEBOGO 00000000000000000000000000000000000000000000000000000000000000000
1028226757110044676000000088028236762346259387100000024700000000000000BLIL.4006387745BMFW-0000000000THEELETSO MONNA00000000000000000000000000000000000000000000000000000000000000000
1028226757110044676000000088128286762234690437100000016100000000000000BLIL.4006415922BMFW-0000000000MOGOMOTSI JOHNS00000000000000000000000000000000000000000000000000000000000000000
1028226757110044676000000088228236762675600532100000053025000000000000BLIL.4005734873ULP1-0000000000LEBOHANG TSIANE00000000000000000000000000000000000000000000000000000000000000000
1028226757110044676000000088328126762251675553100000009900000000000000BLIL.4006927202BMFW-0000000000NOMSA ONALETHAT00000000000000000000000000000000000000000000000000000000000000000
1028226757110044676000000088428236762370876587100000023731000000000000BLIL.4002856023URA1-0000000000OAMPONA SAMPOFO00000000000000000000000000000000000000000000000000000000000000000
1028226757110044676000000088528556762237547239100000030500000000000000BLIL.4006845149MFDS-0000000000CHINIMBA THOKAB00000000000000000000000000000000000000000000000000000000000000000
1028226757110044676000000088628286762190806590100000030996000000000000BLIL.4001798661ULP1-0000000000NEELO OTAA RANN00000000000000000000000000000000000000000000000000000000000000000
1028226757110044676000000088728286762258094326100000033941000000000000BLIL.4003113425ULP1-0000000000OBOITSHEPHO BAT00000000000000000000000000000000000000000000000000000000000000000
1028226757110044676000000088828286762297329536100000082070000000000000BLIL.4006774506PSTA-0000000000KABOYAMODIMO MO00000000000000000000000000000000000000000000000000000000000000000
1028226757110044676000000088928506762177988064100000030500000000000000BLIL.4005036635ULP1-0000000000RONALD LEKGOWE 00000000000000000000000000000000000000000000000000000000000000000
1028226757110044676000000089028126762469122320100000023153000000000000BLIL.4003362185URA1-0000000000MOTLAAGANA OBAK00000000000000000000000000000000000000000000000000000000000000000
1028226757110044676000000089128146762158118937100000021069000000000000BLIL.4003793196BMFW-0000000000ANNAH DINEO TLH00000000000000000000000000000000000000000000000000000000000000000
1028226757110044676000000089228286762126558230100000030015000000000000BLIL.4001630061ULP1-0000000000THABO DINTWE   00000000000000000000000000000000000000000000000000000000000000000
1028226757110044676000000089328566762330815567100000012157000000000000BLIL.4002672699BMFW-0000000000KEITUMETSE LEKW00000000000000000000000000000000000000000000000000000000000000000
1028226757110044676000000089428286762326785386100000030100000000000000BLIL.4003016031BMFW-0000000000RETHABILE MOGAT00000000000000000000000000000000000000000000000000000000000000000
1028226757110044676000000089528456762323706997100000024772000000000000BLIL.4002890728BMFW-0000000000NONOFO SEGWABAN00000000000000000000000000000000000000000000000000000000000000000
1028226757110044676000000089628186762272316516100000029000000000000000BLIL.4005177122BMFW-0000000000CATHERINE MOKOK00000000000000000000000000000000000000000000000000000000000000000
1028226757110044676000000089728186762500906104100000018522000000000000BLIL.4003199988BMFW-0000000000TSHOTLEGO DUMAN00000000000000000000000000000000000000000000000000000000000000000
1028226757110044676000000089828456762185902262100000015546000000000000BLIL.4004525492BMFW-0000000000POLOKO KOPHUTIN00000000000000000000000000000000000000000000000000000000000000000
1028226757110044676000000089928286762400070801100000053025000000000000BLIL.4005699609ULM5-0000000000GOITSEONE E SAD00000000000000000000000000000000000000000000000000000000000000000
1028226757110044676000000090028126762447747538100000016076000000000000BLIL.4002318633BMFW-0000000000JOHANNA JANETTE00000000000000000000000000000000000000000000000000000000000000000
1028226757110044676000000090128236762741620274100000025000000000000000BLIL.4006827242MFDS-0000000000SEATLA TLOTLEGO00000000000000000000000000000000000000000000000000000000000000000
1028226757110044676000000090228286762301416477100000030000000000000000BLIL.4007166462MFDS-0000000000ONKAGETSE FISH 00000000000000000000000000000000000000000000000000000000000000000
1028226757110044676000000090328546762099738753100000104000000000000000BLIL.4002366212BMKS-0000000000MOSIMANEGAPE O 00000000000000000000000000000000000000000000000000000000000000000
1028226757110044676000000090428186762309600973100000039625000000000000BLIL.4002290718BMFW-0000000000KEMMONYE BALIKI00000000000000000000000000000000000000000000000000000000000000000
1028226757110044676000000090528186762412501589100000010500000000000000BLIL.4003301474ULM5-0000000000KATLEGO KEOLOPI00000000000000000000000000000000000000000000000000000000000000000
1028226757110044676000000090628506762227956028100000009345000000000000BLIL.4006210635BMFW-0000000000MONTLENYANE MOR00000000000000000000000000000000000000000000000000000000000000000
1028226757110044676000000090728456762319024626100000322908000000000000BLIL.4001208444ULMG-0000000000VIVID NEO MOGAN00000000000000000000000000000000000000000000000000000000000000000
1028226757110044676000000090828166762315303545100000012900000000000000BLIL.4005894043BMFW-0000000000KELEBOGILE MAHA00000000000000000000000000000000000000000000000000000000000000000
1028226757110044676000000090928236762550344528100000032500000000000000BLIL.4006773990MFDS-0000000000AKOFANG MOTLHAG00000000000000000000000000000000000000000000000000000000000000000
1028226757110044676000000091028126762259706722100000033000000000000000BLIL.4005677245URA1-0000000000DINEO LETSATSI 00000000000000000000000000000000000000000000000000000000000000000
1028226757110044676000000091128286762274626963100000025000000000000000BLIL.4003796314URA1-0000000000SUZAN DIKELETSA00000000000000000000000000000000000000000000000000000000000000000
1028226757110044676000000091228316762758911731100000016100000000000000BLIL.4007096613BMFW-0000000000BALOSANG SEFAKO00000000000000000000000000000000000000000000000000000000000000000
1028226757110044676000000091328456762375801646100000038926000000000000BLIL.4000826808URA1-0000000000MUSAWENKOSI NCU00000000000000000000000000000000000000000000000000000000000000000
1028226757110044676000000091428146762048849634100000023100000000000000BLIL.4005771217BMFW-0000000000MOSIDI MALEBOGO00000000000000000000000000000000000000000000000000000000000000000
1028226757110044676000000091528316762430759293100000032013000000000000BLIL.4005700587PSTA-0000000000MOGOGI MAGDELIN00000000000000000000000000000000000000000000000000000000000000000
1028226757110044676000000091628286762315035651100000048539000000000000BLIL.4007123713PSTA-0000000000JENAMISO MBANGI00000000000000000000000000000000000000000000000000000000000000000
1028226757110044676000000091728566762113606399100000076866000000000000BLIL.4002244490ULM3-0000000000GONTSE KOMANYAN00000000000000000000000000000000000000000000000000000000000000000
1028226757110044676000000091828606762772360724100000020000000000000000BLIL.4002229038ULP1-0000000000XHEGU QWETE    00000000000000000000000000000000000000000000000000000000000000000
1028226757110044676000000091928236762044228402100000012238000000000000BLIL.4004244593BMFW-0000000000KEPEO PHATHI   00000000000000000000000000000000000000000000000000000000000000000
1028226757110044676000000092028286762274786585100000015960000000000000BLIL.4000873936BMFW-0000000000TSHIAMO WAME DI00000000000000000000000000000000000000000000000000000000000000000
1028226757110044676000000092128236762695135147100000025000000000000000BLIL.4005755930MFRA-0000000000KABELO BAKGETHI00000000000000000000000000000000000000000000000000000000000000000
1028226757110044676000000092228516762526511086100000016200000000000000BLIL.4007276996BMFW-0000000000OLEBOGENG MUNIT00000000000000000000000000000000000000000000000000000000000000000
1028226757110044676000000092328126762337244917100000017140000000000000BLIL.4001489197BMFW-0000000000LEKETI LILLIAN 00000000000000000000000000000000000000000000000000000000000000000
1028226757110044676000000092428286762189470348100000021000000000000000BLIL.04003546828LORE0000000000ONEPILE GAOLATH00000000000000000000000000000000000000000000000000000000000000000
1028226757110044676000000092528146762473629833100000021185000000000000BLIL.4002702797BMFW-0000000000MMAMONENE MOOKE00000000000000000000000000000000000000000000000000000000000000000
1028226757110044676000000092628306762739349464100000016100000000000000BLIL.4006929440BMFW-0000000000OMPHILE SELEBAL00000000000000000000000000000000000000000000000000000000000000000
1028226757110044676000000092728236762110268019100000052500000000000000BLIL.4005780117ULP1-0000000000ONTSHETSE LOETO00000000000000000000000000000000000000000000000000000000000000000
1028226757110044676000000092828286762435343900100000028300000000000000BLIL.4006031366BMFW-0000000000TSHEPISO VANZYL00000000000000000000000000000000000000000000000000000000000000000
1028226757110044676000000092928286762234689315100000027012000000000000BLIL.4004237831BMFW-0000000000TALITA LUDO KEO00000000000000000000000000000000000000000000000000000000000000000
1028226757110044676000000093028286762216628878100000084788000000000000BLIL.4006601474PSTA-0000000000MMONA TSHWEU   00000000000000000000000000000000000000000000000000000000000000000
1028226757110044676000000093128286762479347059100000110000000000000000BLIL.4005488614URA1-0000000000MOGAKOLODI OLEF00000000000000000000000000000000000000000000000000000000000000000
1028226757110044676000000093228146762678133473100000053965000000000000BLIL.4006931487BMFW-0000000000MPHO TREVOR MAT00000000000000000000000000000000000000000000000000000000000000000
1028226757110044676000000093328516762178641025100000026775000000000000BLIL.4005573744ULM5-0000000000MORERI NDANA   00000000000000000000000000000000000000000000000000000000000000000
1028226757110044676000000093428286762087006691100000050500000000000000BLIL.4004604832URA1-0000000000PRECIOUS BELLE 00000000000000000000000000000000000000000000000000000000000000000
1028226757110044676000000093528166762569597283100000011025000000000000BLIL.4004520696BMFW-0000000000DITIRO ELIJAH L00000000000000000000000000000000000000000000000000000000000000000
1028226757110044676000000093628236762315012063100000020000000000000000BLIL.4007188046MFRA-0000000000GAOLATLHE BALOS00000000000000000000000000000000000000000000000000000000000000000
1028226757110044676000000093728286762087000974100000024887000000000000BLIL.4000527696BMFW-0000000000KAFUTI NGELE   00000000000000000000000000000000000000000000000000000000000000000
1028226757110044676000000093828126762106094022100000010500000000000000BLIL.4006926743BMFW-0000000000JOSEPH MASAKA  00000000000000000000000000000000000000000000000000000000000000000
1028226757110044676000000093928556762323717473100000026500000000000000BLIL.04004816310LORE0000000000KEGAISITSE FELI00000000000000000000000000000000000000000000000000000000000000000
1028226757110044676000000094028286762171890009100000036905000000000000BLIL.4004835695URA1-0000000000STANFORD TSHEPO00000000000000000000000000000000000000000000000000000000000000000
1028226757110044676000000094128546757110030287100000220550000000000000BLIL.4005159885ULMG-0000000000PATRICK OTLAADI00000000000000000000000000000000000000000000000000000000000000000
1028226757110044676000000094228196762122232060100000074100000000000000BLIL.4007035863BMFW-0000000000JUDA BOGOPA    00000000000000000000000000000000000000000000000000000000000000000
1028226757110044676000000094328146762411644596100000017969000000000000BLIL.4002723236URA1-0000000000KESEGO PRECIOUS00000000000000000000000000000000000000000000000000000000000000000
1028226757110044676000000094428146762620426602100000050000000000000000BLIL.4006481115MFRA-0000000000TLHOKOMELANG VI00000000000000000000000000000000000000000000000000000000000000000
1028226757110044676000000094528186762209068479100000047879000000000000BLIL.4006536081PSWL-0000000000MOGOMOTSI SEKAO00000000000000000000000000000000000000000000000000000000000000000
1028226757110044676000000094628286762234526484100000036905000000000000BLIL.4004221248ULP1-0000000000GAOTLHOBOGWE MB00000000000000000000000000000000000000000000000000000000000000000
1028226757110044676000000094728246762768564752100000033300000000000000BLIL.4007147755BMFW-0000000000KEALOTSWE KOOIT00000000000000000000000000000000000000000000000000000000000000000
1028226757110044676000000094828286762234526484100000025500000000000000BLIL.4002294479ULM3-0000000000GAOTLHOBOGWE MB00000000000000000000000000000000000000000000000000000000000000000
1028226757110044676000000094928176762407593541100000061045000000000000BLIL.4001182408BMFW-0000000000THAPELO NYANTO 00000000000000000000000000000000000000000000000000000000000000000
1028226757110044676000000095028146762335455623100000014994000000000000BLIL.4004221167BMFW-0000000000RATIDZAI MURERI00000000000000000000000000000000000000000000000000000000000000000
1028226757110044676000000095128126762299199912100000055550000000000000BLIL.4006251439URA1-0000000000LESEGO KAGISANO00000000000000000000000000000000000000000000000000000000000000000
1028226757110044676000000095228146762217820415100000030855000000000000BLIL.4004616471ULM3-0000000000MATSAPA MATSAPA00000000000000000000000000000000000000000000000000000000000000000
1028226757110044676000000095328146760721010332100000034204000000000000BLIL.4000344111ULM3-0000000000KELEBOGILE MOLE00000000000000000000000000000000000000000000000000000000000000000
1028226757110044676000000095428456762482856021100000021000000000000000BLIL.4006103913BMFW-0000000000SEELETSO REIKEL00000000000000000000000000000000000000000000000000000000000000000
1028226757110044676000000095528546762499942657100000037624000000000000BLIL.4003540288BMFW-0000000000SIBONANI NYATHI00000000000000000000000000000000000000000000000000000000000000000
1028226757110044676000000095628456762622504729100000009600000000000000BLIL.4005893021BMFW-0000000000KEMPHO NGONGORE00000000000000000000000000000000000000000000000000000000000000000
1028226757110044676000000095728506762087026615100000020500000000000000BLIL.4005427872ULM5-0000000000JOSHUA TAOLO   00000000000000000000000000000000000000000000000000000000000000000
1028226757110044676000000095828826762689888017100000012400000000000000BLIL.4006574675BMFW-0000000000KEDISALETSE MOS00000000000000000000000000000000000000000000000000000000000000000
1028226757110044676000000095928286762113224109100000030000000000000000BLIL.0000840032URA1-0000000000MONTLE B.C. NKO00000000000000000000000000000000000000000000000000000000000000000
1028226757110044676000000096028286762206841133100000035177000000000000BLIL.0000176075ULK6-0000000000SETSHWAELO BAEM00000000000000000000000000000000000000000000000000000000000000000
1028226757110044676000000096128246762258701921100000025500000000000000BLIL.0000118192URA1-0000000000BASADI DOREEN M00000000000000000000000000000000000000000000000000000000000000000
1028226757110044676000000096228166762525823135100000044353000000000000BLIL.0000810392BMFW-0000000000GOBONETSE K. RA00000000000000000000000000000000000000000000000000000000000000000
1028226757110044676000000096328176762312297270100000021300000000000000BLIL.4006772512BMFW-0000000000GALOAKETSE MOAL00000000000000000000000000000000000000000000000000000000000000000
1028226757110044676000000096428556762554069908100000022500000000000000BLIL.4006406501MFRA-0000000000LESEGO MASEKO  00000000000000000000000000000000000000000000000000000000000000000
1028226757110044676000000096528146762113017190100000047786000000000000BLIL.4004331104BMK1-0000000000LEUTLWETSE M TU00000000000000000000000000000000000000000000000000000000000000000
1028226757110044676000000096628876762656509159100000008900000000000000BLIL.4007000791BMFW-0000000000DIMPHO RAIYE   00000000000000000000000000000000000000000000000000000000000000000
1028226757110044676000000096728236762140824849100000022300000000000000BLIL.4005437930BMFW-0000000000KHANA GOUWE    00000000000000000000000000000000000000000000000000000000000000000
1028226757110044676000000096828146762132924433100000011550000000000000BLIL.4005950976BMFW-0000000000KEAMOGETSE PINI00000000000000000000000000000000000000000000000000000000000000000
1028226757110044676000000096928286762146596921100000036300000000000000BLIL.4004480244ULM5-0000000000LORRAINE LORATO00000000000000000000000000000000000000000000000000000000000000000
1028226757110044676000000097028196760736006756100000019162000000000000BLIL.0000709715BMFW-0000000000KEBONYE MHIKO  00000000000000000000000000000000000000000000000000000000000000000
1028226757110044676000000097128456762089556850100000054075000000000000BLIL.4007271035PSTA-0000000000KOPANO NTULUKI 00000000000000000000000000000000000000000000000000000000000000000
1028226757110044676000000097228146762111417269100000017742000000000000BLIL.4001153382BMFW-0000000000SETOKI NORRIS  00000000000000000000000000000000000000000000000000000000000000000
1028226757110044676000000097328186762208767288100000086777000000000000BLIL.4007102012PSTA-0000000000JOHANE GAOMODIM00000000000000000000000000000000000000000000000000000000000000000
1028226757110044676000000097428286762095764299100000052500000000000000BLIL.4006251617MFDS-0000000000OIKANYENG TLALA00000000000000000000000000000000000000000000000000000000000000000
1028226757110044676000000097528146762411644596100000013892000000000000BLIL.4002719514BMFW-0000000000KESEGO PRECIOUS00000000000000000000000000000000000000000000000000000000000000000
1028226757110044676000000097628286762153409828100000061105000000000000BLIL.4004891259URA1-0000000000BOTHO NKAWANA  00000000000000000000000000000000000000000000000000000000000000000
1028226757110044676000000097728186762361733382100000100491000000000000BLIL.4002932889ULM3-0000000000ELLEN TAWANA   00000000000000000000000000000000000000000000000000000000000000000
1028226757110044676000000097828456762759913538100000012000000000000000BLIL.4007206084BMFW-0000000000KABELO MONTSHO 00000000000000000000000000000000000000000000000000000000000000000
1028226757110044676000000097928126762667412648100000016300000000000000BLIL.4007110916BMFW-0000000000AGISANYANG SELE00000000000000000000000000000000000000000000000000000000000000000
1028226757110044676000000098028236762564590240100000033550000000000000BLIL.4006118893ULP1-0000000000MOTHUSI KETSHOL00000000000000000000000000000000000000000000000000000000000000000
1028226757110044676000000098128306762399104654100000030300000000000000BLIL.4007180624BMFW-0000000000PALESA BAIPHETH00000000000000000000000000000000000000000000000000000000000000000
1028226757110044676000000098228286762148068308100000050100000000000000BLIL.4006925307BMFW-0000000000GOFENYAONE LOLO00000000000000000000000000000000000000000000000000000000000000000
1028226757110044676000000098328166762062132180100000024918000000000000BLIL.4001545915ULM5-0000000000KGOMOTSO ODANAH00000000000000000000000000000000000000000000000000000000000000000
1028226757110044676000000098428146762378334743100000014641000000000000BLIL.4001952798URA1-0000000000TSHEPO MMUSI   00000000000000000000000000000000000000000000000000000000000000000
1028226757110044676000000098528456762180693098100000107500000000000000BLIL.04005159542PPLC0000000000DOLLA MAID CLEA00000000000000000000000000000000000000000000000000000000000000000
1028226757110044676000000098628236762472359366100000021525000000000000BLIL.4005006602URA1-0000000000KESITIGILE MOLO00000000000000000000000000000000000000000000000000000000000000000
1028226757110044676000000098728236762149299027100000016323000000000000BLIL.4002897128BMFW-0000000000MOSES MAEBA    00000000000000000000000000000000000000000000000000000000000000000
1028226757110044676000000098828286762086928820100000037100000000000000BLIL.4006763777BMFW-0000000000BADUBI BADUBI  00000000000000000000000000000000000000000000000000000000000000000
1028226757110044676000000098928126762056683397100000030751000000000000BLIL.4001775382BMFW-0000000000OMPHILE RAMASUK00000000000000000000000000000000000000000000000000000000000000000
1028226757110044676000000099028286762086962547100000034376000000000000BLIL.4002608440BMK1-0000000000TSHEPANG MASTER00000000000000000000000000000000000000000000000000000000000000000
1028226757110044676000000099128126762285675743100000020000000000000000BLIL.4006666147BMFW-0000000000BUDANI MBANGIWA00000000000000000000000000000000000000000000000000000000000000000
1028226757110044676000000099228286762087011517100000076629000000000000BLIL.4005669202PSTA-0000000000THATAYAONE E PU00000000000000000000000000000000000000000000000000000000000000000
1028226757110044676000000099328456762272049050100000024963000000000000BLIL.4000777687URA1-0000000000BOIKOBO MANTHA 00000000000000000000000000000000000000000000000000000000000000000
1028226757110044676000000099428506762278968585100000017234000000000000BLIL.4000467905BMFW-0000000000GAOLATLHE KGATH00000000000000000000000000000000000000000000000000000000000000000
1028226757110044676000000099528456762453799276100000015986000000000000BLIL.4004384911BMFW-0000000000PEARL LEBO KGOM00000000000000000000000000000000000000000000000000000000000000000
1028226757110044676000000099628286762150235010100000020101000000000000BLIL.4000061993BMFW-0000000000NONDUMISO NTULI00000000000000000000000000000000000000000000000000000000000000000
1028226757110044676000000099728556762359216093100000026673000000000000BLIL.4000283254BMFW-0000000000RONNIE QUIET   00000000000000000000000000000000000000000000000000000000000000000
1028226757110044676000000099828506762168134783100000050500000000000000BLIL.4005765755ULM3-0000000000KAMOGELO MOENG 00000000000000000000000000000000000000000000000000000000000000000
1028226757110044676000000099928526762645522089100000033550000000000000BLIL.4005839320ULP1-0000000000BOITUMELO RABAT00000000000000000000000000000000000000000000000000000000000000000
