1028226757110044676000000150128896762653570723100000161000000000000000BLIL.4005428975URA1-0000000000EDZANI OSUPILE 00000000000000000000000000000000000000000000000000000000000000000
1028226757110044676000000150228456762046800729100000019526000000000000BLIL.4000592809BMFW-0000000000MAITUMELO LUDO 00000000000000000000000000000000000000000000000000000000000000000
1028226757110044676000000150328316762477886207100000010500000000000000BLIL.4002545989ULM5-0000000000TOTANO MALALE  00000000000000000000000000000000000000000000000000000000000000000
1028226757110044676000000150428286762188428447100000016911000000000000BLIL.4001024311URA1-0000000000NTHABISENG K MA00000000000000000000000000000000000000000000000000000000000000000
1028226757110044676000000150528286762113782735100000058460000000000000BLIL.4003176950URA1-0000000000GOITSEONE HANDL00000000000000000000000000000000000000000000000000000000000000000
1028226757110044676000000150628306762264598453100000078505000000000000BLIL.4005760894PSTA-0000000000GOFAMODIMO OTHU00000000000000000000000000000000000000000000000000000000000000000
1028226757110044676000000150728286762113794574100000042200000000000000BLIL.4007273150BMFW-0000000000ISAIAH M NYAMBE00000000000000000000000000000000000000000000000000000000000000000
1028226757110044676000000150828556762323717473100000032500000000000000BLIL.4006866222MFRA-0000000000KEGAISITSE FELI00000000000000000000000000000000000000000000000000000000000000000
1028226757110044676000000150928526762165568696100000066617000000000000BLIL.4001586840ULM3-0000000000THABO GADZANI M00000000000000000000000000000000000000000000000000000000000000000
1028226757110044676000000151028176757140028179100000317131000000000000BLIL.4006250556PSWL-0000000000MOTSEI LESETEDI00000000000000000000000000000000000000000000000000000000000000000
1028226757110044676000000151128236762086054237100000011103000000000000BLIL.4000233429BMFW-0000000000MOTSHWARI MASWE00000000000000000000000000000000000000000000000000000000000000000
1028226757110044676000000151228566762638866220100000021300000000000000BLIL.4006817728BMFW-0000000000MOANOKENG CHABA00000000000000000000000000000000000000000000000000000000000000000
1028226757110044676000000151328516762728311333100000022300000000000000BLIL.4006161040BMFW-0000000000MUDONGO KAGISO 00000000000000000000000000000000000000000000000000000000000000000
1028226757110044676000000151428316762269737931100000024918000000000000BLIL.4001335976ULM3-0000000000NORMAN KEBAFENT00000000000000000000000000000000000000000000000000000000000000000
1028226757110044676000000151528286762146584893100000046750000000000000BLIL.4005299300MFDS-0000000000KENEETSWE KGOBE00000000000000000000000000000000000000000000000000000000000000000
1028226757110044676000000151628286762095764299100000023850000000000000BLIL.0000618613BMFW-0000000000OIKANYENG TLALA00000000000000000000000000000000000000000000000000000000000000000
1028226757110044676000000151728126762228930790100000012379000000000000BLIL.4000280939BMFW-0000000000GATWENG WINNIE 00000000000000000000000000000000000000000000000000000000000000000
1028226757110044676000000151828286762194830644100000028614000000000000BLIL.4000136920BMFW-0000000000KEFILWE KAONE M00000000000000000000000000000000000000000000000000000000000000000
1028226757110044676000000151928286762087004447100000039311000000000000BLIL.4000681381BMFW-0000000000KAMOGELO MOTSWA00000000000000000000000000000000000000000000000000000000000000000
1028226757110044676000000152028506762705451219100000025500000000000000BLIL.4006443408MFDS-0000000000ONTAETSE GAONYA00000000000000000000000000000000000000000000000000000000000000000
1028226757110044676000000152128286762561709901100000019900000000000000BLIL.4005774697BMFW-0000000000KEBABONYE RABAS00000000000000000000000000000000000000000000000000000000000000000
1028226757110044676000000152228526762631234060100000018700000000000000BLIL.4005171566BMFW-0000000000OABILE G SIKHOL00000000000000000000000000000000000000000000000000000000000000000
1028226757110044676000000152328146762105687092100000015300000000000000BLIL.4005647026BMFW-0000000000BOTSILE STEPHEN00000000000000000000000000000000000000000000000000000000000000000
1028226757110044676000000152428606762468617687100000050500000000000000BLIL.4006207236ULP1-0000000000TLHOPHO MOTLHAK00000000000000000000000000000000000000000000000000000000000000000
1028226757110044676000000152528286762235869049100000021300000000000000BLIL.4005973572BMFW-0000000000MOMPATI O TLHAN00000000000000000000000000000000000000000000000000000000000000000
1028226757110044676000000152628456762135629220100000027286000000000000BLIL.4003103032URA1-0000000000THATO CEDRIC LE00000000000000000000000000000000000000000000000000000000000000000
1028226757110044676000000152728286762213986295100000020500000000000000BLIL.0000201296ULK6-0000000000IREEN SUPANG RA00000000000000000000000000000000000000000000000000000000000000000
1028226757110044676000000152828506762330455082100000039050000000000000BLIL.4005696164ULM3-0000000000RACIOUS B MANOW00000000000000000000000000000000000000000000000000000000000000000
1028226757110044676000000152928536762308003318100000040170000000000000BLIL.4003876491BMFW-0000000000POTSO THEO MOKO00000000000000000000000000000000000000000000000000000000000000000
1028226757110044676000000153028286762234059964100000036120000000000000BLIL.4006032396BMFW-0000000000CHIDZANI SMARTS00000000000000000000000000000000000000000000000000000000000000000
1028226757110044676000000153128286762367466929100000022381000000000000BLIL.4004883062BMFW-0000000000FLORENCE POLLY 00000000000000000000000000000000000000000000000000000000000000000
1028226757110044676000000153228456762196016268100000014775000000000000BLIL.0000842220ULP1-0000000000TSHOGANETSO FEL00000000000000000000000000000000000000000000000000000000000000000
1028226757110044676000000153328316762606209783100000034894000000000000BLIL.4007121119PSTA-0000000000PHILLIP PHANDA 00000000000000000000000000000000000000000000000000000000000000000
1028226757110044676000000153428166762089916864100000048622000000000000BLIL.4001635980BMFW-0000000000LEBOGANG SOPHIE00000000000000000000000000000000000000000000000000000000000000000
1028226757110044676000000153528236762024981757100000010593000000000000BLIL.4000983305BMFW-0000000000MPHAREKE TUELO 00000000000000000000000000000000000000000000000000000000000000000
1028226757110044676000000153628126762455972154100000020000000000000000BLIL.4006699398MFRA-0000000000EGOLO BAITUMETS00000000000000000000000000000000000000000000000000000000000000000
1028226757110044676000000153728526762566296193100000025500000000000000BLIL.4006359691ULM5-0000000000KATLEGO THOKAIN00000000000000000000000000000000000000000000000000000000000000000
1028226757110044676000000153828286762279723144100000022500000000000000BLIL.4006732502MFDS-0000000000BRIGHT CHAKABIP00000000000000000000000000000000000000000000000000000000000000000
1028226757110044676000000153928186762559787290100000021525000000000000BLIL.4006173037URA1-0000000000ORATILE KELESIT00000000000000000000000000000000000000000000000000000000000000000
1028226757110044676000000154028456762432407759100000032100000000000000BLIL.4006614310BMFW-0000000000GAOLATLHE RAMON00000000000000000000000000000000000000000000000000000000000000000
1028226757110044676000000154128146762427512117100000035653000000000000BLIL.4007294534PSTA-0000000000LUCRECIA SEGATL00000000000000000000000000000000000000000000000000000000000000000
1028226757110044676000000154228186762181224751100000025597000000000000BLIL.4007248517PSTA-0000000000OGANNE MOTLHANK00000000000000000000000000000000000000000000000000000000000000000
1028226757110044676000000154328146762395375861100000031310000000000000BLIL.4004224026BMFW-0000000000PATIENCE BASONO00000000000000000000000000000000000000000000000000000000000000000
1028226757110044676000000154428146762312320120100000044625000000000000BLIL.4006189816MFRA-0000000000MPHO MAGDELENE 00000000000000000000000000000000000000000000000000000000000000000
1028226757110044676000000154528186762499503714100000038000000000000000BLIL.04003756736LORE0000000000ITUMELENG MAROP00000000000000000000000000000000000000000000000000000000000000000
1028226757110044676000000154628286762194829001100000026570000000000000BLIL.4004634831BMFW-0000000000PRINCE MOTSHWAR00000000000000000000000000000000000000000000000000000000000000000
1028226757110044676000000154728146762473629833100000012155000000000000BLIL.4002702810ULP1-0000000000MMAMONENE MOOKE00000000000000000000000000000000000000000000000000000000000000000
1028226757110044676000000154828526762768932967100000011566000000000000BLIL.4004137643BMKS-0000000000SHANGANANI AMOS00000000000000000000000000000000000000000000000000000000000000000
1028226757110044676000000154928186762342922748100000010474000000000000BLIL.4005010853BMFW-0000000000GOFAONE SEBANGA00000000000000000000000000000000000000000000000000000000000000000
1028226757110044676000000155028286762113783618100000110550000000000000BLIL.4005652825ULMG-0000000000YAME TSHEPO KEB00000000000000000000000000000000000000000000000000000000000000000
1028226757110044676000000155128236762590539543100000018900000000000000BLIL.4006456344BMFW-0000000000THATAYOTLHE GOI00000000000000000000000000000000000000000000000000000000000000000
1028226757110044676000000155228146762257100893100000009923000000000000BLIL.4004332207BMFW-0000000000MOREKOLODI SETS00000000000000000000000000000000000000000000000000000000000000000
1028226757110044676000000155328126762307802266100000017000000000000000BLIL.4005986727BMFW-0000000000ONALENNA KEOREN00000000000000000000000000000000000000000000000000000000000000000
1028226757110044676000000155428286762486852455100000027800000000000000BLIL.4006667606BMFW-0000000000TABOKA JAKU    00000000000000000000000000000000000000000000000000000000000000000
1028226757110044676000000155528126762686292724100000022500000000000000BLIL.4007078499MFRA-0000000000THABILE MOREKWE00000000000000000000000000000000000000000000000000000000000000000
1028226757110044676000000155628166762636013104100000058891000000000000BLIL.4006853768PSTA-0000000000JAYA AARON MOKG00000000000000000000000000000000000000000000000000000000000000000
1028226757110044676000000155728286762148074206100000121000000000000000BLIL.4001642074ULMG-0000000000EMMANUEL LEKGOW00000000000000000000000000000000000000000000000000000000000000000
1028226757110044676000000155828546762203084059100000217743000000000000BLIL.4004993114PSTA-0000000000NONOFO KEAIKITS00000000000000000000000000000000000000000000000000000000000000000
1028226757110044676000000155928186762499001502100000062100000000000000BLIL.4006770358BMFW-0000000000TAWANDA KITSI  00000000000000000000000000000000000000000000000000000000000000000
1028226757110044676000000156028456762474290013100000012900000000000000BLIL.4006499695BMFW-0000000000LAONE WALTER RA00000000000000000000000000000000000000000000000000000000000000000
1028226757110044676000000156128166762281564239100000020000000000000000BLIL.4006584911MFRA-0000000000TEBOGO S MOTLHA00000000000000000000000000000000000000000000000000000000000000000
1028226757110044676000000156228286762367285379100000028442000000000000BLIL.4002516889BMFW-0000000000SEKGABO PHOLE  00000000000000000000000000000000000000000000000000000000000000000
1028226757110044676000000156328146762423961128100000024739000000000000BLIL.4007273192PSTA-0000000000TSHWANELO JIMMY00000000000000000000000000000000000000000000000000000000000000000
1028226757110044676000000156428146762449146853100000050298000000000000BLIL.4006035653PSTA-0000000000WEDU SAMANTHA T00000000000000000000000000000000000000000000000000000000000000000
1028226757110044676000000156528456762313865240100000030500000000000000BLIL.4005695582URA1-0000000000KATLEGO MOGOROS00000000000000000000000000000000000000000000000000000000000000000
1028226757110044676000000156628186762488319106100000063677000000000000BLIL.4005171582PSTA-0000000000KETSHEPILE R PH00000000000000000000000000000000000000000000000000000000000000000
1028226757110044676000000156728166762359043363100000030502000000000000BLIL.4000241307BMFW-0000000000TEBOGO SAAKANE 00000000000000000000000000000000000000000000000000000000000000000
1028226757110044676000000156828166762292882498100000022601000000000000BLIL.4005081923URA1-0000000000BAFUMI PAPANI  00000000000000000000000000000000000000000000000000000000000000000
1028226757110044676000000156928286762171890306100000020500000000000000BLIL.4002571285ULP1-0000000000MOSIMANEGAPE RA00000000000000000000000000000000000000000000000000000000000000000
1028226757110044676000000157028456762030177902100000069285000000000000BLIL.0000768026BMFW-0000000000MALEBOGO GOEPAM00000000000000000000000000000000000000000000000000000000000000000
1028226757110044676000000157128286762351767482100000020500000000000000BLIL.4005618366ULM3-0000000000BAJAKI TSAONE M00000000000000000000000000000000000000000000000000000000000000000
1028226757110044676000000157228236762250217934100000019500000000000000BLIL.4006719095BMFW-0000000000SOPHIE KEBONYEW00000000000000000000000000000000000000000000000000000000000000000
1028226757110044676000000157328456762345228698100000033626000000000000BLIL.4004127844ULM3-0000000000CHRISTOPHER BAK00000000000000000000000000000000000000000000000000000000000000000
1028226757110044676000000157428286762073974761100000031600000000000000BLIL.04005082644MPFP0000000000PATRICK LEBOGAN00000000000000000000000000000000000000000000000000000000000000000
1028226757110044676000000157528186762173210403100000031100000000000000BLIL.4007159467BMFW-0000000000FREE KAISARA   00000000000000000000000000000000000000000000000000000000000000000
1028226757110044676000000157628186762144449635100000100000000000000000BLIL.4001615544URAG-0000000000GLENN MATSON NE00000000000000000000000000000000000000000000000000000000000000000
1028226757110044676000000157728286762144593763100000028335000000000000BLIL.4004026579BMFW-0000000000GOIRILWEMANG MO00000000000000000000000000000000000000000000000000000000000000000
1028226757110044676000000157828556762355766290100000022864000000000000BLIL.4004547880URA1-0000000000LEMOGANG BONGAN00000000000000000000000000000000000000000000000000000000000000000
1028226757110044676000000157928456762260811578100000053544000000000000BLIL.4006531120PSTA-0000000000MODISE MICHAEL 00000000000000000000000000000000000000000000000000000000000000000
1028226757110044676000000158028146762645548762100000050000000000000000BLIL.4005456435MFRA-0000000000PETER FANA MAGO00000000000000000000000000000000000000000000000000000000000000000
1028226757110044676000000158128556762485806677100000021525000000000000BLIL.4005833285URA1-0000000000ONKAMOGETSE JAN00000000000000000000000000000000000000000000000000000000000000000
1028226757110044676000000158228456762054985414100000021525000000000000BLIL.4005591285URA1-0000000000MOTHOBI MOTHOBI00000000000000000000000000000000000000000000000000000000000000000
1028226757110044676000000158328826762431557448100000020900000000000000BLIL.4006661888BMFW-0000000000BUNA SEBABI    00000000000000000000000000000000000000000000000000000000000000000
1028226757110044676000000158428506762703202565100000025000000000000000BLIL.4006770950MFDS-0000000000SEABO MUGEZELA 00000000000000000000000000000000000000000000000000000000000000000
1028226757110044676000000158528126762324278937100000019796000000000000BLIL.4003129709BMFW-0000000000MAIPELO NTSWETS00000000000000000000000000000000000000000000000000000000000000000
1028226757110044676000000158628286762372781734100000022601000000000000BLIL.4004130926ULM5-0000000000THABISO SHATISO00000000000000000000000000000000000000000000000000000000000000000
1028226757110044676000000158728566762249089154100000030000000000000000BLIL.4004382333ULM3-0000000000MESINYANA TUDUE00000000000000000000000000000000000000000000000000000000000000000
1028226757110044676000000158828126762251675553100000022500000000000000BLIL.4006924822MFDS-0000000000NOMSA ONALETHAT00000000000000000000000000000000000000000000000000000000000000000
1028226757110044676000000158928456762285153567100000018700000000000000BLIL.4005430459BMFW-0000000000GOMOLEMO MOKGWE00000000000000000000000000000000000000000000000000000000000000000
1028226757110044676000000159028126762106123821100000027379000000000000BLIL.4000010879URA1-0000000000TSHIAMO RAMATOA00000000000000000000000000000000000000000000000000000000000000000
1028226757110044676000000159128236762732070058100000022500000000000000BLIL.4006530221MFDS-0000000000BOKAMOSO MARITI00000000000000000000000000000000000000000000000000000000000000000
1028226757110044676000000159228146762413771636100000041327000000000000BLIL.4003018130BMFW-0000000000KEAMOGETSE F MA00000000000000000000000000000000000000000000000000000000000000000
1028226757110044676000000159328236762186854719100000017700000000000000BLIL.4006946197BMFW-0000000000KAGISO MOYEI   00000000000000000000000000000000000000000000000000000000000000000
1028226757110044676000000159428506762455651432100000011025000000000000BLIL.4005120434BMFW-0000000000LENTEKANE KELEB00000000000000000000000000000000000000000000000000000000000000000
1028226757110044676000000159528146762217820415100000016868000000000000BLIL.4004616235BMFW-0000000000MATSAPA MATSAPA00000000000000000000000000000000000000000000000000000000000000000
1028226757110044676000000159628896762758469607100000026500000000000000BLIL.4006871843BMFW-0000000000OLEBOGENG TEBOG00000000000000000000000000000000000000000000000000000000000000000
1028226757110044676000000159728306762357841206100000025300000000000000BLIL.4006603955BMFW-0000000000EMMA GLORIA DIP00000000000000000000000000000000000000000000000000000000000000000
1028226757110044676000000159828536762143015685100000022500000000000000BLIL.4007234293MFDS-0000000000ONTHUMOTSE KOBO00000000000000000000000000000000000000000000000000000000000000000
1028226757110044676000000159928126762551534805100000017640000000000000BLIL.4004317201BMFW-0000000000DITHUSO EMMANUE00000000000000000000000000000000000000000000000000000000000000000
1028226757110044676000000160028546762099738753100000109110000000000000BLIL.4005831348PSTA-0000000000MOSIMANEGAPE O 00000000000000000000000000000000000000000000000000000000000000000
1028226757110044676000000160128166762375388553100000038200000000000000BLIL.04005202880LORE0000000000MARGARET TOTENG00000000000000000000000000000000000000000000000000000000000000000
1028226757110044676000000160228556762230985684100000024817000000000000BLIL.4000902923URA1-0000000000ELIZABETH WATIP00000000000000000000000000000000000000000000000000000000000000000
1028226757110044676000000160328286762086931659100000039981000000000000BLIL.4005083721PSTA-0000000000LAKIDZANE TIRO 00000000000000000000000000000000000000000000000000000000000000000
1028226757110044676000000160428286762537755805100000022700000000000000BLIL.4007007604BMFW-0000000000KELEBOGILE VERO00000000000000000000000000000000000000000000000000000000000000000
1028226757110044676000000160528606762413355886100000026775000000000000BLIL.4005620206ULM3-0000000000ISAAC SAUL     00000000000000000000000000000000000000000000000000000000000000000
1028226757110044676000000160628146762400116746100000034178000000000000BLIL.4004637952BMFW-0000000000NTHUSANG NTHUSA00000000000000000000000000000000000000000000000000000000000000000
1028226757110044676000000160728166757130024088100000030500000000000000BLIL.4000009896ULMG-0000000000KHOSA MOLEBOGI 00000000000000000000000000000000000000000000000000000000000000000
1028226757110044676000000160828516762605508003100000016300000000000000BLIL.4006659100BMFW-0000000000LAME EMMANUEL K00000000000000000000000000000000000000000000000000000000000000000
1028226757110044676000000160928236762750703938100000010100000000000000BLIL.4006772774BMFW-0000000000MORERI JOE AMOS00000000000000000000000000000000000000000000000000000000000000000
1028226757110044676000000161028556762371139215100000040005000000000000BLIL.4006189913BMFW-0000000000BENJAMIN MMOLAW00000000000000000000000000000000000000000000000000000000000000000
1028226757110044676000000161128456762556306481100000050000000000000000BLIL.4006517421MFDS-0000000000IKAGENG MASIE  00000000000000000000000000000000000000000000000000000000000000000
1028226757110044676000000161228146762623025310100000031700000000000000BLIL.4005902088BMFW-0000000000KELEBOGILE SIMO00000000000000000000000000000000000000000000000000000000000000000
1028226757110044676000000161328456762127173524100000082500000000000000BLIL.4006369628MFDS-0000000000NLAMBIWA LUDO B00000000000000000000000000000000000000000000000000000000000000000
1028226757110044676000000161428456762285153567100000055550000000000000BLIL.4005431950ULMG-0000000000GOMOLEMO MOKGWE00000000000000000000000000000000000000000000000000000000000000000
1028226757110044676000000161528286762007944326100000034200000000000000BLIL.4006816845BMFW-0000000000KNOWLEDGE MADOD00000000000000000000000000000000000000000000000000000000000000000
1028226757110044676000000161628286762194831395100000032000000000000000BLIL.4005789315BMFW-0000000000BOTHO LEKOKO   00000000000000000000000000000000000000000000000000000000000000000
1028226757110044676000000161728566762502142300100000036236000000000000BLIL.4003383739BMFW-0000000000BAEMEDI SEPORA 00000000000000000000000000000000000000000000000000000000000000000
1028226757110044676000000161828286762189991138100000024805000000000000BLIL.4004182614ULP1-0000000000STELLAH TLHAGE 00000000000000000000000000000000000000000000000000000000000000000
1028226757110044676000000161928146762641704764100000092709000000000000BLIL.4004963783PSTA-0000000000AMOGELANG THEMB00000000000000000000000000000000000000000000000000000000000000000
1028226757110044676000000162028556762249279002100000014500000000000000BLIL.4005616623BMFW-0000000000GAOTHOBOGWE GAB00000000000000000000000000000000000000000000000000000000000000000
1028226757110044676000000162128146762396141005100000021001000000000000BLIL.4001858807BMFW-0000000000OREBOTSE SITWAN00000000000000000000000000000000000000000000000000000000000000000
1028226757110044676000000162228506762264275225100000025500000000000000BLIL.4005814007ULP1-0000000000THALOSANG KETLH00000000000000000000000000000000000000000000000000000000000000000
1028226757110044676000000162328286762192739418100000021515000000000000BLIL.4001891687BMFW-0000000000BOKANG RAMOTSWA00000000000000000000000000000000000000000000000000000000000000000
1028226757110044676000000162428286762474469486100000050000000000000000BLIL.4003821860ULM3-0000000000MONTY CARLOS SI00000000000000000000000000000000000000000000000000000000000000000
1028226757110044676000000162528316762269737931100000121000000000000000BLIL.4004709591URA1-0000000000NORMAN KEBAFENT00000000000000000000000000000000000000000000000000000000000000000
1028226757110044676000000162628196762305532302100000030500000000000000BLIL.4002806947ULP1-0000000000TSHEPISO VINCEN00000000000000000000000000000000000000000000000000000000000000000
1028226757110044676000000162728286762276557611100000027600000000000000BLIL.04005034609MPFP0000000000ORAPETSWE VINCE00000000000000000000000000000000000000000000000000000000000000000
1028226757110044676000000162828526762521770835100000017300000000000000BLIL.4005395235BMFW-0000000000BOITSHWARELO TL00000000000000000000000000000000000000000000000000000000000000000
1028226757110044676000000162928516762691500641100000017535000000000000BLIL.4005885868BMFW-0000000000GAOPALELWE EQUA00000000000000000000000000000000000000000000000000000000000000000
1028226757110044676000000163028286762140670515100000022081000000000000BLIL.4000860707BMFW-0000000000KEOLOPILE DIRAM00000000000000000000000000000000000000000000000000000000000000000
1028226757110044676000000163128286762502897731100000027286000000000000BLIL.4001442020ULP1-0000000000KETLHAPILE MOKG00000000000000000000000000000000000000000000000000000000000000000
1028226757110044676000000163228516762119078097100000017261000000000000BLIL.4001987268BMFW-0000000000FRANK CHIKOSI  00000000000000000000000000000000000000000000000000000000000000000
1028226757110044676000000163328286762373586274100000036700000000000000BLIL.4006315051BMFW-0000000000PHALANA OSHI MO00000000000000000000000000000000000000000000000000000000000000000
1028226757110044676000000163428456762597122672100000028665000000000000BLIL.4004882503BMFW-0000000000TEBATSO THABO S00000000000000000000000000000000000000000000000000000000000000000
1028226757110044676000000163528456762420726773100000038534000000000000BLIL.4005139685PSTA-0000000000TUDUETSO ITUMEL00000000000000000000000000000000000000000000000000000000000000000
1028226757110044676000000163628286762194829001100000050282000000000000BLIL.4004988488PSTA-0000000000PRINCE MOTSHWAR00000000000000000000000000000000000000000000000000000000000000000
1028226757110044676000000163728146762312320120100000010000000000000000BLIL.0000184204URA1-0000000000MPHO MAGDELENE 00000000000000000000000000000000000000000000000000000000000000000
1028226757110044676000000163828286762126364801100000058460000000000000BLIL.4003210398URA1-0000000000ADELINE KEHELET00000000000000000000000000000000000000000000000000000000000000000
1028226757110044676000000163928286762146584893100000035307000000000000BLIL.4003834510URA1-0000000000KENEETSWE KGOBE00000000000000000000000000000000000000000000000000000000000000000
1028226757110044676000000164028146762255738290100000023484000000000000BLIL.4004411419BMFW-0000000000GABORATANELWE M00000000000000000000000000000000000000000000000000000000000000000
1028226757110044676000000164128286762085813478100000012100000000000000BLIL.4006011661BMFW-0000000000MMAJALWA THOPHE00000000000000000000000000000000000000000000000000000000000000000
1028226757110044676000000164228286762146586386100000023731000000000000BLIL.4003971320ULM5-0000000000TIDIMALO MAGOSI00000000000000000000000000000000000000000000000000000000000000000
1028226757110044676000000164328146762678133473100000096828000000000000BLIL.4006933489PSTA-0000000000MPHO TREVOR MAT00000000000000000000000000000000000000000000000000000000000000000
1028226757110044676000000164428546762378305900100000188927000000000000BLIL.4006642375PSWL-0000000000CHILILO KULA   00000000000000000000000000000000000000000000000000000000000000000
1028226757110044676000000164528556762410412142100000031907000000000000BLIL.4001284680BMFW-0000000000ERIC PELANE    00000000000000000000000000000000000000000000000000000000000000000
1028226757110044676000000164628146762409499474100000027800000000000000BLIL.4007022422BMFW-0000000000EMMANUEL MALATE00000000000000000000000000000000000000000000000000000000000000000
1028226757110044676000000164728286762133219221100000022500000000000000BLIL.4007071374BMFW-0000000000SEDIMO KUBUYA  00000000000000000000000000000000000000000000000000000000000000000
1028226757110044676000000164828236762410410790100000017943000000000000BLIL.4003253013URA1-0000000000ODUETSE RADIBAB00000000000000000000000000000000000000000000000000000000000000000
1028226757110044676000000164928286762133128307100000052500000000000000BLIL.4006592572MFRA-0000000000MOTHUSI SETSWAL00000000000000000000000000000000000000000000000000000000000000000
1028226757110044676000000165028236762184558743100000019425000000000000BLIL.4005721856BMFW-0000000000AGNES MOTSWAGOL00000000000000000000000000000000000000000000000000000000000000000
1028226757110044676000000165128826762471817795100000025100000000000000BLIL.4006215075BMFW-0000000000ONKARABILE KEOR00000000000000000000000000000000000000000000000000000000000000000
1028226757110044676000000165228566762699152494100000016905000000000000BLIL.4006047226BMFW-0000000000MOATLAPEDI BAGO00000000000000000000000000000000000000000000000000000000000000000
1028226757110044676000000165328306762285059385100000021800000000000000BLIL.4006953875BMFW-0000000000MPHO SEBOJANE  00000000000000000000000000000000000000000000000000000000000000000
1028226757110044676000000165428166762715526474100000081990000000000000BLIL.4002253104ULMG-0000000000LAURENCE MOLOSI00000000000000000000000000000000000000000000000000000000000000000
1028226757110044676000000165528516762400413267100000029988000000000000BLIL.4004048292BMFW-0000000000KABELO JENAMO  00000000000000000000000000000000000000000000000000000000000000000
1028226757110044676000000165628286762192757121100000025500000000000000BLIL.4004226125ULM3-0000000000KEITUMETSE DUDU00000000000000000000000000000000000000000000000000000000000000000
1028226757110044676000000165728456762482856021100000062655000000000000BLIL.4006104228PSTA-0000000000SEELETSO REIKEL00000000000000000000000000000000000000000000000000000000000000000
1028226757110044676000000165828236762417140506100000011100000000000000BLIL.4006452683BMFW-0000000000FLORENCE SHALES00000000000000000000000000000000000000000000000000000000000000000
1028226757110044676000000165928286762227927102100000020900000000000000BLIL.4007082755BMFW-0000000000LEKEDZANI UTLWA00000000000000000000000000000000000000000000000000000000000000000
1028226757110044676000000166028286762368328334100000046750000000000000BLIL.4005605763MFDS-0000000000NAKOENTLE FAITH00000000000000000000000000000000000000000000000000000000000000000
1028226757110044676000000166128146762351999241100000032545000000000000BLIL.4000964436BMFW-0000000000GAOPELO NTSHOLE00000000000000000000000000000000000000000000000000000000000000000
1028226757110044676000000166228286762489486996100000030100000000000000BLIL.4005983397BMFW-0000000000TSHEPO RACHEL S00000000000000000000000000000000000000000000000000000000000000000
1028226757110044676000000166328286762188418399100000040786000000000000BLIL.4004697879PSTA-0000000000DITIRO OHLSON S00000000000000000000000000000000000000000000000000000000000000000
1028226757110044676000000166428146762202073871100000023704000000000000BLIL.4004395211BMFW-0000000000TSHEGOFATSO RAT00000000000000000000000000000000000000000000000000000000000000000
1028226757110044676000000166528236762692674817100000020500000000000000BLIL.4006119459ULP1-0000000000GAOGANEBATHO DI00000000000000000000000000000000000000000000000000000000000000000
1028226757110044676000000166628286762086940478100000052376000000000000BLIL.0000313439BMFW-0000000000GAOPALELWE LOLO00000000000000000000000000000000000000000000000000000000000000000
1028226757110044676000000166728126762340831149100000044651000000000000BLIL.4004041088URA1-0000000000BOAGO CAROLINE 00000000000000000000000000000000000000000000000000000000000000000
1028226757110044676000000166828286762087020170100000060000000000000000BLIL.04004603195LORE0000000000GAUFELA TSAONE 00000000000000000000000000000000000000000000000000000000000000000
1028226757110044676000000166928306762431298498100000019700000000000000BLIL.4006735966BMFW-0000000000KARABO DIPATI  00000000000000000000000000000000000000000000000000000000000000000
1028226757110044676000000167028286762476873172100000210000000000000000BLIL.4005922822URAG-0000000000BAKANG FERDINAN00000000000000000000000000000000000000000000000000000000000000000
1028226757110044676000000167128236762760311458100000022500000000000000BLIL.4007018831MFDS-0000000000GOTSOGAMANG GAL00000000000000000000000000000000000000000000000000000000000000000
1028226757110044676000000167228606762454764260100000030000000000000000BLIL.4007248313MFDS-0000000000KGOSI GOROSHO  00000000000000000000000000000000000000000000000000000000000000000
1028226757110044676000000167328286762190767180100000010500000000000000BLIL.4002536762ULP1-0000000000KENTSHITSWE JAM00000000000000000000000000000000000000000000000000000000000000000
1028226757110044676000000167428236762044228402100000024805000000000000BLIL.4004244713ULP1-0000000000KEPEO PHATHI   00000000000000000000000000000000000000000000000000000000000000000
1028226757110044676000000167528876762048328878100000058000000000000000BLIL.4005812966BMFW-0000000000KENNEDY BROWN T00000000000000000000000000000000000000000000000000000000000000000
1028226757110044676000000167628186762029244225100000013100000000000000BLIL.4006550691BMFW-0000000000MERAPELO SETABO00000000000000000000000000000000000000000000000000000000000000000
1028226757110044676000000167728506762185274520100000022900000000000000BLIL.4006673469BMFW-0000000000MONTSHEKI OMPHI00000000000000000000000000000000000000000000000000000000000000000
1028226757110044676000000167828286762189459946100000023700000000000000BLIL.4007093550BMFW-0000000000TLHOPHO BONIFAC00000000000000000000000000000000000000000000000000000000000000000
1028226757110044676000000167928186762405752686100000011235000000000000BLIL.4004313168BMFW-0000000000FRANK MULEYA   00000000000000000000000000000000000000000000000000000000000000000
1028226757110044676000000168028166762369318029100000012100000000000000BLIL.4006657001BMFW-0000000000RUTH CHUMA     00000000000000000000000000000000000000000000000000000000000000000
1028226757110044676000000168128456762659730933100000078242000000000000BLIL.4001340301BMKS-0000000000ONKABETSE MONTS00000000000000000000000000000000000000000000000000000000000000000
1028226757110044676000000168228126762290126575100000015558000000000000BLIL.4002267703BMFW-0000000000LISA ANTHIA TLH00000000000000000000000000000000000000000000000000000000000000000
1028226757110044676000000168328126762441554822100000016785000000000000BLIL.4003232972BMFW-0000000000NAMETSO M SERAK00000000000000000000000000000000000000000000000000000000000000000
1028226757110044676000000168428286762234061357100000050500000000000000BLIL.4003995346ULP1-0000000000KEOTSHEPILE NTA00000000000000000000000000000000000000000000000000000000000000000
1028226757110044676000000168528286762479929922100000014100000000000000BLIL.4006922561BMFW-0000000000KARABO BONOLO S00000000000000000000000000000000000000000000000000000000000000000
1028226757110044676000000168628556762237547239100000031900000000000000BLIL.4006844509BMFW-0000000000LEUNGO CHINIMBA00000000000000000000000000000000000000000000000000000000000000000
1028226757110044676000000168728506762168134783100000025000000000000000BLIL.4007267410MFDS-0000000000KAMOGELO MOENG 00000000000000000000000000000000000000000000000000000000000000000
1028226757110044676000000168828286762372452054100000069355000000000000BLIL.4006743501PSWL-0000000000GRACIOUS O REET00000000000000000000000000000000000000000000000000000000000000000
1028226757110044676000000168928506762202636299100000027286000000000000BLIL.4003294964ULP1-0000000000LOSIKA HOLLY MO00000000000000000000000000000000000000000000000000000000000000000
1028226757110044676000000169028306762328533874100000078191000000000000BLIL.4006713853PSTA-0000000000CHOMI KEROMILWE00000000000000000000000000000000000000000000000000000000000000000
1028226757110044676000000169128526762127210756100000019955000000000000BLIL.4004210825BMFW-0000000000ONALENNA KELEBO00000000000000000000000000000000000000000000000000000000000000000
1028226757110044676000000169228236757201156835100000019170000000000000BLIL.0000812027BMFW-0000000000TLHOKOMELANG SE00000000000000000000000000000000000000000000000000000000000000000
1028226757110044676000000169328146762398735624100000024000000000000000BLIL.4005832124BMFW-0000000000KAGO MARUMOLOA 00000000000000000000000000000000000000000000000000000000000000000
1028226757110044676000000169428286762350173698100000033100000000000000BLIL.4007096516BMFW-0000000000KENEILWE CALIST00000000000000000000000000000000000000000000000000000000000000000
1028226757110044676000000169528126762056706975100000050169000000000000BLIL.4005281430PSTA-0000000000MOSETSANAGAPE M00000000000000000000000000000000000000000000000000000000000000000
1028226757110044676000000169628456762355344400100000020500000000000000BLIL.4005922929BMFW-0000000000NORAH JULIE-ANN00000000000000000000000000000000000000000000000000000000000000000
1028226757110044676000000169728236762736175937100000026100000000000000BLIL.4006858247BMFW-0000000000KERILENG KGOWEN00000000000000000000000000000000000000000000000000000000000000000
1028226757110044676000000169828146762279825966100000015000000000000000BLIL.4002571243ULP1-0000000000TABOKA CHIKOPO 00000000000000000000000000000000000000000000000000000000000000000
1028226757110044676000000169928826762619596804100000020500000000000000BLIL.4006703559BMFW-0000000000NAMETSO MATLHAG00000000000000000000000000000000000000000000000000000000000000000
1028226757110044676000000170028286762189476065100000033626000000000000BLIL.4004841408ULP1-0000000000ONALETHATA POTS00000000000000000000000000000000000000000000000000000000000000000
1028226757110044676000000170128306762629725518100000020300000000000000BLIL.4006735843BMFW-0000000000NINIVER OLIVER 00000000000000000000000000000000000000000000000000000000000000000
1028226757110044676000000170228526762224276130100000018355000000000000BLIL.4002318439BMFW-0000000000MOTHUSI TIKOLOG00000000000000000000000000000000000000000000000000000000000000000
1028226757110044676000000170328236762212299475100000010500000000000000BLIL.4002852257ULM5-0000000000GLADYS DITLADI 00000000000000000000000000000000000000000000000000000000000000000
1028226757110044676000000170428186762451933313100000021900000000000000BLIL.4006917827BMFW-0000000000LYDIA BABUTSI  00000000000000000000000000000000000000000000000000000000000000000
1028226757110044676000000170528456762473300996100000021525000000000000BLIL.4005466991ULP1-0000000000KGOTLAYAME SEBE00000000000000000000000000000000000000000000000000000000000000000
1028226757110044676000000170628166762292882498100000024927000000000000BLIL.4002870324BMFW-0000000000BAFUMI PAPANI  00000000000000000000000000000000000000000000000000000000000000000
1028226757110044676000000170728526762622876847100000024255000000000000BLIL.4004938899BMFW-0000000000DUMISANI FUNEKI00000000000000000000000000000000000000000000000000000000000000000
1028226757110044676000000170828196762617804168100000021450000000000000BLIL.4006563773PSTA-0000000000JOHN JANE      00000000000000000000000000000000000000000000000000000000000000000
1028226757110044676000000170928556762000343351100000030015000000000000BLIL.4002579982URA1-0000000000MODISAOTSILE J 00000000000000000000000000000000000000000000000000000000000000000
1028226757110044676000000171028286762229703170100000066359000000000000BLIL.4007075166PSTA-0000000000BAKANI MASUKU  00000000000000000000000000000000000000000000000000000000000000000
1028226757110044676000000171128186762245027520100000020500000000000000BLIL.4004455619ULP1-0000000000TSHOTLEGO KHILA00000000000000000000000000000000000000000000000000000000000000000
1028226757110044676000000171228186762060570978100000015500000000000000BLIL.4006849460BMFW-0000000000BONANG MONYATSI00000000000000000000000000000000000000000000000000000000000000000
1028226757110044676000000171328236762505435661100000027700000000000000BLIL.4006962369BMFW-0000000000BOIPELO MOLEFE 00000000000000000000000000000000000000000000000000000000000000000
1028226757110044676000000171428516762254692877100000050000000000000000BLIL.4006989210MFDS-0000000000UYAPO CHABALE  00000000000000000000000000000000000000000000000000000000000000000
1028226757110044676000000171528236762361732847100000043990000000000000BLIL.4003951918BMFW-0000000000IPELENG RASEBEK00000000000000000000000000000000000000000000000000000000000000000
1028226757110044676000000171628196762122232060100000055676000000000000BLIL.4004604874URA1-0000000000JUDA BOGOPA    00000000000000000000000000000000000000000000000000000000000000000
1028226757110044676000000171728126762348225211100000068011000000000000BLIL.4005662462PSTA-0000000000MARTINA TSHIREL00000000000000000000000000000000000000000000000000000000000000000
1028226757110044676000000171828146762094994186100000081111000000000000BLIL.4007077972PSTA-0000000000PHATSIMO T COLL00000000000000000000000000000000000000000000000000000000000000000
1028226757110044676000000171928826762723680345100000026200000000000000BLIL.4007302430BMFW-0000000000PAULINE KENAOPE00000000000000000000000000000000000000000000000000000000000000000
1028226757110044676000000172028546762563486226100000050500000000000000BLIL.4005704002URA1-0000000000MPHO MPHENGULA 00000000000000000000000000000000000000000000000000000000000000000
1028226757110044676000000172128126762225108499100000044656000000000000BLIL.4001713992URA1-0000000000ONKEMETSE RATLO00000000000000000000000000000000000000000000000000000000000000000
1028226757110044676000000172228196757160047555100000022114000000000000BLIL.0000723846BMFW-0000000000STEPHEN JOSEPH 00000000000000000000000000000000000000000000000000000000000000000
1028226757110044676000000172328306762152506857100000012763000000000000BLIL.4000479340URA1-0000000000SAKAREA RAMOLEF00000000000000000000000000000000000000000000000000000000000000000
1028226757110044676000000172428186762139652607100000022854000000000000BLIL.0000250211BMFW-0000000000BOWELO NDOLE   00000000000000000000000000000000000000000000000000000000000000000
1028226757110044676000000172528526762369687804100000033017000000000000BLIL.4000734912URA1-0000000000KEOTSHEPILE MME00000000000000000000000000000000000000000000000000000000000000000
1028226757110044676000000172628306762241698276100000033285000000000000BLIL.4004988161BMFW-0000000000DIKONKETSO JOHN00000000000000000000000000000000000000000000000000000000000000000
1028226757110044676000000172728286762154690137100000094051000000000000BLIL.4000751994URA1-0000000000CHANDAPIWA MAKO00000000000000000000000000000000000000000000000000000000000000000
1028226757110044676000000172828286762547179045100000072038000000000000BLIL.4006527602PSWL-0000000000KAGO KADISA    00000000000000000000000000000000000000000000000000000000000000000
1028226757110044676000000172928166762398590391100000030000000000000000BLIL.4003959217ULP1-0000000000MOTHUSI MATHEWS00000000000000000000000000000000000000000000000000000000000000000
1028226757110044676000000173028236762694492647100000032500000000000000BLIL.4006715415MFRA-0000000000GALEYO KOBAMELO00000000000000000000000000000000000000000000000000000000000000000
1028226757110044676000000173128186762407376484100000032025000000000000BLIL.4005215962ULP1-0000000000MOLATLHEGI OSUP00000000000000000000000000000000000000000000000000000000000000000
1028226757110044676000000173228456762089556850100000052920000000000000BLIL.4005014996BMFW-0000000000KOPANO NTULUKI 00000000000000000000000000000000000000000000000000000000000000000
1028226757110044676000000173328186762265308512100000018523000000000000BLIL.4003446664BMFW-0000000000BOIKANYO DIKGAK00000000000000000000000000000000000000000000000000000000000000000
1028226757110044676000000173428186762055763463100000025000000000000000BLIL.4002502824URA1-0000000000BEAUTY SECHELE 00000000000000000000000000000000000000000000000000000000000000000
1028226757110044676000000173528546762153574259100000100347000000000000BLIL.4005321890PSTA-0000000000DEAN KIERON MCI00000000000000000000000000000000000000000000000000000000000000000
1028226757110044676000000173628306762384162005100000010500000000000000BLIL.4003044606ULP1-0000000000ITUMELENG RASEI00000000000000000000000000000000000000000000000000000000000000000
1028226757110044676000000173728286762190821316100000015600000000000000BLIL.04004654536LORE0000000000THAMANI FREEDOM00000000000000000000000000000000000000000000000000000000000000000
1028226757110044676000000173828506762717184890100000030500000000000000BLIL.4006051053URA1-0000000000TANKISO MINGIE 00000000000000000000000000000000000000000000000000000000000000000
1028226757110044676000000173928286762124991599100000027700000000000000BLIL.4006623236BMFW-0000000000JOSEPHINE MOLLY00000000000000000000000000000000000000000000000000000000000000000
1028226757110044676000000174028556762725872031100000037900000000000000BLIL.04004034156LORE0000000000BATISANI MOLULW00000000000000000000000000000000000000000000000000000000000000000
1028226757110044676000000174128126762720084912100000018962000000000000BLIL.4004405698BMFW-0000000000TEBOGO NEO MASA00000000000000000000000000000000000000000000000000000000000000000
1028226757110044676000000174228316762565337849100000020500000000000000BLIL.4004741707ULM5-0000000000KABELO BLACKIE 00000000000000000000000000000000000000000000000000000000000000000
1028226757110044676000000174328456762047199650100000034876000000000000BLIL.4006171247PSTA-0000000000NDOVAZU PAROMIN00000000000000000000000000000000000000000000000000000000000000000
1028226757110044676000000174428506762360766243100000021200000000000000BLIL.4005907460BMFW-0000000000JACK OFENTSE   00000000000000000000000000000000000000000000000000000000000000000
1028226757110044676000000174528166762742361786100000023800000000000000BLIL.4006882436BMFW-0000000000SEGAMETSI SEPHO00000000000000000000000000000000000000000000000000000000000000000
1028226757110044676000000174628286762087022712100000044550000000000000BLIL.4005220973ULM3-0000000000KGOLAGANO SEORO00000000000000000000000000000000000000000000000000000000000000000
1028226757110044676000000174728186762061477347100000020000000000000000BLIL.4001783943ULM3-0000000000BARNEY OTTILIA 00000000000000000000000000000000000000000000000000000000000000000
1028226757110044676000000174828456762242149666100000016500000000000000BLIL.4005916289BMFW-0000000000FRIDAH MOKENTI 00000000000000000000000000000000000000000000000000000000000000000
1028226757110044676000000174928306762682089563100000017300000000000000BLIL.4006711152BMFW-0000000000KAGISO BARAEDI 00000000000000000000000000000000000000000000000000000000000000000
1028226757110044676000000175028236762699065267100000016000000000000000BLIL.4006474429BMFW-0000000000SEFAKO SHAMUTEN00000000000000000000000000000000000000000000000000000000000000000
1028226757110044676000000175128546762235968726100000132872000000000000BLIL.4006405385PSTA-0000000000NLUME MOGOLAGAN00000000000000000000000000000000000000000000000000000000000000000
1028226757110044676000000175228526762339475007100000036500000000000000BLIL.04003878396LORE0000000000GAOLATHE WANTLE00000000000000000000000000000000000000000000000000000000000000000
1028226757110044676000000175328286762086998534100000100000000000000000BLIL.4002593526ULM5-0000000000FIDEL MPOLOKA  00000000000000000000000000000000000000000000000000000000000000000
1028226757110044676000000175428286762229605110100000037275000000000000BLIL.4005959289URA1-0000000000LOPANG T BALESA00000000000000000000000000000000000000000000000000000000000000000
1028226757110044676000000175528506762602385313100000025000000000000000BLIL.4006921044MFDS-0000000000MATSETSELEKO BE00000000000000000000000000000000000000000000000000000000000000000
1028226757110044676000000175628506762490351865100000045838000000000000BLIL.4006672641PSTA-0000000000TLHARESAKGOTLA 00000000000000000000000000000000000000000000000000000000000000000
1028226757110044676000000175728186762102178169100000018505000000000000BLIL.4000995928BMFW-0000000000CHITE SIBUSISO 00000000000000000000000000000000000000000000000000000000000000000
1028226757110044676000000175828186762565838508100000069812000000000000BLIL.4006169496PSTA-0000000000JOHANNAH RADITL00000000000000000000000000000000000000000000000000000000000000000
1028226757110044676000000175928826762453109714100000020000000000000000BLIL.4005893267ULP1-0000000000AOBAKWE JACOB M00000000000000000000000000000000000000000000000000000000000000000
1028226757110044676000000176028286762086991265100000055550000000000000BLIL.4005801593ULM3-0000000000LUCAS TEKO MOSA00000000000000000000000000000000000000000000000000000000000000000
1028226757110044676000000176128236762475299618100000020500000000000000BLIL.4006244612ULP1-0000000000NENGUBA MPAPHO 00000000000000000000000000000000000000000000000000000000000000000
1028226757110044676000000176228896762711878738100000025000000000000000BLIL.4006626755BMFW-0000000000BONE MMEMME M M00000000000000000000000000000000000000000000000000000000000000000
1028226757110044676000000176328456762323706997100000029939000000000000BLIL.4005821484PSTA-0000000000NONOFO SEGWABAN00000000000000000000000000000000000000000000000000000000000000000
1028226757110044676000000176428456762313001737100000017640000000000000BLIL.4004018065BMFW-0000000000DAVID MATTHYS  00000000000000000000000000000000000000000000000000000000000000000
1028226757110044676000000176528126762459411791100000015986000000000000BLIL.4004814075BMFW-0000000000OREEDITSE MODIS00000000000000000000000000000000000000000000000000000000000000000
1028226757110044676000000176628186762367294338100000025000000000000000BLIL.4006410689MFDS-0000000000PHATSIMO KEMISO00000000000000000000000000000000000000000000000000000000000000000
1028226757110044676000000176728286762379057237100000018042000000000000BLIL.4005917560PSTA-0000000000BOY GLAMINI NKA00000000000000000000000000000000000000000000000000000000000000000
1028226757110044676000000176828286762477565299100000053793000000000000BLIL.4006477126PSTA-0000000000MOGOMOTSI VICTO00000000000000000000000000000000000000000000000000000000000000000
1028226757110044676000000176928166757130083258100000073938000000000000BLIL.4001644987ULP1-0000000000MPHO KOOLESE   00000000000000000000000000000000000000000000000000000000000000000
1028226757110044676000000177028236762111368610100000021717000000000000BLIL.4003020274BMFW-0000000000RUDISANG RAMATH00000000000000000000000000000000000000000000000000000000000000000
1028226757110044676000000177128286762035076927100000067500000000000000BLIL.04004543608LORE0000000000CHIPO KEITUMETS00000000000000000000000000000000000000000000000000000000000000000
1028226757110044676000000177228126762087415397100000019419000000000000BLIL.110393169BMFW-10000000000KESEGOFETSE K-G00000000000000000000000000000000000000000000000000000000000000000
1028226757110044676000000177328126762087415397100000029634000000000000BLIL.110393193BMFW-10000000000GAONE THILDAH S00000000000000000000000000000000000000000000000000000000000000000
1028226757110044676000000177428286762522626285100000015158000000000000BLIL.110621257BMFW-10000000000NTHABISENG SUSA00000000000000000000000000000000000000000000000000000000000000000
1028226757110044676000000177528126762087415397100000018522000000000000BLIL.110392851BMFW-10000000000OREEDITSE REDI 00000000000000000000000000000000000000000000000000000000000000000
1028226757110044676000000177628236762419087368100000030379000000000000BLIL.020840678URA1-10000000000OLEFILE MOLEBAT00000000000000000000000000000000000000000000000000000000000000000
1028226757110044676000000177728826762739959560100000121605000000000000BLIL.4004058693ULM5-0000000000DIMAKATSO PAUL 00000000000000000000000000000000000000000000000000000000000000000
1028226757110044676000000177828316762564016642100000031300000000000000BLIL.4005367610BMFW-0000000000PHATSIMO MOKGAL00000000000000000000000000000000000000000000000000000000000000000
1028226757110044676000000177928456762163335261100000032185000000000000BLIL.080446323BMFW-10000000000AMOGELANG AB MO00000000000000000000000000000000000000000000000000000000000000000
1028226757110044676000000178028166762703448466100000037072000000000000BLIL.4001832588URA1-0000000000FRANCINAH M TSW00000000000000000000000000000000000000000000000000000000000000000
1028226757110044676000000178128166762703448466100000019381000000000000BLIL.080977381BMFW-10000000000FRANCINAH M TSW00000000000000000000000000000000000000000000000000000000000000000
1028226757110044676000000178228126762320581243100000046596000000000000BLIL.110290228BMFW-10000000000LOETO MOTSHUDI 00000000000000000000000000000000000000000000000000000000000000000
1028226757110044676000000178328286762086994897100000028960000000000000BLIL.090969095BMFW-10000000000TSHIAMO MOTLHAB00000000000000000000000000000000000000000000000000000000000000000
1028226757110044676000000178428146757110043834100000010400000000000000BLIL.960210004URA1-10000000000ABEL APOLLO BOG00000000000000000000000000000000000000000000000000000000000000000
1028226757110044676000000178528286762019159921100000044199000000000000BLIL.081195255BMFW-10000000000KEANOLE LOETO  00000000000000000000000000000000000000000000000000000000000000000
1028226757110044676000000178628186762029641950100000012600000000000000BLIL.020426131ULM2-10000000000CLAUDIUS MUDIHL00000000000000000000000000000000000000000000000000000000000000000
1028226757110044676000000178728186762029741130100000021414000000000000BLIL.110498503BMFW-10000000000KEBADIRE BONTSI00000000000000000000000000000000000000000000000000000000000000000
1028226757110044676000000178828306762035912973100000032498000000000000BLIL.021047248ULP1-10000000000TRACY BOTSHELON00000000000000000000000000000000000000000000000000000000000000000
1028226757110044676000000178928546762128852151100000036089000000000000BLIL.070570566BMFW-10000000000BOITUMELO C PAY00000000000000000000000000000000000000000000000000000000000000000
1028226757110044676000000179028166762697339078100000012067000000000000BLIL.100636766BMFW-10000000000TINY TANNWANA M00000000000000000000000000000000000000000000000000000000000000000
1028226757110044676000000179128546762572298472100000117899000000000000BLIL.091183545ULP1-10000000000MBUYA NTABE    00000000000000000000000000000000000000000000000000000000000000000
1028226757110044676000000179228126762349555435100000020246000000000000BLIL.071010850BMFW-10000000000LILLIAN MARIA M00000000000000000000000000000000000000000000000000000000000000000
1028226757110044676000000179328456762659730933100000033854000000000000BLIL.080233252BMFW-10000000000ONKABETSE MONTS00000000000000000000000000000000000000000000000000000000000000000
1028226757110044676000000179428286762196132270100000090000000000000000BLIL.090543593URA1-10000000000TEBOGO LARRY MA00000000000000000000000000000000000000000000000000000000000000000
1028226757110044676000000179528286762508837955100000030941000000000000BLIL.4003456447BMFW-0000000000DENNIS KENANAO 00000000000000000000000000000000000000000000000000000000000000000
1028226757110044676000000179628286762027630393100000016982000000000000BLIL.110622733BMFW-10000000000LESEDI MOTLHANK00000000000000000000000000000000000000000000000000000000000000000
1028226757110044676000000179728456762129776962100000047574000000000000BLIL.0000780252ULP1-0000000000THEETSO NTSIMA 00000000000000000000000000000000000000000000000000000000000000000
1028226757110044676000000179828516762289879896100000050525000000000000BLIL.0000707056BMFW-0000000000JACOB MAPOSA   00000000000000000000000000000000000000000000000000000000000000000
1028226757110044676000000179928286762636705967100000027235000000000000BLIL.080869310ULP1-10000000000MERAPELO MOKGOS00000000000000000000000000000000000000000000000000000000000000000
1028226757110044676000000180028286762636705967100000027235000000000000BLIL.080869325ULP1-10000000000MERAPELO MOKGOS00000000000000000000000000000000000000000000000000000000000000000
1028226757110044676000000180128236762472359366100000017482000000000000BLIL.4003920353BMFW-0000000000KESITIGILE MOLO00000000000000000000000000000000000000000000000000000000000000000
1028226757110044676000000180228456762086778192100000014655000000000000BLIL.070993664BMFW-10000000000JOSEPHINE BOTSA00000000000000000000000000000000000000000000000000000000000000000
1028226757110044676000000180328526762086964246100000056553000000000000BLIL.4002551742BMK1-0000000000ONALENNA GOABAO00000000000000000000000000000000000000000000000000000000000000000
1028226757110044676000000180428526762086964246100000020500000000000000BLIL.4000895390URA1-0000000000ONALENNA GOABAO00000000000000000000000000000000000000000000000000000000000000000
1028226757110044676000000180528526762086964246100000051790000000000000BLIL.090436708BMFW-10000000000ONALENNA GOABAO00000000000000000000000000000000000000000000000000000000000000000
1028226757110044676000000180628456762284308741100000022288000000000000BLIL.4000850055BMFW-0000000000ONE PRECIOUS HE00000000000000000000000000000000000000000000000000000000000000000
1028226757110044676000000180728186762228482303100000056306000000000000BLIL.4002120317BMFW-0000000000TOPO PHILLIMON 00000000000000000000000000000000000000000000000000000000000000000
1028226757110044676000000180828286762148082861100000031422000000000000BLIL.4004172271BMFW-0000000000PHENYO MOOKETSI00000000000000000000000000000000000000000000000000000000000000000
1028226757110044676000000180928186762122824669100000039243000000000000BLIL.4003435958BMFW-0000000000NEO NGWAKO     00000000000000000000000000000000000000000000000000000000000000000
1028226757110044676000000181028126762299199912100000034253000000000000BLIL.0000847270BMFW-0000000000LESEGO KAGISANO00000000000000000000000000000000000000000000000000000000000000000
1028226757110044676000000181128126762007588562100000027496000000000000BLIL.080654994BMFW-10000000000BATSHIDI LAEZAH00000000000000000000000000000000000000000000000000000000000000000
1028226757110044676000000181228146762732006764100000020500000000000000BLIL.100213143URA1-10000000000KENEILWE NTSHWE00000000000000000000000000000000000000000000000000000000000000000
1028226757110044676000000181328146762732006764100000059527000000000000BLIL.100213279BMFW-10000000000KENEILWE NTSHWE00000000000000000000000000000000000000000000000000000000000000000
1028226757110044676000000181428826762617884772100000025405000000000000BLIL.4002487101SCTFP0000000000BOITUMELO MAFOR00000000000000000000000000000000000000000000000000000000000000000
1028226757110044676000000181528146762240388927100000024232000000000000BLIL.100851639BMFW-10000000000IKGOPOLENG KGAT00000000000000000000000000000000000000000000000000000000000000000
1028226757110044676000000181628526762781285674100000071669000000000000BLIL.100423897BMFW-10000000000BAAKILE MOTSHEG00000000000000000000000000000000000000000000000000000000000000000
1028226757110044676000000181728146762522693953100000073758000000000000BLIL.080230038BMFW-10000000000KEBABONYE TSHEG00000000000000000000000000000000000000000000000000000000000000000
1028226757110044676000000181828126762334158898100000057759000000000000BLIL.110622941BMFW-10000000000MOSHIE OLORATO 00000000000000000000000000000000000000000000000000000000000000000
1028226757110044676000000181928146757110085761100000150000000000000000BLIL.110497579ULMG-10000000000JOSEPH CHUMA   00000000000000000000000000000000000000000000000000000000000000000
1028226757110044676000000182028146757110085761100000157500000000000000BLIL.040296172URA1-10000000000JOSEPH CHUMA   00000000000000000000000000000000000000000000000000000000000000000
1028226757110044676000000182128186762488319106100000017070000000000000BLIL.090542646BMFW-10000000000KETSHEPILE R PH00000000000000000000000000000000000000000000000000000000000000000
1028226757110044676000000182228556762328051636100000022937000000000000BLIL.110395069BMFW-10000000000LEBUSITSWE BOLO00000000000000000000000000000000000000000000000000000000000000000
1028226757110044676000000182328186762338199187100000022574000000000000BLIL.4003401531BMFW-0000000000GOSIAME MOLAO  00000000000000000000000000000000000000000000000000000000000000000
1028226757110044676000000182428526762595058192100000036300000000000000BLIL.101066107URA1-10000000000CHAWAPIWA MASII00000000000000000000000000000000000000000000000000000000000000000
1028226757110044676000000182528606762695453375100000014772000000000000BLIL.110621480BMFW-10000000000CATHERINE BAEBA00000000000000000000000000000000000000000000000000000000000000000
1028226757110044676000000182628826762606555730100000150000000000000000BLIL.091183532URA1-10000000000NDIBO MATSHAMEK00000000000000000000000000000000000000000000000000000000000000000
1028226757110044676000000182728236762366005679100000020462000000000000BLIL.110290152URA1-10000000000MISHINGO CHABON00000000000000000000000000000000000000000000000000000000000000000
1028226757110044676000000182828456762418609775100000010959000000000000BLIL.081195548BMFW-10000000000KAGISO MORALADI00000000000000000000000000000000000000000000000000000000000000000
1028226757110044676000000182928316762531035055100000009800000000000000BLIL.4005356831BMFW-0000000000ITUMELENG THATO00000000000000000000000000000000000000000000000000000000000000000
1028226757110044676000000183028236762094634203100000025500000000000000BLIL.4006203119ULP1-0000000000GAKEGANE MAITAP00000000000000000000000000000000000000000000000000000000000000000
1028226757110044676000000183128146762174183352100000014037000000000000BLIL.100954715BMFW-10000000000SESIRO BAREETSE00000000000000000000000000000000000000000000000000000000000000000
1028226757110044676000000183228146762174183352100000011743000000000000BLIL.4001083818BMFW-0000000000SESIRO BAREETSE00000000000000000000000000000000000000000000000000000000000000000
1028226757110044676000000183328186762330945223100000027063000000000000BLIL.4000581973BMFW-0000000000MICHAEL MOTEME 00000000000000000000000000000000000000000000000000000000000000000
1028226757110044676000000183428526762077318486100000031174000000000000BLIL.080445462BMFW-10000000000KGOTLA RAPITSEN00000000000000000000000000000000000000000000000000000000000000000
1028226757110044676000000183528236762094634203100000021442000000000000BLIL.4000165397BMFW-0000000000GAKEGANE MAITAP00000000000000000000000000000000000000000000000000000000000000000
1028226757110044676000000183628236762094634203100000012763000000000000BLIL.4001438968ULM5-0000000000GAKEGANE MAITAP00000000000000000000000000000000000000000000000000000000000000000
1028226757110044676000000183728286762205828596100000017927000000000000BLIL.090218646BMFW-10000000000NDULAMO NTOPO  00000000000000000000000000000000000000000000000000000000000000000
1028226757110044676000000183828286762189098497100000042883000000000000BLIL.100636464BMFW-10000000000TEBOGO SEGOLAME00000000000000000000000000000000000000000000000000000000000000000
1028226757110044676000000183928146762245309457100000040500000000000000BLIL.4001927846ULM3-0000000000TSHIAMO PONA MU00000000000000000000000000000000000000000000000000000000000000000
1028226757110044676000000184028146762245309457100000040500000000000000BLIL.4002890621URA1-0000000000TSHIAMO PONA MU00000000000000000000000000000000000000000000000000000000000000000
1028226757110044676000000184128546762691347796100000178025000000000000BLIL.090540159ULM3-10000000000ONTLAMETSE SEBO00000000000000000000000000000000000000000000000000000000000000000
1028226757110044676000000184228166757130042311100000030000000000000000BLIL.031292552ULP1-10000000000GAOLATLHE SIELE00000000000000000000000000000000000000000000000000000000000000000
1028226757110044676000000184328146762250325670100000033017000000000000BLIL.4000585888ULP1-0000000000LEIRWANG LILY M00000000000000000000000000000000000000000000000000000000000000000
1028226757110044676000000184428146762250325670100000050140000000000000BLIL.4000616704BMKS-0000000000LEIRWANG LILY M00000000000000000000000000000000000000000000000000000000000000000
1028226757110044676000000184528146762250325670100000033017000000000000BLIL.4000585422ULP1-0000000000LEIRWANG LILY M00000000000000000000000000000000000000000000000000000000000000000
1028226757110044676000000184628146762250325670100000021028000000000000BLIL.090757985BMKS-10000000000LEIRWANG LILY M00000000000000000000000000000000000000000000000000000000000000000
1028226757110044676000000184728546762596071838100000036037000000000000BLIL.080868895BMFW-10000000000KELEBILEONE RAM00000000000000000000000000000000000000000000000000000000000000000
1028226757110044676000000184828286762086989533100000020500000000000000BLIL.091180737URA1-10000000000STEPHEN MOPALO 00000000000000000000000000000000000000000000000000000000000000000
1028226757110044676000000184928286762086989533100000034504000000000000BLIL.4000265739BMFW-0000000000STEPHEN MOPALO 00000000000000000000000000000000000000000000000000000000000000000
1028226757110044676000000185028286762345656550100000040042000000000000BLIL.4000103193BMFW-0000000000HLAKAE JUSTICE 00000000000000000000000000000000000000000000000000000000000000000
1028226757110044676000000185128286762752190084100000026964000000000000BLIL.070782369BMFW-10000000000KABELO NTHITE  00000000000000000000000000000000000000000000000000000000000000000
1028226757110044676000000185228286762752190084100000036300000000000000BLIL.4003533665ULP1-0000000000KABELO NTHITE  00000000000000000000000000000000000000000000000000000000000000000
1028226757110044676000000185328286762113285268100000017035000000000000BLIL.4001024298BMFW-0000000000CHARITY TAMAKI 00000000000000000000000000000000000000000000000000000000000000000
1028226757110044676000000185428286762126230226100000084528000000000000BLIL.4007032043PSWL-0000000000NTEBOGANG SEHUH00000000000000000000000000000000000000000000000000000000000000000
1028226757110044676000000185528166762324727249100000026132000000000000BLIL.0000500327BMFW-0000000000LAZARUS MOTLHAB00000000000000000000000000000000000000000000000000000000000000000
1028226757110044676000000185628186762285108679100000007579000000000000BLIL.110285224BMFW-10000000000WILLIAM PHUTHEG00000000000000000000000000000000000000000000000000000000000000000
1028226757110044676000000185728286762086964022100000030718000000000000BLIL.071098901BMFW-10000000000OLERATO CLAUD M00000000000000000000000000000000000000000000000000000000000000000
1028226757110044676000000185828286762150235490100000024917000000000000BLIL.4001647600BMFW-0000000000GOITSEONE KEEDI00000000000000000000000000000000000000000000000000000000000000000
1028226757110044676000000185928286762410057005100000028050000000000000BLIL.4003693178URA1-0000000000KEABETSWE SETIM00000000000000000000000000000000000000000000000000000000000000000
1028226757110044676000000186028146762048979712100000017105000000000000BLIL.061249196ULP1-10000000000LENYORA MOTLHAN00000000000000000000000000000000000000000000000000000000000000000
1028226757110044676000000186128286762550025615100000021041000000000000BLIL.070678075BMFW-10000000000DIJWALO MERCY M00000000000000000000000000000000000000000000000000000000000000000
1028226757110044676000000186228286762550025615100000010633000000000000BLIL.980319821ULM2-10000000000DIJWALO MERCY M00000000000000000000000000000000000000000000000000000000000000000
1028226757110044676000000186328456762205220940100000014071000000000000BLIL.110181913URA1-10000000000KELEEMANG MOEME00000000000000000000000000000000000000000000000000000000000000000
1028226757110044676000000186428456762205220940100000022750000000000000BLIL.070152313BMFW-10000000000KELEEMANG MOEME00000000000000000000000000000000000000000000000000000000000000000
1028226757110044676000000186528196757110084523100000031608000000000000BLIL.080975280BMFW-10000000000WAME SETLHOTLHE00000000000000000000000000000000000000000000000000000000000000000
1028226757110044676000000186628146757110085513100000022962000000000000BLIL.080444347BMFW-10000000000MPHO SETSHOGO  00000000000000000000000000000000000000000000000000000000000000000
1028226757110044676000000186728146757110085513100000009909000000000000BLIL.961015745ULM2-10000000000MPHO SETSHOGO  00000000000000000000000000000000000000000000000000000000000000000
1028226757110044676000000186828146757110095843100000025143000000000000BLIL.070781838BMFW-10000000000MAGGIE MAUNGE  00000000000000000000000000000000000000000000000000000000000000000
1028226757110044676000000186928146757111188457100000033205000000000000BLIL.110937242BMFW-10000000000JOHANNES MAHLAS00000000000000000000000000000000000000000000000000000000000000000
1028226757110044676000000187028166757130013429100000022508000000000000BLIL.101065851URA1-10000000000JACQUELINE MEYE00000000000000000000000000000000000000000000000000000000000000000
1028226757110044676000000187128166757130095188100000027200000000000000BLIL.090758352ULP1-10000000000ITUMELENG MOKGA00000000000000000000000000000000000000000000000000000000000000000
1028226757110044676000000187228186757151233692100000059849000000000000BLIL.100634714BMFW-10000000000THEKO DIJENG   00000000000000000000000000000000000000000000000000000000000000000
1028226757110044676000000187328186757159007908100000025414000000000000BLIL.100745136BMFW-10000000000SELINAH MASESE 00000000000000000000000000000000000000000000000000000000000000000
1028226757110044676000000187428196757160010940100000010000000000000000BLIL.960219999ULM1-10000000000RADINAKEDI MOYO00000000000000000000000000000000000000000000000000000000000000000
1028226757110044676000000187528196757160014992100000013857000000000000BLIL.070571460BMFW-10000000000GAOFETOGE NTSHA00000000000000000000000000000000000000000000000000000000000000000
1028226757110044676000000187628196757160020866100000010691000000000000BLIL.080767451BMFW-10000000000EMMANUEL BOTLHA00000000000000000000000000000000000000000000000000000000000000000
1028226757110044676000000187728196757160048511100000020500000000000000BLIL.081190599ULP1-10000000000MPHO LEU       00000000000000000000000000000000000000000000000000000000000000000
1028226757110044676000000187828236757200025073100000021040000000000000BLIL.070257319BMFW-10000000000AMOGELANG KELAT00000000000000000000000000000000000000000000000000000000000000000
1028226757110044676000000187928286757390008963100000024400000000000000BLIL.110410844ULP1-10000000000BERENICE  N BER00000000000000000000000000000000000000000000000000000000000000000
1028226757110044676000000188028306757390009200100000027133000000000000BLIL.070571820BMFW-10000000000GALEMODIMO NYOK00000000000000000000000000000000000000000000000000000000000000000
1028226757110044676000000188128826762739959560100000038709000000000000BLIL.100958732BMFW-10000000000DIMAKATSO PAUL 00000000000000000000000000000000000000000000000000000000000000000
1028226757110044676000000188228146760711095534100000009611000000000000BLIL.080336240BMFW-10000000000DORCAS MODISANE00000000000000000000000000000000000000000000000000000000000000000
1028226757110044676000000188328166760713094831100000043160000000000000BLIL.080976608BMFW-10000000000LYNDAH KGASWANE00000000000000000000000000000000000000000000000000000000000000000
1028226757110044676000000188428166760736085429100000032230000000000000BLIL.080125516BMFW-10000000000NEO ROBERTA NKE00000000000000000000000000000000000000000000000000000000000000000
1028226757110044676000000188528146762748523538100000013448000000000000BLIL.100956375BMFW-10000000000POLITE SELEBALE00000000000000000000000000000000000000000000000000000000000000000
1028226757110044676000000188628236762394032933100000024062000000000000BLIL.110180604BMFW-10000000000TSHEGOFATSO SET00000000000000000000000000000000000000000000000000000000000000000
1028226757110044676000000188728186760715056558100000017433000000000000BLIL.080977724BMFW-10000000000SEBANKI OBOPILE00000000000000000000000000000000000000000000000000000000000000000
1028226757110044676000000188828166762001281162100000013407000000000000BLIL.090859604BMFW-10000000000LLOYD COCKY SIA00000000000000000000000000000000000000000000000000000000000000000
1028226757110044676000000188928146762004576081100000015200000000000000BLIL.051287927ULP1-10000000000JOHANNES BABUSE00000000000000000000000000000000000000000000000000000000000000000
1028226757110044676000000189028146762008027329100000030030000000000000BLIL.101278074BMFW-10000000000TEBOGO LINDAH O00000000000000000000000000000000000000000000000000000000000000000
1028226757110044676000000189128286762008289177100000020040000000000000BLIL.080234740BMFW-10000000000UNANI MATSHOGA 00000000000000000000000000000000000000000000000000000000000000000
1028226757110044676000000189228126762008335467100000029907000000000000BLIL.081195361BMFW-10000000000POLOKO KGOBOKO 00000000000000000000000000000000000000000000000000000000000000000
1028226757110044676000000189328146762011177525100000031957000000000000BLIL.090754364BMFW-10000000000OANAYA THANDI K00000000000000000000000000000000000000000000000000000000000000000
1028226757110044676000000189428286762012645018100000020000000000000000BLIL.070150968ULP1-10000000000GEOFFERY JEFF S00000000000000000000000000000000000000000000000000000000000000000
1028226757110044676000000189528166762014556883100000099934000000000000BLIL.071010726URA1-10000000000KEFEMETSWE MPHE00000000000000000000000000000000000000000000000000000000000000000
1028226757110044676000000189628306762021271276100000029020000000000000BLIL.081298054BMFW-10000000000KETENG MMESHANE00000000000000000000000000000000000000000000000000000000000000000
1028226757110044676000000189728186762027025908100000027184000000000000BLIL.061246500BMFW-10000000000MOTHIBI JONG   00000000000000000000000000000000000000000000000000000000000000000
1028226757110044676000000189828196762028022606100000018200000000000000BLIL.060720205ULP1-10000000000MELEKO LESOSOBA00000000000000000000000000000000000000000000000000000000000000000
1028226757110044676000000189928146762028123438100000017063000000000000BLIL.091075254BMFW-10000000000PINDANI PINKIE 00000000000000000000000000000000000000000000000000000000000000000
1028226757110044676000000190028146762028154003100000021035000000000000BLIL.070676688BMFW-10000000000MICHAEL L RAPAL00000000000000000000000000000000000000000000000000000000000000000
1028226757110044676000000190128166762029675975100000016912000000000000BLIL.090755941BMFW-10000000000ONALETHATA MOES00000000000000000000000000000000000000000000000000000000000000000
1028226757110044676000000190228166762029997296100000014332000000000000BLIL.100298482BMFW-10000000000MATSHIDISO BULA00000000000000000000000000000000000000000000000000000000000000000
1028226757110044676000000190328246762030895702100000035753000000000000BLIL.070574996BMFW-10000000000BADIRI MHOTSHA 00000000000000000000000000000000000000000000000000000000000000000
1028226757110044676000000190428316762031491385100000045170000000000000BLIL.110184262BMFW-10000000000KABO MACHACHA  00000000000000000000000000000000000000000000000000000000000000000
1028226757110044676000000190528316762031491385100000017287000000000000BLIL.100528303BMFW-10000000000KABO MACHACHA  00000000000000000000000000000000000000000000000000000000000000000
1028226757110044676000000190628166762032091564100000024418000000000000BLIL.060827962BMFW-10000000000RUTH BINKIE KGA00000000000000000000000000000000000000000000000000000000000000000
1028226757110044676000000190728196762032428816100000023388000000000000BLIL.091180724BMFW-10000000000SADIMME MOTHOOT00000000000000000000000000000000000000000000000000000000000000000
1028226757110044676000000190828186762033037369100000030378000000000000BLIL.041243265ULP1-10000000000KEBARENG PAAKAN00000000000000000000000000000000000000000000000000000000000000000
1028226757110044676000000190928316762033186679100000010000000000000000BLIL.090861972URA1-10000000000MARGARET MATLHO00000000000000000000000000000000000000000000000000000000000000000
1028226757110044676000000191028316762033359218100000018456000000000000BLIL.071116559BMFW-10000000000MASEGO WADIKGOM00000000000000000000000000000000000000000000000000000000000000000
1028226757110044676000000191128146762035095456100000016597000000000000BLIL.070466337BMFW-10000000000THAPELO KESIILW00000000000000000000000000000000000000000000000000000000000000000
1028226757110044676000000191228146762035207879100000012667000000000000BLIL.110620774BMFW-10000000000LEBALANG MACHEN00000000000000000000000000000000000000000000000000000000000000000
1028226757110044676000000191328166762035541780100000051353000000000000BLIL.080977211ULP1-10000000000CARLA M C KOKAB00000000000000000000000000000000000000000000000000000000000000000
1028226757110044676000000191428146762044137851100000025813000000000000BLIL.090542365BMFW-10000000000MPHO MOKONE    00000000000000000000000000000000000000000000000000000000000000000
1028226757110044676000000191528146762044137851100000010500000000000000BLIL.101169922URA1-10000000000MPHO MOKONE    00000000000000000000000000000000000000000000000000000000000000000
1028226757110044676000000191628186762049773626100000023781000000000000BLIL.110392201BMFW-10000000000CHENDZIMU BAPIN00000000000000000000000000000000000000000000000000000000000000000
1028226757110044676000000191728286762049836292100000017109000000000000BLIL.070153477BMFW-10000000000MMAPULA MOKAEKA00000000000000000000000000000000000000000000000000000000000000000
1028226757110044676000000191828186762053632595100000008000000000000000BLIL.050563256ULP1-10000000000TEKANYO N MOTHE00000000000000000000000000000000000000000000000000000000000000000
1028226757110044676000000191928186762053632595100000010000000000000000BLIL.090539198URA1-10000000000TEKANYO N MOTHE00000000000000000000000000000000000000000000000000000000000000000
1028226757110044676000000192028316762054741527100000025606000000000000BLIL.110725252BMFW-10000000000ODUETSE M BAGOK00000000000000000000000000000000000000000000000000000000000000000
1028226757110044676000000192128286762056924783100000019921000000000000BLIL.070151674BMFW-10000000000MMAMAH OSADIE I00000000000000000000000000000000000000000000000000000000000000000
1028226757110044676000000192228146762059385346100000038440000000000000BLIL.070781638BMFW-10000000000BADIRI MAHUDIRI00000000000000000000000000000000000000000000000000000000000000000
1028226757110044676000000192328186762060700624100000105990000000000000BLIL.050768288ULP1-10000000000TLHABOLOGO WILL00000000000000000000000000000000000000000000000000000000000000000
1028226757110044676000000192428146762061899004100000016932000000000000BLIL.070781668BMFW-10000000000TEBOGO IKANENG 00000000000000000000000000000000000000000000000000000000000000000
1028226757110044676000000192528146762062086098100000054146000000000000BLIL.100528339BMKS-10000000000AGNES TSHOLOFEL00000000000000000000000000000000000000000000000000000000000000000
1028226757110044676000000192628146762062086098100000202178000000000000BLIL.010365246URA1-10000000000AGNES T KHUNWAN00000000000000000000000000000000000000000000000000000000000000000
1028226757110044676000000192728166762064148458100000022316000000000000BLIL.080655511BMFW-10000000000MMAMOITAKI CARO00000000000000000000000000000000000000000000000000000000000000000
1028226757110044676000000192828236762066596267100000030146000000000000BLIL.061142262BMFW-10000000000ONOSI MOTOLOKI 00000000000000000000000000000000000000000000000000000000000000000
1028226757110044676000000192928186762071712585100000100000000000000000BLIL.101277578URA1-10000000000FINE MOYO      00000000000000000000000000000000000000000000000000000000000000000
1028226757110044676000000193028186762071712585100000050000000000000000BLIL.101277571ULM5-10000000000FINE MOYO      00000000000000000000000000000000000000000000000000000000000000000
1028226757110044676000000193128186762071712585100000100000000000000000BLIL.101277574URA1-10000000000NTOMBIZOWA MOYO00000000000000000000000000000000000000000000000000000000000000000
1028226757110044676000000193228186762071712585100000019061000000000000BLIL.101063089BMFW-10000000000FINE MOYO      00000000000000000000000000000000000000000000000000000000000000000
1028226757110044676000000193328456762072784955100000023406000000000000BLIL.100847802BMFW-10000000000KELEBOGILE BONG00000000000000000000000000000000000000000000000000000000000000000
1028226757110044676000000193428146762073326681100000013195000000000000BLIL.080340425BMFW-10000000000ONALENNA OUTULE00000000000000000000000000000000000000000000000000000000000000000
1028226757110044676000000193528126762074567359100000120000000000000000BLIL.040295714URA1-10000000000LINDAH GAODIREL00000000000000000000000000000000000000000000000000000000000000000
1028226757110044676000000193628166762074694714100000015902000000000000BLIL.110830697BMFW-10000000000MOSETSANAGAPE G00000000000000000000000000000000000000000000000000000000000000000
1028226757110044676000000193728186762075417644100000020500000000000000BLIL.101278052ULK6-10000000000SAMUEL RASEGOJW00000000000000000000000000000000000000000000000000000000000000000
1028226757110044676000000193828126762076700030100000016865000000000000BLIL.100424522BMFW-10000000000SILAH MADOME   00000000000000000000000000000000000000000000000000000000000000000
1028226757110044676000000193928126762077632117100000011735000000000000BLIL.090860562BMFW-10000000000MOAKOFI MOLOSIW00000000000000000000000000000000000000000000000000000000000000000
1028226757110044676000000194028126762077632117100000022508000000000000BLIL.100852532URA1-10000000000MOAKOFI MOLOSIW00000000000000000000000000000000000000000000000000000000000000000
1028226757110044676000000194128166762078341098100000017593000000000000BLIL.080337744BMFW-10000000000MALEBOGO KAGISO00000000000000000000000000000000000000000000000000000000000000000
1028226757110044676000000194228286762079078179100000016215000000000000BLIL.110621722URA1-10000000000PENCY LERATO OT00000000000000000000000000000000000000000000000000000000000000000
1028226757110044676000000194328126762079321578100000019082000000000000BLIL.090330457BMFW-10000000000THULANI TAPSON 00000000000000000000000000000000000000000000000000000000000000000
1028226757110044676000000194428246762080290382100000015514000000000000BLIL.101062516URA1-10000000000GEOFREY BATHUSI00000000000000000000000000000000000000000000000000000000000000000
1028226757110044676000000194528176762080316724100000020687000000000000BLIL.100197454BMFW-10000000000PETER KGANGETSI00000000000000000000000000000000000000000000000000000000000000000
1028226757110044676000000194628166762080859881100000019299000000000000BLIL.060931031BMFW-10000000000BASIMANE LEBESE00000000000000000000000000000000000000000000000000000000000000000
1028226757110044676000000194728546762081692008100000047985000000000000BLIL.110622868BMFW-10000000000MMAMA DAISY MHL00000000000000000000000000000000000000000000000000000000000000000
1028226757110044676000000194828176762082406929100000023607000000000000BLIL.070255404BMFW-10000000000KEFALOTSE ELISA00000000000000000000000000000000000000000000000000000000000000000
1028226757110044676000000194928286762213986295100000025846000000000000BLIL.080339858BMFW-10000000000IREEN SUPANG RA00000000000000000000000000000000000000000000000000000000000000000
1028226757110044676000000195028286762085813478100000028345000000000000BLIL.080763369BMFW-10000000000NEO PEGGY THOPH00000000000000000000000000000000000000000000000000000000000000000
1028226757110044676000000195128456762086758623100000015929000000000000BLIL.080235471BMFW-10000000000THATO TLHAGE   00000000000000000000000000000000000000000000000000000000000000000
1028226757110044676000000195228236762752371577100000040000000000000000BLIL.110830326URA1-10000000000TUELO BAPEDI   00000000000000000000000000000000000000000000000000000000000000000
1028226757110044676000000195328286762086932110100000049251000000000000BLIL.110284611BMFW-10000000000MFOLWE BERNARD 00000000000000000000000000000000000000000000000000000000000000000
1028226757110044676000000195428286762086945353100000031762000000000000BLIL.101064495BMFW-10000000000BOIKOBO JAIRROU00000000000000000000000000000000000000000000000000000000000000000
1028226757110044676000000195528286762086955112100000022508000000000000BLIL.100957369URA1-10000000000RACHEL AMANTLE 00000000000000000000000000000000000000000000000000000000000000000
1028226757110044676000000195628126762086959528100000019978000000000000BLIL.110623781BMFW-10000000000NALEDI LEKGOWE 00000000000000000000000000000000000000000000000000000000000000000
1028226757110044676000000195728286762087004447100000054373000000000000BLIL.100423105BMFW-10000000000KAMOGELO MOTSWA00000000000000000000000000000000000000000000000000000000000000000
1028226757110044676000000195828286762087005908100000058564000000000000BLIL.070781728ULP1-10000000000TIISETSO ODISIT00000000000000000000000000000000000000000000000000000000000000000
1028226757110044676000000195928286762087005908100000021634000000000000BLIL.110832246BMFW-10000000000TIISETSO ODISIT00000000000000000000000000000000000000000000000000000000000000000
1028226757110044676000000196028286762087014917100000017375000000000000BLIL.090863034BMFW-10000000000MOTSHEGETSI RAN00000000000000000000000000000000000000000000000000000000000000000
1028226757110044676000000196128526762087019496100000017733000000000000BLIL.110619949BMFW-10000000000KELEBOGILE SEFH00000000000000000000000000000000000000000000000000000000000000000
1028226757110044676000000196228286762087021805100000018852000000000000BLIL.110725297BMFW-10000000000YVONNE PHALE   00000000000000000000000000000000000000000000000000000000000000000
1028226757110044676000000196328546762087024536100000015514000000000000BLIL.101064944URA1-10000000000ESTHER TLHAJWAN00000000000000000000000000000000000000000000000000000000000000000
1028226757110044676000000196428286762087028744100000042871000000000000BLIL.101066116ULK6-10000000000TSHEPO THUKU   00000000000000000000000000000000000000000000000000000000000000000
1028226757110044676000000196528236762087139517100000039951000000000000BLIL.110940991ULM3-10000000000PEGGIE RAMAPHAN00000000000000000000000000000000000000000000000000000000000000000
1028226757110044676000000196628146762087995406100000022508000000000000BLIL.100194127URA1-10000000000GAONE MUZILA   00000000000000000000000000000000000000000000000000000000000000000
1028226757110044676000000196728286762088515774100000030500000000000000BLIL.080980157URA1-10000000000GAOFENNGWE SEBO00000000000000000000000000000000000000000000000000000000000000000
1028226757110044676000000196828456762088930857100000037825000000000000BLIL.100320378BMFW-10000000000MAITUMELO      00000000000000000000000000000000000000000000000000000000000000000
1028226757110044676000000196928146762088981595100000011552000000000000BLIL.070888309BMFW-10000000000KEDIGOLETSE THE00000000000000000000000000000000000000000000000000000000000000000
1028226757110044676000000197028286762089267308100000017168000000000000BLIL.070891678BMFW-10000000000JOSEPH THABO RA00000000000000000000000000000000000000000000000000000000000000000
1028226757110044676000000197128236762089601613100000029320000000000000BLIL.080235409BMFW-10000000000GAONE AGNES WEL00000000000000000000000000000000000000000000000000000000000000000
1028226757110044676000000197228456762089625663100000022484000000000000BLIL.071116039BMFW-10000000000TEBOGO TREVOR M00000000000000000000000000000000000000000000000000000000000000000
1028226757110044676000000197328166762089916864100000022320000000000000BLIL.070680820BMFW-10000000000LEBOGANG S RAMP00000000000000000000000000000000000000000000000000000000000000000
1028226757110044676000000197428456762090046626100000017532000000000000BLIL.090327922BMFW-10000000000ONINKIE NELDAH 00000000000000000000000000000000000000000000000000000000000000000
1028226757110044676000000197528286762090970792100000050000000000000000BLIL.080127847ULP1-10000000000RESEGO MORAKANY00000000000000000000000000000000000000000000000000000000000000000
1028226757110044676000000197628286762090970792100000020169000000000000BLIL.090973190BMFW-10000000000RESEGO MORAKANY00000000000000000000000000000000000000000000000000000000000000000
1028226757110044676000000197728166762091131103100000024754000000000000BLIL.080979911BMFW-10000000000MAGAPE JOES MAG00000000000000000000000000000000000000000000000000000000000000000
1028226757110044676000000197828456762091154204100000020800000000000000BLIL.051184068ULP1-10000000000ANDREW MOAGI   00000000000000000000000000000000000000000000000000000000000000000
1028226757110044676000000197928456762091154204100000036438000000000000BLIL.070465979BMFW-10000000000ANDREW MOAGI   00000000000000000000000000000000000000000000000000000000000000000
1028226757110044676000000198028186762091893133100000014285000000000000BLIL.081190889BMFW-10000000000ADELAIDE SEBEKW00000000000000000000000000000000000000000000000000000000000000000
1028226757110044676000000198128166762092094508100000034128000000000000BLIL.070256638BMFW-10000000000MAUNGO MMEREKI 00000000000000000000000000000000000000000000000000000000000000000
1028226757110044676000000198228286762092226177100000042797000000000000BLIL.071119878URA1-10000000000OPELO KETSIDILE00000000000000000000000000000000000000000000000000000000000000000
1028226757110044676000000198328286762092226177100000048558000000000000BLIL.091075112BMFW-10000000000OPELO KETSIDILE00000000000000000000000000000000000000000000000000000000000000000
1028226757110044676000000198428286762092449852100000024759000000000000BLIL.090221755ULP1-10000000000KATSHENE JIBICH00000000000000000000000000000000000000000000000000000000000000000
1028226757110044676000000198528236762095442902100000032920000000000000BLIL.071224914BMFW-10000000000MOSETLHA SEBERA00000000000000000000000000000000000000000000000000000000000000000
1028226757110044676000000198628236762095474252100000012200000000000000BLIL.060721458ULP1-10000000000BOITSHOKO MOLOI00000000000000000000000000000000000000000000000000000000000000000
1028226757110044676000000198728236762095474252100000016849000000000000BLIL.110935719BMFW-10000000000BOITSHOKO MOLOI00000000000000000000000000000000000000000000000000000000000000000
1028226757110044676000000198828236762095474252100000010000000000000000BLIL.060721402URA1-10000000000BOITSHOKO MOLOI00000000000000000000000000000000000000000000000000000000000000000
1028226757110044676000000198928236762095474252100000038974000000000000BLIL.110935658ULK6-10000000000BOITSHOKO MOLOI00000000000000000000000000000000000000000000000000000000000000000
1028226757110044676000000199028186762095763639100000012805000000000000BLIL.110938240BMFW-10000000000KAMOGELO MOSEPE00000000000000000000000000000000000000000000000000000000000000000
1028226757110044676000000199128286762098630942100000033331000000000000BLIL.100849572BMFW-10000000000JOYCE DIRADITSI00000000000000000000000000000000000000000000000000000000000000000
1028226757110044676000000199228456762100387051100000037950000000000000BLIL.060410770ULP1-10000000000KEOAGILE THABO 00000000000000000000000000000000000000000000000000000000000000000
1028226757110044676000000199328286762101540658100000016292000000000000BLIL.080232778BMFW-10000000000OTENG BIKI KENE00000000000000000000000000000000000000000000000000000000000000000
1028226757110044676000000199428456762102726984100000015048000000000000BLIL.090113082BMFW-10000000000TANYALA BEAUTY 00000000000000000000000000000000000000000000000000000000000000000
1028226757110044676000000199528456762102726984100000119078000000000000BLIL.090113077ULK6-10000000000TANYALA BEAUTY 00000000000000000000000000000000000000000000000000000000000000000
1028226757110044676000000199628166762103160123100000014371000000000000BLIL.070783714BMFW-10000000000GOBONA RAMPHATL00000000000000000000000000000000000000000000000000000000000000000
1028226757110044676000000199728196762104000633100000012617000000000000BLIL.070362111BMFW-10000000000JOYCE GABONTHON00000000000000000000000000000000000000000000000000000000000000000
1028226757110044676000000199828166762104129384100000048163000000000000BLIL.100423327BMFW-10000000000LESEGO MOETEDI 00000000000000000000000000000000000000000000000000000000000000000
1028226757110044676000000199928166762104129384100000351584000000000000BLIL.100423336URA1-10000000000LESEGO MOETEDI 00000000000000000000000000000000000000000000000000000000000000000
1028226757110044676000000200028166762104129384100000074612000000000000BLIL.100422875ULP1-10000000000LESEGO MOETEDI 00000000000000000000000000000000000000000000000000000000000000000
1028226757110044676000000200128166762104197290100000015049000000000000BLIL.090971051BMFW-10000000000MARIA KEBALEPIL00000000000000000000000000000000000000000000000000000000000000000
